:100000000D94FA000D9420010D9420010D9420010F
:100010000D9420010D9420010D9420010D942001D8
:100020000D9420010D9420010D9420010D942001C8
:100030000D9420010D9420010D9420010D942001B8
:100040000D9420010D9420010D9420010D942001A8
:100050000D9420010D9420010D9420010D94200198
:100060000D9420010D9420010D9420010D94200188
:100070000D9420010D9420010D9420010D94200178
:100080000D9420010D9420010D9420010D94200168
:100090000D9420010D9420010D9420010D94200158
:1000A0000D9420010D9420010D9420010D94200148
:1000B0000D9420010D9420010D9420010D94200138
:1000C0000D9420010D9420010D9420010D94200128
:1000D0000D9420010D9420010D9420010D94200118
:1000E0000D9420010D9420010D9420010D94200108
:1000F0000D9420010D9420010D9420010D942001F8
:100100000D9420010D9420010D9420010D942001E7
:100110000D9420010D9420010D9420010D942001D7
:100120000D9420010D9420010D9420010D942001C7
:100130000D9420010D9420010D9420010D942001B7
:100140000D9420010D9420010D9420010D942001A7
:100150000D9420010D9420010D9420010D94200197
:100160000D9420010D9420010D9420010D94200187
:100170000D9420010D9420010D9420010D94200177
:100180000D9420010D9420010D9420010D94200167
:100190000D9420010D9420010D9420010D94200157
:1001A0000D9420010D9420010D9420010D94200147
:1001B0000D9420010D9420010D9420010D94200137
:1001C0000D9420010D9420010D9420010D94200127
:1001D0000D9420010D9420010D9420010D94200117
:1001E0000D9420010D9420010D9420010D94200107
:1001F0000D94200111241FBECFEFDFE3DEBFCDBF82
:1002000001E00CBF18BE19BE1ABE1BBE10E2A0E072
:10021000B0E2EEE8FDE002E00BBF02C007900D92F5
:10022000A030B107D9F71BBE12E2A0E0B0E201C0D6
:100230001D92A130B107E1F70F9470030D94C5062C
:100240000D9400003BB78BBFFB0186913BBF089527
:100250003BB78BBFFB01879196913BBF089542E06E
:1002600097C041E095C08093C00188278093C10169
:100270008093C20147E07CD0CB0108958093C401F4
:1002800048E076C08091D00108953BB748E10D94D5
:10029000CD013BB74AE10D94CD013BB788279927A3
:1002A0008BBF40E20D94CD013BB78BBFCB0142E247
:1002B0000D94CD013BB70B0143E20D94CD01EE2728
:1002C000FF2719BEDC0143E24093CA0150E02DE94B
:1002D0000D901D9020933400E89532965A95C1F701
:1002E000112408953BB76BBFFA0119BEDC0140E051
:1002F0004093CA0150E0879197918D939D935A95B1
:10030000D1F73BBF08953BB78BBFCB0144E20D94BF
:10031000CD013BB78BBFCB0145E20D94CD013BB77F
:1003200046E20D94CD013BB78BBFCB014AE20D9461
:10033000CD013BB78BBFCB014CE20D94CD013BB758
:100340008BBFCB014DE20D94CD0148E311C049E3D1
:100350000FC028ED2093340021E02093CC010895B4
:100360002091CF0127FDFCCF22272093CA010895B9
:100370004093CA0128ED31E0209334003093CB0143
:100380006091C4017091C5018091C60199270895BB
:10039000FC014093CA0184910895FC014093CA0175
:1003A0002DE920933400E89511243BBF089586275A
:1003B000682F62956827062E669566956025062E3D
:1003C000669560256770082E892F66950794679556
:1003D000902D86270694679590258627089580910D
:1003E0000020823050F49091A10B97FFFACF81E06A
:1003F000809300208091A00B0895FFCF9091002062
:10040000923060F48093A00B8091A10B86FFFCCF0B
:100410008091A10B8064E0EAFBE081830895CF9393
:100420000F94EF01C82F0F94EF013C2F20E090E0D4
:10043000822B932BCF910895AF92BF92CF92DF92F0
:10044000EF92FF921F93CF93DF937C01162F5A01F7
:1004500061E0C62E60E2D62EC0E0D0E0CE15DF050A
:1004600018F40F94EF0101C08FEFF60181936F0133
:100470002196F2E0C030DF0789F71534C9F4F501A1
:100480008081918161E070E2A7010F944106A7018C
:1004900060E070E0F50180819181A281B381840FD9
:1004A000951FA61FB71F80839183A283B38335C096
:1004B000163411F0153579F5F50180819181A2810D
:1004C000B381F694E794A70160E070E0480F591FEC
:1004D0006A1F7B1F4083518362837383163461F4E8
:1004E000BC01CD01660F771F881F991F41E050E2C4
:1004F00021E00F94860511C0153579F481E090E272
:100500000F945F010F9445010F94B0010F944901BE
:100510000F94B00102C08FE301C08DE0DF91CF9155
:100520001F91FF90EF90DF90CF90BF90AF90089514
:10053000AF92BF92CF92DF92EF92FF920F931F93F1
:10054000CF93DF936C01C62F7A015C016534E9F427
:10055000FA018081918161E070E2A6010F940606A4
:10056000A60160E070E0F70180819181A281B381F2
:10057000840F951FA61FB71F80839183A283B38327
:1005800001E010E2C0E0D0E053C0663429F06535E8
:1005900019F0603509F04FC0F70180819181A28187
:1005A000B381880F991FAA1FBB1F80839183A283E9
:1005B000B38300E010E0C63441F4F701608171813B
:1005C000828193810F9422010EC0C53531F4F70169
:1005D000808191810F94310106C0C03551F4F7013B
:1005E00080810F942F01F801EF5FFF4D80830F5F33
:1005F0001F4F0F94B001F70180819181A281B381D7
:100600000196A11DB11D80839183A283B3830894B9
:10061000C108D108C114D10471F6B695A795979574
:100620008795AACFF80181918F010F94FE01219641
:10063000CA15DB05BCF3DF91CF911F910F91FF909D
:10064000EF90DF90CF90BF90AF9008958F929F92E0
:10065000AF92BF92CF92DF92EF92FF920F931F93D0
:10066000CF93DF934B015C0169017A01C0E0D2E0D6
:1006700000E010E022C082E0C030D80781F481E0C1
:1006800090E2B501A4010F94720180E092E0A0E035
:10069000B0E0880E991EAA1EBB1EC0E0D0E0FE018D
:1006A000EF5FFF4DC80160810F94D7018C01219647
:1006B0000894C108D108E108F108C114D104E1048B
:1006C000F104C9F6C801DF91CF911F910F91FF90FE
:1006D000EF90DF90CF90BF90AF909F908F90089554
:1006E0005F926F927F928F929F92AF92BF92CF92C2
:1006F000DF92EF92FF920F931F93CF93DF93CDB7CB
:10070000DEB72597CDBFDEBF19821A821B821C82FD
:10071000109200208091500084608093500080915E
:10072000510082FFFCCF8091500082608093500086
:100730008091510081FFFCCF81E080936000809325
:10074000680098ED94BF80934000E0E2F7E088E015
:10075000818385830F94AF0600E0BEEF7B2E10E807
:10076000C12E18E3D12E11E0E12EF12C80E2A82E4B
:1007700087E0B82E98E0592E66246394C114D10402
:10078000E104F10431F00894C108D108E108F1084E
:100790000AC0F50157827A94A0E8CA2EA8E3DA2E9F
:1007A000A1E0EA2EF12C8091A10B87FF14C01091DB
:1007B000A00B1B3131F08FE30F94FE01133509F0CC
:1007C000A3C100FF04C0133509F09EC103C01B3153
:1007D00009F09AC10F5F0A3020F06092002011E00A
:1007E00001C010E0A895112349F011E0AA24BB2410
:1007F000F0E2EF2EF7E0FF2E08E065C1772009F068
:10080000BDCFF4CFF70107830F94EF01813611F4C8
:1008100089E555C1813429F40F940F02A0E0B0E0BE
:1008200080C08834B9F40F94EF01C82E0F940F02E2
:100830004C2D50E060E070E0BA0155274427A0E05D
:10084000B0E0482B592B6A2B7B2B49835A836B834F
:100850007C83DBC0853639F40F944D010F94B001D1
:100860000F94A606D2C0823629F489E50F94FE01C2
:1008700082E0BFC0823489F40F940F02C82EA82EE4
:10088000B92E9D830F94EF01682F8C2D9D81AE01B1
:100890004F5F5F4F0F941C0212C1873689F40F948B
:1008A0000F02C82EA82EB92E9D830F94EF01682F3A
:1008B0008C2D9D81AE014F5F5F4F0F94980201C157
:1008C000823591F489819A81AB81BC81880F991F0F
:1008D000AA1FBB1FBC01CD010F942801C82E892F70
:1008E0000F94FE018C2D4BC0833629F40F94EF0139
:1008F000A82EBB248AC08334C9F40F94EF01982E2C
:100900008824A828B92889819A81880F991FB50160
:100910000F945A0189819A81AB81BC810196A11DF6
:10092000B11D89839A83AB83BC836FC08D36B1F4CC
:1009300089819A81AB81BC818030F0E09F07F1E032
:10094000AF07F0E0BF0708F0B9C0BC01CD01660FEA
:10095000771F881F991F0F94830157C0843449F46F
:10096000C980DA800F94EF01682FC6010F94E60565
:1009700008C0843691F489819A810F94C4050F943C
:10098000FE0189819A81AB81BC810196A11DB11DB7
:1009900089839A83AB83BC8394C08C3629F40F94EB
:1009A000EF010F943E0131C0823719F40F944201D8
:1009B00086C0863411F480E007C08E3411F481E0E3
:1009C00003C0813521F482E00F94330178C0803573
:1009D000E1F08C34D1F0853429F48DE00F94FE01E0
:1009E00010E06FC0803711F483E569C0843729F4C3
:1009F0008BE70F94FE0180E062C0982F98579230E9
:100A000010F0843521F40F94EF018DE058C0833548
:100A1000A1F488E50F94FE0182E40F94FE018FE6B5
:100A20000F94FE018FE60F94FE0184E70F94FE0100
:100A30008BE20F94FE018BE242C0863529F481E3FC
:100A40000F94FE0188E33BC0833741F48CE40F949C
:100A5000FE0187E90F94FE018EE131C0883661F511
:100A60000F94EF01823429F0863481F0813451F4FF
:100A700012C020E030E240E050E080E090E0A2E0F0
:100A8000B0E010C08FE30F94FE011DC020E030E203
:100A900042E050E004C020E030E042E050E080E07E
:100AA00090E0DC01BC01CD010F942603C82E892FF4
:100AB0000F94FE018C2D03C08B3119F08FE30F943E
:100AC000FE010F94B001112309F09CCE0F94BB06D8
:100AD000E0E2F7E088E0828386830C94000080E007
:100AE00090E02596CDBFDEBFDF91CF911F910F9192
:100AF000FF90EF90DF90CF90BF90AF909F908F903E
:100B00007F906F905F90089500E06BCECF92DF9260
:100B1000EF92FF92CF93DF930F92CDB7DEB76B01C9
:100B20007C01CA0129830F945F012981C701B601A5
:100B3000222319F00F94890102C00F9483010F94AE
:100B4000B0010F90DF91CF91FF90EF90DF90CF90A9
:100B50000895EBECF1E021E030E088ED90E084BF17
:100B6000208308958091CF0187FDFCCF08950F94D5
:100B7000B2058091CF0181FF06C086E3E0ECF1E091
:100B800082870F94A90508950F931F93CF93DF9346
:100B90000F920F92CDB7DEB789839A830F94B20577
:100BA00000EC11E08981F80180839A819F71918323
:100BB000128286E082870F94A905F80184810F9044
:100BC0000F90DF91CF911F910F910895CF93DF93F5
:100BD00000D0CDB7DEB769838A839B830F94B705B6
:100BE000E0ECF1E023E322878A8180839B819F717F
:100BF000918312826981648385E382870F94A905BA
:100C00002396CDBFDEBFDF91CF9108959F92AF9223
:100C1000BF92CF92DF92EF92FF920F931F93CF93E9
:100C2000DF937C015B016A01E0ECF1E012820F943A
:100C3000B205CC2DDD2D00EC11E086E0982E12C01F
:100C4000E092C0018F2D8F71F801818392860F94FD
:100C5000A9058091C401F50181935F010894E11C0D
:100C6000F11C2197209761F7C601DF91CF911F9169
:100C70000F91FF90EF90DF90CF90BF90AF909F903B
:100C800008956F927F928F929F92AF92BF92CF9270
:100C9000DF92EF92FF920F931F93CF93DF930F9208
:100CA000CDB7DEB75B01D42EC52E282F2F717C0166
:100CB000E21AF10829830F94B7050F94B205E0EC0E
:100CC000F1E083E38287118212826D2C7C2C00EC90
:100CD00011E025E3822E33E3932E298122C0209355
:100CE000C001F50181915F01F801848308946108D6
:100CF00071086114710419F02F5F203291F4E092B1
:100D0000C0018F2D8F71F801818382860F94A90510
:100D100080E290E0E80EF91E0F94B205F801928689
:100D200020E061147104D9F68D2D9C2D0F90DF9178
:100D3000CF911F910F91FF90EF90DF90CF90BF90D8
:100D4000AF909F908F907F906F9008950F94B20511
:100D500080E3E0ECF1E082870F94A905089588E034
:100D6000E0EAF6E08183E0EAFBE080E18683178237
:100D700088E184830895E0EAFBE0148216821782FA
:0E0D800088E0E0EAF6E082830895F894FFCF61
:00000001FF
