:100000000C94FE000C941B010C941B010C941B011E
:100010000C941B010C941B010C94B5020C941B0155
:100020000C941B010C941B010C941B010C941B01E0
:100030000C941B010C941B010C9461020C941B0189
:100040000C941B010C941B010C941B010C941B01C0
:100050000C949E040C941B010C941B010C941B012A
:100060000C941B010C941B010C941B010C941B01A0
:100070000C941B010C941B010C941B010C941B0190
:100080000C941B010C941B010C941B010C941B0180
:100090000C941B010C941B010C941B010C941B0170
:1000A0000C941B010C941B010C941B010C941B0160
:1000B0000C941B010C941B010C941B010C941B0150
:1000C0000C941B010C941B010C941B010C941B0140
:1000D0000C941B010C941B010C941B010C941B0130
:1000E0000C941B010C941B010C941B010C941B0120
:1000F0000C941B010C941B010C941B010C941B0110
:100100000C941B010C941B010C941B010C941B01FF
:100110000C941B010C941B010C941B010C941B01EF
:100120000C941B010C941B010C941B010C941B01DF
:100130000C941B010C941B010C941B010C941B01CF
:100140000C941B010C941B010C941B010C941B01BF
:100150000C941B010C941B010C941B010C941B01AF
:100160000C941B010C941B010C94E0020C941B01D9
:100170000C941B010C941B010C941B010C941B018F
:100180000C941B010C941B010C941B010C941B017F
:100190000C941B010C941B010C941B010C941B016F
:1001A0000C941B010C941B010C941B010C941B015F
:1001B0000C941B010C941B010C941B010C941B014F
:1001C0000C941B010C941B010C941B010C941B013F
:1001D0000C941B010C941B010C941B010C941B012F
:1001E0000C941B010C941B010C941B010C941B011F
:1001F0000C941B010C941B010C941B0111241FBEB9
:10020000CFEFDFE2DEBFCDBF10E2A0E0B0E2E0E87A
:10021000F1E102C005900D92A030B107D9F711E2CB
:10022000A0E0B0E201C01D92A237B107E1F70E9441
:10023000EF070C94BE080C94000098E0E0E8F6E0AC
:100240009683E0ECF9E0838302C08091C30980913A
:10025000C20987FFFACFE0ECF9E0638302C0809126
:10026000C3098091C20987FFFACF88E0E0E8F6E091
:1002700085830895E0E8F6E088E085838183E0E601
:10028000F6E080E4828380EB818380E18583E0EC8B
:10029000F9E011828DED808308958DE268E00E947F
:1002A0001D0181E36FE00E941D010895CF93DF934C
:1002B00000D0CDB7DEB789839A830E943A0128E047
:1002C000E0E8F6E0268322EFE0ECF9E023839A8170
:1002D00089812091C20927FFFCCFFC0186E0A0ECB8
:1002E000B9E013961C9213979091C20997FFFCCF27
:1002F0009091C30991938150A1F788E0E0E8F6E07E
:1003000085830F900F90DF91CF910895FC0188E0D5
:100310008093210280E18093290288E18093310259
:1003200080E280933902000000008DE38093000298
:100330008091060283FFFCCF8091060282FFFCCFF2
:100340008091060281FFFCCF8091060280FFFCCFE6
:10035000809110029091110280839183809112020A
:1003600090911302828393838091140290911502DD
:1003700084839583809116029091170286839783D8
:100380008FE0E0E0F2E086830895CF93DF93AAEC5C
:10039000B1E082E08C93E0E2F0E0E4911C92C0E0F6
:1003A000D2E0EC878C93E1E2F0E0E4911C92ED87DF
:1003B0008C8320E22A8381E08093200298E090934E
:1003C0002102109222028093280290E19093290248
:1003D00010922A028093300238E130933102109259
:1003E0003202809338022093390210923A029983A4
:1003F0008883DF91CF910895442311F098ED01C0D7
:100400009DE8E0E1F1E09283E0E1F1E091E09683A4
:10041000442341F090EA948799E095871686608797
:10042000718707C064877587168690EA908799E080
:1004300091871286E0E1F1E08383442349F080E173
:100440008183E0EAF9E080E4818384E08383089596
:1004500081E181830895F8949091110197FF06C07E
:10046000909110019F77E0E0F1E0908B10920820CE
:100470001092092010920520882391F48BE663EDF9
:1004800070E240E00E94FC0187E090E0E0E1F1E0F2
:100490008483958384E88093100110920A200FC012
:1004A000E0EAF9E080E4818384E083838CE66CE019
:1004B00070E241E00E94FC0181E080930A20789480
:1004C00008951F920F920FB60F9211242F933F930E
:1004D0004F935F936F937F938F939F93AF93BF934C
:1004E000EF93FF9380910A20813019F41092052038
:1004F0002BC08091110187FD04C08091100187FD00
:1005000005C0809105208F5F809305208091052094
:100510008330D0F0E0E0F1E0108A8091100187FD97
:10052000FCCF80E4E0E0F1E0808B8BE663ED70E2ED
:1005300040E00E94FC0187E090E0E0E1F1E084838C
:10054000958384E880931001FF91EF91BF91AF9163
:100550009F918F917F916F915F914F913F912F91DB
:100560000F900FBE0F901F9018951F920F920FB60D
:100570000F9211248F939F93EF93FF93809111011A
:1005800085FD15C08091110184FF11C0809111017A
:100590008061E0E0F1E0818B1092052081E08093A2
:1005A000042081E090E08093082090930920FF913F
:1005B000EF919F918F910F900FBE0F901F90189504
:1005C0001F920F920FB60F9211248F939F93EF9368
:1005D000FF931092052081E08093042081E090E059
:1005E0008093062090930720E0EAF9E0138280E4EC
:1005F0008183FF91EF919F918F910F900FBE0F908C
:100600001F901895FC0120E030E080E004C091913B
:10061000890F2F5F3F4F26173707CCF390E0909557
:1006200081959F4F0895E0EAF9E01682178283E0F2
:10063000858384818861848380E88093000180E0E1
:100640000E942B02E0E0F8E01182128213821482F1
:1006500080E190E086AB97AB81E0868387E0808382
:100660000895CF93F8941092042078948091DA2022
:10067000882321F0813009F091C07FC0809108204B
:1006800090910920009709F489C0F89410920820ED
:1006900010920920789483ED90E267E070E00E9468
:1006A00002030097C1F180910020909101200196F2
:1006B000809300209093012083E080930B20809111
:1006C000D42080930C20C1E0C0930D208BE090E2F9
:1006D00063E070E00E94020380930E2081E00E949C
:1006E0002B02E0EAF9E0138280910B208093A009AD
:1006F00080E48A95F1F780E4818384E0838383E05A
:1007000090E0E0E1F1E08483958384E88093100138
:10071000C093DA2043C08091D320807F803F39F09E
:100720008091D32090E08F7090700097B9F583EDA1
:1007300090E26BE070E20E949A06C82F81E00E946E
:100740002B02E0EAF9E0138280910B208093A0094C
:1007500080E48A95F1F780E4818384E083838C2FA1
:1007600090E00197E0E1F1E08483958384E8809351
:10077000100181E08093DA2011C0809106209091D1
:100780000720009759F0F894109206201092072045
:1007900078941092DA2080E00E942B02CF91089585
:1007A000E0ECF8E011828AED808308950E94D00386
:1007B0008AE08A95F1F700C0E0ECF8E013828091BE
:1007C000C20887FFFCCF2091C308E0ECF8E0138259
:1007D0008091C20887FFFCCF8091C30882958695DF
:1007E000877090E030E043E0220F331F4A95E1F735
:1007F000287F3370822B932B0895E0E0F6E014827B
:100800001082E0E2F6E08FE084838083E0E4F6E0AB
:100810008EE184838FEB8083E0E6F6E082E08483E0
:100820008BEA8083E0E8F6E08EE084838083E0EE6C
:10083000F7E0148210820895FB01A0ECB8E0139653
:100840008C9313979091C20897FFFCCF9091C308A7
:10085000A0ECB8E013961C9213979091C20897FFF2
:10086000FCCF9091C308108291838E5FA0ECB8E01A
:1008700013968C9313978091C20887FFFCCF8091C9
:10088000C308A0ECB8E013961C9213978091C2089D
:1008900087FFFCCF2091C30830E080819181822BBB
:1008A000932B808391830895883018F4843080F4EA
:1008B00005C08B30C8F08B3049F523C021E030E013
:1008C00002C0220F331F8A95E2F7E0E2F6E017C07C
:1008D00090E0039721E030E002C0220F331F8A9599
:1008E000E2F7E0E4F6E00BC090E0079721E030E0AB
:1008F00002C0220F331F8A95E2F7E0E8F6E0268374
:1009000016C080E2E0E0F6E0868311C080E6E0E019
:10091000F6E085838FE0E0E2F6E085838EE1E0E4B7
:10092000F6E085838EE0E0E8F6E085830895809127
:10093000C20887FF02C08091C30808951F920F92DA
:100940000FB60F9211248F9381E08093DC201092D8
:1009500040088F910F900FBE0F901F901895E0ECFC
:10096000F8E0118280E5808308950F931F93CF9361
:10097000DF9305EF10E2ADEDB0E2C1E3D1E281E03B
:1009800091E229E131E249E451E26CE0F80111928F
:100990008F011D921D9219921992FC0111921192D0
:1009A000CF01F901119211929F01FA011192119256
:1009B000AF01615059F7DF91CF911F910F910895C9
:1009C0008FE0E0E2F6E085838EE1E0E4F6E0858307
:1009D00080E6E0E0F6E085838EE0E0E8F6E08583FF
:1009E000E0E4F8E0118212821382148280E690E043
:1009F00086AB97AB10A211A281E0868387E080834B
:100A00000895EF92FF920F931F93CF93DF9336E0F9
:100A1000769567953A95E1F77C0156E0F694E79470
:100A20005A95E1F7042F10E0D801AB50BF4D2C913F
:100A3000C801880F991F222361F4FC01E75EFE4D77
:100A400060837183FC01E75BFE4D6083718321E06D
:100A50002C93DC01A75EBE4D4D915C9111979B01DB
:100A6000241B350BE901C150DE4FFC01E75BFE4D55
:100A700083E0CF3FD80730F46D937C93119780814A
:100A8000918111C0461B570B40505C4F20503C4F8A
:100A90006D937C93119780819181421753071CF4C9
:100AA000841B950B02C0820F931F80839183C80122
:100AB000880F991FFC01EF5FFE4DE082F182DC019F
:100AC000A352BF4DFC01E75BFE4D8F5C9E4D208124
:100AD0003181FC0180819181281B390B2D933C933E
:100AE0001197DF91CF911F910F91FF90EF90089593
:100AF0002F923F924F925F926F927F928F929F922E
:100B0000AF92BF92CF92DF92EF92FF920F931F931B
:100B1000CF93DF93CDB7DEB72597CDBFDEBF8FE094
:100B2000E0E2F6E085838EE1E0E4F6E0858380E6AE
:100B3000E0E0F6E085838EE0E0E8F6E085830E9461
:100B4000AF044091DB2080917121481708F456C012
:100B5000F8941092DC2010E0F0ECAF2EF8E0BF2EFD
:100B6000A4E2CA2EB0EC8B2EB8E09B2E00E2602EE1
:100B700006E0702E8FE0D82E90E4492E96E0592E94
:100B80002EE1E22E212C36E0332E40E6F42E0EE04C
:100B90001CC0812F0E945404F501C3828091C208B9
:100BA00087FFFCCF8091C308F40113828091C208B3
:100BB00087FFFCCF8091C308F301D582F201E58263
:100BC000F101F582009385061F5F8091712118174E
:100BD00000F3E0E4F8E0118212821382148280E6CE
:100BE00090E086AB97AB10A211A281E0868387E0EC
:100BF000809340081092DB20789438C0842F4D8376
:100C00000E94540480E8BE016D5F7F4F0E941C0467
:100C100084E8BE016F5F7F4F0E941C04E0ECF8E0A7
:100C200013824D818091C20887FFFCCF8091C30859
:100C300080E6E0E0F6E085838FE0E0E2F6E08583A1
:100C40008EE1E0E4F6E085838EE0E0E8F6E085837F
:100C50006B817C816115710521F089819A810E94E7
:100C600001058091DB208F5F8093DB202596CDBF2F
:100C7000DEBFDF91CF911F910F91FF90EF90DF903A
:100C8000CF90BF90AF909F908F907F906F905F902C
:100C90004F903F902F900895EF92FF920F931F93E4
:100CA000CF93DF930F92CDB7DEB7E82EFF24EE0C83
:100CB000FF1CEE0CFF1C8B0120E0C70129830E9462
:100CC0008B08F80181938F0129812F5F0894E11C23
:100CD000F11C243091F70F90DF91CF911F910F916C
:100CE000FF90EF900895EF92FF920F931F93CF9391
:100CF000DF930F92CDB7DEB78B01E82EFF24EE0C09
:100D0000FF1CEE0CFF1C20E0F80161918F01C70170
:100D100029830E949B0829812F5F0894E11CF11C04
:100D2000243091F70F90DF91CF911F910F91FF9099
:100D3000EF900895CF92DF92EF92FF920F931F935F
:100D4000CF93DF93CDB7DEB76497CDBFDEBF8C0105
:100D50006B01FC018181982F907F903809F49AC033
:100D6000913848F4903609F495C0903709F492C050
:100D7000992359F00AC1903B09F4FEC0903C09F454
:100D8000D5C0903909F001C185C0F801E280F38037
:100D9000C70180709075009721F0CE0107960E94E0
:100DA0008601F7FE0FC0CE0101960E945601F601A2
:100DB0003396DE01119686E00D9001928150E1F7A5
:100DC00006E001C000E0F6FE0DC0E02FF0E0339633
:100DD000EC0DFD1DDE011F9686E00D900192815005
:100DE000E1F70A5FF4FE0DC0E02FF0E03396EC0D62
:100DF000FD1DDE01179688E00D9001928150E1F70C
:100E0000085FF1FE12C040917121802F90E003969F
:100E10008C0D9D1D50E0440F551F6DED70E20E943A
:100E2000820880917121880F080FE1FE0AC080912D
:100E3000002090910120F601E00FF11D838394833F
:100E40000E5FE0FE12C040917121802F90E003966A
:100E50008C0D9D1D50E0440F551F61E071E20E9412
:100E6000820880917121880F080F802F8D5FF60115
:100E700080831182128210E0B8016D5F7F4F76018E
:100E8000E60EF71EC6010E940203F7018083C80127
:100E900004968AC08F71903751F0913718F49036CC
:100EA000E9F505C09038D1F09039C1F517C0B60109
:100EB0006D5F7F4F0E944C0687E0F6018083F8014A
:100EC0008181F60181831282C60167E070E00E9491
:100ED0000203F601878388E090E066C08F3191F4C9
:100EE000F80193812281922B2481922B2581922BD0
:100EF00029F091E0E0E4F6E0958304C091E0E0E4BD
:100F0000F6E09683B8016E5F7F4F0E94730683E020
:100F1000F6018083F8018181F6012BC083E0F601A0
:100F20008083F8018181F601818333C0F801428119
:100F3000538151FF10C0ADEDB0E2E1E3F1E260E0BA
:100F40002D913D9180819181820F931F8193919387
:100F50006F5F6C30A9F741FF08C01092002010921B
:100F60000120109202201092032083E0F60180837A
:100F700080EC818312820FC093E088ED08B684BFB5
:100F800090938000A89508BEFFCF83E0F601808390
:100F9000918382E08283C60163E070E00E940203D5
:100FA000F601838384E090E06496CDBFDEBFDF91DD
:100FB000CF911F910F91FF90EF90DF90CF90089508
:100FC00081E0E0E4F6E08583089581E0E0E4F6E086
:100FD0008683089581E0E0E4F6E087830895CF9367
:100FE000DF9300D000D0CDB7DEB7F8948FE39FE158
:100FF0000197F1F700C0000086E0809350008091D7
:10100000510081FFFCCF8091510082FFFCCFFF2473
:10101000F394F0926000F092680088ED84BFF09243
:10102000400085E0E0E4F0E08383EFE3FFE1319707
:10103000F1F700C000008AE0809371210E94FD0357
:1010400000E416E0F801F5820E94C5010E94130336
:101050000E94B5048091A2008160E0EAF0E0828302
:1010600078940E94AF040E94E0040E943A010E941A
:101070004D01F801F68219821A821B821C828FE1CF
:10108000BE016F5F7F4F0E944C0689819A81AB81C0
:10109000BC81F8010097A105B10511F0F58201C0EE
:1010A000F68219821A821B821C828DE1BE016F5F5B
:1010B0007F4F0E944C0689819A81AB81BC818D3221
:1010C000F1E09F07F0E0AF07F0E0BF0771F08DE2BD
:1010D00091E0A0E0B0E089839A83AB83BC838DE18B
:1010E000BE016F5F7F4F0E947306809104208823AA
:1010F00011F00E9431038091DC208823B1F30E941B
:101100007805F3CFFB01DC0102C001900D92415044
:101110005040D8F7089503D0808199270895E0ECD6
:10112000F1E0378537FDFDCF348538603487FC0129
:10113000E050F04F0895262FE0ECF1E0378537FDC1
:10114000FDCF3485377F3487378531FF09C036E3DB
:10115000328738ED34BF31E03387378537FDFDCF37
:1011600033E33287808391831282248325E32287AD
:1011700028ED31E024BF338701960895F894FFCF1E
:00000001FF
