:100000000C94BC000C94D9000C94D9000C94D90029
:100010000C94D9000C94D9000C9420020C94D900B3
:100020000C94D9000C94D9000C94D9000C94D900EC
:100030000C94D9000C94D9000C94CC010C94D900E8
:100040000C94D9000C94D9000C94D9000C94D900CC
:100050000C945C050C94D9000C94D9000C94D90034
:100060000C94D9000C94D9000C94D9000C944B0238
:100070000C94D9000C94D9000C94D9000C94D9009C
:100080000C94D9000C94D9000C94D9000C94D9008C
:100090000C94D9000C94D9000C94D9000C94D9007C
:1000A0000C94D9000C94D9000C94D9000C94D9006C
:1000B0000C94D9000C94D9000C94D9000C94D9005C
:1000C0000C94D9000C94D9000C94D9000C94D9004C
:1000D0000C94D9000C94D9000C94D9000C94D9003C
:1000E0000C94D9000C94D9000C94D9000C94D9002C
:1000F0000C94D9000C94D9000C94D9000C94D9001C
:100100000C94D9000C94D9000C94D9000C94D9000B
:100110000C94D9000C94D9000C94D9000C94D900FB
:100120000C94D9000C94D9000C94D9000C94D900EB
:100130000C94D9000C94D9000C94D9000C94D900DB
:100140000C94D9000C94D9000C94D9000C94D900CB
:100150000C94D9000C94D9000C94D9000C94D900BB
:100160000C94D9000C94D9000C94D9000C94D900AB
:100170000C94D9000C94D90011241FBECFEFDFE2FC
:10018000DEBFCDBF10E2A0E0B0E2EAEAFFE002C0CD
:1001900005900D92A030B107D9F712E2A0E0B0E2CD
:1001A00001C01D92A53FB107E1F70E9416070C940C
:1001B000D3070C940000FC01909100028091000292
:1001C0008D73892B809300028091060283FFFCCF00
:1001D0008091060282FFFCCF8091060281FFFCCF56
:1001E0008091060280FFFCCF809110029091110255
:1001F0008083918380911202909113028283938372
:100200008091140290911502848395838091160247
:1002100090911702868397838FE0E0E0F2E0868377
:100220000895CF93DF93CAECD1E082E08883E0E2C7
:10023000F0E0E4911882A0E0B2E01C96EC931C97E9
:100240008883E1E2F0E0E49118821D96EC931D971B
:10025000E0E8F1E09DE8938313869DED13969C936F
:10026000139714968C93149720E212962C9312975E
:1002700081E08093200298E0909321021092220264
:100280008093280290E19093290210922A02809391
:10029000300238E1309331021092320280933802FA
:1002A0002093390210923A0211969C9311978C93E5
:1002B000DF91CF910895442311F098ED01C09DE89E
:1002C000E0E1F1E09283E0E1F1E091E09683442304
:1002D00041F090EA948798E0958716866087718749
:1002E00007C064877587168690EA908798E09187A3
:1002F0001286E0E1F1E08383442349F080E18183C9
:10030000E0EAF8E080E4818384E08383089581E17A
:1003100081830895F8949091110197FF06C0909100
:1003200010019F77E0E0F1E0908B10920420109292
:100330000520109201208823C1F4809144068E7F0D
:10034000E0E4F6E084838BE46FEC70E240E00E942E
:100350005B0187E090E0E0E1F1E08483958384E84D
:10036000809310011092062015C08091440682608F
:10037000E0E4F6E08483E0EAF8E080E4818384E06E
:1003800083838CE468E070E241E00E945B0181E0DD
:1003900080930620789408951F920F920FB60F92C3
:1003A00011242F933F934F935F936F937F938F937A
:1003B0009F93AF93BF93EF93FF938091062081307B
:1003C00019F4109201202BC08091110187FD04C007
:1003D0008091100187FD05C0809101208F5F80937F
:1003E0000120809101208330D0F0E0E0F1E0108A1C
:1003F0008091100187FDFCCF80E4E0E0F1E0808B8C
:100400008BE46FEC70E240E00E945B0187E090E0DB
:10041000E0E1F1E08483958384E880931001FF910B
:10042000EF91BF91AF919F918F917F916F915F916C
:100430004F913F912F910F900FBE0F901F901895E5
:100440001F920F920FB60F9211248F939F93EF93E9
:10045000FF938091110185FD15C08091110184FFEA
:1004600011C0809111018061E0E0F1E0818B109278
:10047000012081E08093002081E090E080930420BF
:1004800090930520FF91EF919F918F910F900FBE58
:100490000F901F9018951F920F920FB60F92112474
:1004A0008F939F93EF93FF931092012081E08093AD
:1004B000002081E090E08093022090930320E0EA06
:1004C000F8E0138280E48183FF91EF919F918F91F7
:1004D0000F900FBE0F901F901895FC0120E030E0A8
:1004E00080E004C09191890F2F5F3F4F2617370797
:1004F000CCF390E0909581959F4F0895E0EAF8E065
:100500001682178283E0858384818861848380E8F2
:100510008093000180E00E948A01E0E0F8E011820F
:1005200012821382148280E190E086AB97AB81E067
:10053000868387E080830895CF93F89410920020FB
:1005400078948091D620882321F0813009F093C0DF
:1005500081C08091042090910520009709F48BC000
:10056000F894109204201092052078948FEC90E279
:1005700067E070E00E946D020097C9F18091D92078
:100580009091DA2001968093D9209093DA2083E02D
:10059000809307208091D02080930820C1E0C093F1
:1005A000092087E090E263E070E00E946D02809392
:1005B0000A2081E00E948A01E0EAF8E0138280913B
:1005C00007208093A0088AE68A95F1F700C080E4AE
:1005D000818384E0838383E090E0E0E1F1E0848341
:1005E000958384E880931001C093D62044C0809105
:1005F000CF20807F803F39F08091CF2090E08F70B6
:1006000090700097C1F58FEC90E267E070E20E9475
:10061000B603C82F81E00E948A01E0EAF8E0138265
:10062000809107208093A0088AE68A95F1F700C0A0
:1006300080E4818384E083838C2F90E00197E0E164
:10064000F1E08483958384E88093100181E08093B6
:10065000D62011C08091022090910320009759F07C
:10066000F894109202201092032078941092D620D1
:1006700080E00E948A01CF910895E0E0F6E01482C4
:100680001082E0E2F6E0148288E08083E0E4F6E0A5
:100690008AE084838BEB8083E0E6F6E088E1848364
:1006A0008FEB8083E0E8F6E08FE084838083E0EEE8
:1006B000F7E0148210820895EF92FF920F931F9338
:1006C000CF93DF930F92CDB7DEB7E82EFF24EE0C69
:1006D000FF1CEE0CFF1C8B0120E0C70129830E9448
:1006E000A007F80181938F0129812F5F0894E11CF5
:1006F000F11C243091F70F90DF91CF911F910F9152
:10070000FF90EF900895EF92FF920F931F93CF9376
:10071000DF930F92CDB7DEB78B01E82EFF24EE0CEE
:10072000FF1CEE0CFF1C20E0F80161918F01C70156
:1007300029830E94B00729812F5F0894E11CF11CD6
:10074000243091F70F90DF91CF911F910F91FF907F
:10075000EF900895E0E2F6E0848188608483089554
:10076000E0E2F6E08481877F84830895CF92DF9270
:10077000EF92FF920F931F93CF93DF930F92CDB71A
:10078000DEB78C017B01FC018181982F907F90382E
:1007900009F45FC0913848F4903609F45AC0903794
:1007A00009F457C0992359F0CEC0903B09F49CC07E
:1007B000903C09F4A2C0903909F0C5C04AC0F801C4
:1007C0000281138116FF06C0CB0103960E94DB0055
:1007D00028E001C020E011FF0CC0F701E20FF11D7D
:1007E0003396A5EEB0E280E60D9001928150E1F7DC
:1007F000205A01FF0AC08091D9209091DA20F70198
:10080000E20FF11D838394832E5F00FF0CC0F7017C
:10081000E20FF11D3396A5E7B1E280E60D9001925B
:100820008150E1F7205A822F8D5FF701808311827A
:100830001282C22EDD24B6016D5F7F4F8701060F45
:10084000171FC7010E946D02F8018083C60104963C
:1008500089C08F71903751F0913718F49036E1F5D7
:1008600005C09038D1F09039B9F517C0B7016D5F68
:100870007F4F0E945C0387E0F7018083F80181814C
:10088000F70181831282C70167E070E00E946D0268
:10089000F701878388E090E065C08F3189F4F80123
:1008A00093812281922B2481922B2581922B898303
:1008B000992319F00E94AA0302C00E94B003898103
:1008C000B8016E5F7F4F0E94830383E0F70180834E
:1008D000F8018181F70134C083E0F7018083F801DA
:1008E0008181F701818333C093E088ED08B684BF2E
:1008F00090938000A89508BEFFCFF80142815381F4
:1009000051FF10C0A5EEB0E2E5E3F2E260E02D9108
:100910003D9180819181820F931F819391936F5FAD
:100920006033A9F741FF08C01092D9201092DA2055
:100930001092DB201092DC2083E0F701808380ECB2
:100940008183128206C083E0F7018083918382E075
:100950008283C70163E070E00E946D02F701838328
:1009600084E090E00F90DF91CF911F910F91FF9065
:10097000EF90DF90CF90089588E0E0E2F6E0878383
:100980000895CF93DF93FB01EA01A0ECB8E0139642
:100990008C93A0ECB9E013968C9313979091C208B6
:1009A00097FFFCCF9091C20997FFFCCF9091C308AD
:1009B0009091C309A0ECB8E013961C92A0ECB9E0AA
:1009C00013961C9213979091C20897FFFCCF9091B9
:1009D000C20997FFFCCF9091C30810829183909138
:1009E000C309188299838E5FA0ECB8E013968C93AC
:1009F000A0ECB9E013968C9313978091C20887FFFF
:100A0000FCCF8091C20987FFFCCF8091C308809101
:100A1000C309A0ECB8E013961C92A0ECB9E01396C1
:100A20001C9213978091C20887FFFCCF8091C20966
:100A300087FFFCCF2091C30830E080819181822B19
:100A4000932B808391832091C30930E08881998121
:100A5000822B932B88839983DF91CF910895982FD0
:100A60009770E0E6F6E0958390E0887190708830AA
:100A7000910549F08031910551F0009789F488E0A3
:100A8000868382E005C080E1868384E001C089E03E
:100A9000E0E8F6E086838091C20887FF06C003C0C5
:100AA00087E0868308958091C3088091C20987FFFB
:100AB00002C08091C30908951F920F920FB60F9242
:100AC00011248F9381E08093D820109240088F9159
:100AD0000F900FBE0F901F901895E0ECF8E0118278
:100AE00080E58083E0ECF9E01182808308950F9324
:100AF0001F93CF93DF9305E411E2A5EEB0E2C5E3C7
:100B0000D2E285E791E225ED31E245E952E260E388
:100B1000F80111928F011D921D9219921992FC01F8
:100B200011921192CF01F901119211929F01FA01D4
:100B300011921192AF01615059F7DF91CF911F913E
:100B40000F9108958FEFE0E8F6E08583E0E6F6E0A8
:100B500088E1858327E02683E0E4F8E011821282B1
:100B60001382148280E690E086AB97AB10A211A2AC
:100B700081E0868320830895EF92FF920F931F9365
:100B8000CF93DF9336E0769567953A95E1F77C0150
:100B900056E0F694E7945A95E1F7042F10E0D80157
:100BA000AB5BBE4D2C91C801880F991F222361F4C5
:100BB000FC01EB52FE4D60837183FC01EB56FD4D51
:100BC0006083718321E02C93DC01AB52BE4D4D91CB
:100BD0005C9111979B01241B350BE901C150DE4F3D
:100BE000FC01EB56FD4D83E0CF3FD80730F46D9309
:100BF0007C9311978081918111C0461B570B405007
:100C00005C4F20503C4F6D937C9311978081918174
:100C1000421753071CF4841B950B02C0820F931FCD
:100C200080839183C801880F991FFC01EB58FE4D0A
:100C3000E082F182DC01AB51BF4DFC01EB56FD4D72
:100C40008B5C9D4D20813181FC0180819181281B2D
:100C5000390B2D933C931197DF91CF911F910F91F9
:100C6000FF90EF9008954F925F926F927F928F92D4
:100C70009F92AF92BF92CF92DF92EF92FF920F932B
:100C80001F93CF93DF93CDB7DEB72997CDBFDEBFDC
:100C90008FEFE0E8F6E08583E0E6F6E088E1858323
:100CA00087E086831091D720183109F060C0F8944E
:100CB0001092D820789490E000EC18E0F4E2DF2E57
:100CC000A0EC8A2EA9E09A2EB0EC6B2EB9E07B2E18
:100CD00080E8482E86E0582EBB24BA9420E6E22E07
:100CE00026E0F22E38E1C32E47E0A42E892F998703
:100CF0000E942F05F801D382F401D3829985809157
:100D0000C20887FFFCCF8091C20987FFFCCF80918A
:100D1000C3088091C309F8011382F3011382809103
:100D2000C20887FFFCCF8091C20987FFFCCF80916A
:100D3000C3088091C309F201B582F701C582A6827A
:100D40009F5F983199F6E0E4F8E0118212821382F5
:100D5000148280E690E086AB97AB10A211A281E0EE
:100D6000868387E0809340081092D7204BC0812F64
:100D70000E942F0580E8BE01695F7F4FAE014B5F87
:100D80005F4F0E94C10484E8BE016D5F7F4FAE01DA
:100D90004F5F5F4F0E94C104E0ECF8E01382E0EC8B
:100DA000F9E013828091C20887FFFCCF8091C209CD
:100DB00087FFFCCF8091C3088091C3098FEFE0E8E3
:100DC000F6E08583E0E6F6E088E1858387E08683C8
:100DD0006F8178856115710529F08B819C81412F88
:100DE0000E94BC056D817E816115710531F0412F36
:100DF000485E89819A810E94BC058091D7208F5FCF
:100E00008093D7202996CDBFDEBFDF91CF911F9170
:100E10000F91FF90EF90DF90CF90BF90AF909F9099
:100E20008F907F906F905F904F900895CF93DF9356
:100E300000D000D0CDB7DEB7F8948FE39FE10197E3
:100E4000F1F700C0000086E08093500080915100CF
:100E500081FFFCCF8091510082FFFCCF81E0809325
:100E600060008093680098ED94BF8093400085E017
:100E7000E0E4F0E083838FE39FE10197F1F700C0A6
:100E800000000E943D030E946D050E9411010E9416
:100E90007E0219821A821B821C828FE1BE016F5F63
:100EA0007F4F0E945C0389819A81AB81BC8100974E
:100EB000A105B10519F00E94AA0302C00E94B00367
:100EC00019821A821B821C828DE1BE016F5F7F4FE7
:100ED0000E945C0389819A81AB81BC818D3221E0C3
:100EE000920720E0A20720E0B20771F08DE291E0C6
:100EF000A0E0B0E089839A83AB83BC838DE1BE011F
:100F00006F5F7F4F0E9483030E947705109200203D
:100F10001092D8208091A2008160E0EAF0E0828304
:100F200078940E94A20580910020882311F00E94ED
:100F30009C028091D8208823B1F30E943306F3CF1E
:100F400003D0808199270895E0ECF1E0378537FDE3
:100F5000FDCF348538603487FC01E050F04F0895B0
:100F6000262FE0ECF1E0378537FDFDCF3485377F64
:100F70003487378531FF09C036E3328738ED34BF17
:100F800031E03387378537FDFDCF33E33287808308
:100F900091831282248325E3228728ED31E024BF48
:0A0FA000338701960895F894FFCFFF
:00000001FF
