:108000000C94FE400C941B410C941B410C941B419E
:108010000C941B410C941B410C941B410C941B4170
:108020000C941B410C941B410C941B410C941B4160
:108030000C941B410C941B410C941B410C941B4150
:108040000C941B410C941B410C941B410C941B4140
:108050000C941B410C941B410C941B410C941B4130
:108060000C941B410C941B410C941B410C941B4120
:108070000C941B410C941B410C941B410C941B4110
:108080000C941B410C941B410C941B410C941B4100
:108090000C941B410C941B410C941B410C941B41F0
:1080A0000C941B410C941B410C941B410C941B41E0
:1080B0000C941B410C941B410C941B410C941B41D0
:1080C0000C941B410C941B410C941B410C941B41C0
:1080D0000C941B410C941B410C941B410C941B41B0
:1080E0000C941B410C941B410C941B410C941B41A0
:1080F0000C941B410C941B410C941B410C941B4190
:108100000C941B410C941B410C941B410C941B417F
:108110000C941B410C941B410C941B410C941B416F
:108120000C941B410C941B410C941B410C941B415F
:108130000C941B410C941B410C941B410C941B414F
:108140000C941B410C941B410C941B410C941B413F
:108150000C941B410C941B410C941B410C941B412F
:108160000C941B410C941B410C941B410C941B411F
:108170000C941B410C941B410C941B410C941B410F
:108180000C941B410C941B410C941B410C941B41FF
:108190000C941B410C941B410C941B410C941B41EF
:1081A0000C941B410C941B410C941B410C941B41DF
:1081B0000C941B410C941B410C941B410C941B41CF
:1081C0000C941B410C941B410C941B410C941B41BF
:1081D0000C941B410C941B410C941B410C941B41AF
:1081E0000C941B410C941B410C941B410C941B419F
:1081F0000C941B410C941B410C941B4111241FBE79
:10820000CFEFDFE2DEBFCDBF10E2A0E0B0E2E2E3FD
:10821000FDE802C005900D92A030B107D9F711E238
:10822000A0E0B0E201C01D92A130B107E1F70E94C9
:108230006B430C9497460C9400403BB78BBFFB01FB
:1082400086913BBF08953BB78BBFFB018791969109
:108250003BBF089542E097C041E095C08093C001C4
:1082600088278093C1018093C20147E07CD0CB0175
:1082700008958093C40148E076C08091D0010895AC
:108280003BB748E10C94C8413BB74AE10C94C84164
:108290003BB7882799278BBF40E20C94C8413BB776
:1082A0008BBFCB0142E20C94C8413BB70B0143E2C8
:1082B0000C94C841EE27FF2719BEDC0143E240932E
:1082C000CA0150E82DE90D901D9020933400E895E7
:1082D00032965A95C1F7112408953BB76BBFFA0146
:1082E00019BEDC0140E04093CA0150E087919791AC
:1082F0008D939D935A95D1F73BBF08953BB78BBFA4
:10830000CB0144E20C94C8413BB78BBFCB0145E2A3
:108310000C94C8413BB746E20C94C8413BB78BBFB5
:10832000CB014AE20C94C8413BB78BBFCB014CE276
:108330000C94C8413BB78BBFCB014DE20C94C841B4
:1083400048E311C049E30FC028ED2093340021E039
:108350002093CC0108952091CF0127FDFCCF222747
:108360002093CA0108954093CA0128ED31E020937B
:1083700034003093CB016091C4017091C5018091AC
:10838000C60199270895FC014093CA01849108957C
:10839000FC014093CA012DE920933400E895112493
:1083A0003BBF08958627682F62956827062E66953D
:1083B00066956025062E669560256770082E892FC4
:1083C000669507946795902D862706946795902566
:1083D0008627089580910020823050F49091A10862
:1083E00097FFFACF81E0809300208091A008089544
:1083F000FFCF90910020923060F48093A00880918C
:10840000A10886FFFCCF8091A1088064E0EAF8E033
:1084100081830895CF930E94EA41C82F0E94EA41C8
:108420003C2F20E090E0822B932BCF910895AF92C8
:10843000BF92CF92DF92EF92FF921F93CF93DF9381
:108440007C01162F5A0161E0C62E60E2D62EC0E0F4
:10845000D0E0CE15DF0518F40E94EA4101C08FEF8D
:10846000F60181936F012196F1E0C030DF0789F7B3
:108470001534C9F4F5018081918161E070E2A701B2
:108480000E941346A70160E070E0F50180819181B0
:10849000A281B381840F951FA61FB71F808391838C
:1084A000A283B38335C0163411F0153579F5F50183
:1084B00080819181A281B381F694E794A70160E065
:1084C00070E0480F591F6A1F7B1F408351836283EE
:1084D0007383163461F4BC01CD01660F771F881FCA
:1084E000991F41E050E221E00E94584511C0153526
:1084F00079F481E090E20E945A410E9440410E943A
:10850000AB410E9444410E94AB4102C08FE301C0D5
:108510008DE0DF91CF911F91FF90EF90DF90CF9092
:10852000BF90AF900895AF92BF92CF92DF92EF923B
:10853000FF920F931F93CF93DF936C01C62F7A01A5
:108540005C016534E9F4FA018081918161E070E2B7
:10855000A6010E94D845A60160E070E0F701808185
:108560009181A281B381840F951FA61FB71F8083BD
:108570009183A283B38301E010E2C0E0D0E053C056
:10858000663429F0653519F0603509F04FC0F70100
:1085900080819181A281B381880F991FAA1FBB1F7F
:1085A00080839183A283B38300E010E0C63441F45A
:1085B000F70160817181828193810E941D410EC00B
:1085C000C53531F4F701808191810E942C4106C0AC
:1085D000C03551F4F70180810E942A41F801EF5F14
:1085E000FF4D80830F5F1F4F0E94AB41F7018081D9
:1085F0009181A281B3810196A11DB11D80839183D8
:10860000A283B3830894C108D108C114D10471F6C0
:10861000B695A79597958795AACFF80181918F0177
:108620000E94F9412196CA15DB05BCF3DF91CF9179
:108630001F910F91FF90EF90DF90CF90BF90AF9080
:1086400008958F929F92AF92BF92CF92DF92EF9256
:10865000FF920F931F93CF93DF934B015C0169014E
:108660007A01C0E0D1E000E010E022C081E0C0303B
:10867000D80781F481E090E2B501A4010E946D4128
:1086800080E091E0A0E0B0E0880E991EAA1EBB1E1B
:10869000C0E0D0E0FE01EF5FFF4DC80160810E94A5
:1086A000D2418C0121960894C108D108E108F10853
:1086B000C114D104E104F104C9F6C801DF91CF91DE
:1086C0001F910F91FF90EF90DF90CF90BF90AF90F0
:1086D0009F908F9008958F929F92AF92BF92DF925A
:1086E000EF92FF920F931F93CF93DF93CDB7DEB737
:1086F0002597CDBFDEBF19821A821B821C82109281
:108700000020809150008260809350008091510041
:1087100081FFFCCF88ED84BF01E00093400000930F
:108720006000E0E2F6E088E0818385830E94814674
:10873000E0E4F6E0018382E0818306838583209173
:1087400000203EEF80E091E7A2E0B0E0E0E2F6E05A
:1087500048E00097A105B10521F00197A109B109F1
:1087600006C04783315080E091E7A2E0B0E050912D
:10877000A10857FF07C05091A0085B3119F421E010
:1087800001E001C000E0A895002361F020930020E3
:1087900001E0EE24FF2440E2A42E46E0B42E58E08F
:1087A000D52E69C13323A9F620930020F2CFF5011D
:1087B000D7820E94EA41813611F489E557C181349C
:1087C00029F40E940A42A0E0B0E081C08834B9F4E4
:1087D0000E94EA41082F0E940A42402F50E060E0C8
:1087E00070E0BA0155274427A0E0B0E0482B592B90
:1087F0006A2B7B2B49835A836B837C8308C0853625
:1088000041F40E9448410E94AB410E9478468DE0AD
:108810002DC1823629F489E50E94F94181E0C1C069
:10882000823489F40E940A42082FE82EF92E9D8393
:108830000E94EA41682F802F9D81AE014F5F5F4FFC
:108840000E94174213C1873689F40E940A42082FFA
:10885000E82EF92E9D830E94EA41682F802F9D818A
:10886000AE014F5F5F4F0E94934202C1823591F487
:1088700089819A81AB81BC81880F991FAA1FBB1F78
:10888000BC01CD010E942341082F892F0E94F9418C
:10889000802F4BC0833629F40E94EA41E82EFF2442
:1088A000B6CF8334C9F40E94EA41982E8824E82880
:1088B000F92889819A81880F991FB7010E94554133
:1088C00089819A81AB81BC810196A11DB11D8983EB
:1088D0009A83AB83BC839BCF8D36B1F489819A8117
:1088E000AB81BC818030F0E49F07F0E0AF07F0E09F
:1088F000BF0708F0BAC0BC01CD01660F771F881F03
:10890000991F0E947E4183CF843449F409811A81E2
:108910000E94EA41682FC8010E94B74508C084360A
:1089200091F489819A810E9496450E94F94189813A
:108930009A81AB81BC810196A11DB11D89839A8367
:10894000AB83BC8395C08C3629F40E94EA410E9417
:1089500039415DCF823719F40E943D4187C086348A
:1089600011F480E007C08E3411F481E003C081353A
:1089700021F482E00E942E4179C0803509F447CF6E
:108980008C3409F444CF853429F48DE00E94F941F8
:1089900000E06FC0803711F483E568C0843729F4A4
:1089A0008BE70E94F94180E061C0982F9857923080
:1089B00010F0843519F40E94EA4129CF8335A1F4DF
:1089C00088E50E94F94182E40E94F9418FE60E9405
:1089D000F9418FE60E94F94184E70E94F9418BE258
:1089E0000E94F9418BE242C0863529F481E30E945E
:1089F000F94187E33BC0833741F481E40E94F941A8
:108A000085E90E94F9418EE131C0883661F50E9406
:108A1000EA41823429F0863481F0813451F412C065
:108A200020E030E140E050E080E090E8A0E0B0E0FD
:108A300010C08FE30E94F941BACE20E030E940E057
:108A400050E004C020E030E840E050E080E090E0FA
:108A5000DC01BC01CD010E942143082F892F0E9417
:108A6000F941802F03C08B3119F08FE30E94F94147
:108A700001E00E94AB41002309F099CE0E948D468F
:108A8000E0E2F6E088E0828386830C94000080E0D8
:108A900090E02596CDBFDEBFDF91CF911F910F9162
:108AA000FF90EF90DF90BF90AF909F908F900895D0
:108AB000CF92DF92EF92FF92CF93DF930F92CDB7D9
:108AC000DEB76B017C01CA0129830E945A412981CA
:108AD000C701B601222319F00E94844102C00E94FE
:108AE0007E410E94AB410F90DF91CF91FF90EF90BC
:108AF000DF90CF900895EBECF1E021E030E088EDDD
:108B000090E084BF208308958091CF0187FDFCCF42
:108B100008950E9484458091CF0181FF06C086E3BD
:108B2000E0ECF1E082870E947B4508950F931F934C
:108B3000CF93DF9300D0CDB7DEB789839A830E94AD
:108B4000844500EC11E08981F80180839A819F714E
:108B50009183128286E082870E947B45F80184819E
:108B60000F900F90DF91CF911F910F910895CF93A8
:108B7000DF9300D00F92CDB7DEB769838A839B83E2
:108B80000E948945E0ECF1E023E322878A8180831B
:108B90009B819F71918312826981648385E38287BF
:108BA0000E947B452396CDBFDEBFDF91CF91089514
:108BB0009F92AF92BF92CF92DF92EF92FF920F936C
:108BC0001F93CF93DF937C015B016A01E0ECF1E03E
:108BD00012820E948445CC2DDD2D00EC11E086E050
:108BE000982E12C0E092C0018F2D8F71F801818301
:108BF00092860E947B458091C401F50181935F01BB
:108C00000894E11CF11C2197209761F7C601DF91C0
:108C1000CF911F910F91FF90EF90DF90CF90BF9079
:108C2000AF909F9008956F927F928F929F92AF9294
:108C3000BF92CF92DF92EF92FF920F931F93CF9349
:108C4000DF930F92CDB7DEB75B01D42EC52E282F50
:108C50002F717C01E21AF10829830E9489450E9444
:108C60008445E0ECF1E083E38287118212826D2C6F
:108C70007C2C00EC11E025E3822E33E3932E298136
:108C800022C02093C001F50181915F01F801848326
:108C90000894610871086114710419F02F5F203283
:108CA00091F4E092C0018F2D8F71F801818382864B
:108CB0000E947B4580E290E0E80EF91E0E94844508
:108CC000F801928620E061147104D9F68D2D9C2D57
:108CD0000F90DF91CF911F910F91FF90EF90DF9058
:108CE000CF90BF90AF909F908F907F906F9008959E
:108CF0000E94844580E3E0ECF1E082870E947B459E
:108D0000089588E0E0E4F6E08183E0EAF8E083E3B8
:108D10008683178288E184830895E0EAF8E014826C
:108D20001682178288E0E0E4F6E082830895F894E2
:028D3000FFCF73
:040000030000800079
:00000001FF
