:100000000C94FE000C941B010C941B010C941B011E
:100010000C941B010C941B010C94EE020C945303E2
:100020000C941B010C941B010C941B010C941B01E0
:100030000C941B010C941B010C9485020C941B0165
:100040000C941B010C941B010C941B010C941B01C0
:100050000C949F060C941B010C941B010C941B0127
:100060000C941B010C941B010C941B010C941B01A0
:100070000C941B010C941B010C941B010C941B0190
:100080000C941B010C941B010C941B010C941B0180
:100090000C941B010C941B010C941B010C941B0170
:1000A0000C941B010C941B010C941B010C941B0160
:1000B0000C941B010C941B010C941B010C941B0150
:1000C0000C941B010C941B010C941B010C941B0140
:1000D0000C941B010C941B010C941B010C941B0130
:1000E0000C941B010C941B010C941B010C941B0120
:1000F0000C9419030C941B010C941B010C941B0110
:100100000C941B010C941B010C941B010C941B01FF
:100110000C941B010C941B010C941B010C941B01EF
:100120000C941B010C941B010C941B010C941B01DF
:100130000C941B010C941B010C941B010C941B01CF
:100140000C941B010C941B010C941B010C941B01BF
:100150000C941B010C941B010C941B010C941B01AF
:100160000C9438020C941B010C943B030C941B015F
:100170000C941B010C941B010C941B010C941B018F
:100180000C941B010C941B010C941B010C941B017F
:100190000C941B010C941B010C941B010C941B016F
:1001A0000C941B010C941B010C941B010C941B015F
:1001B0000C941B010C941B010C941B010C941B014F
:1001C0000C941B010C941B010C941B010C941B013F
:1001D0000C941B010C941B010C941B010C941B012F
:1001E0000C941B010C941B010C941B010C941B011F
:1001F0000C941B010C941B010C941B0111241FBEB9
:10020000CFEFDFE2DEBFCDBF10E2A0E0B0E2E0E57D
:10021000F7E102C005900D92A230B107D9F712E2C2
:10022000A2E0B0E201C01D92A934B107E1F70E943B
:10023000EF0A0C94A60B0C940000FC0188E080935C
:10024000210280E18093290288E18093310280E2DB
:1002500080933902000000008DE3809300028091BA
:10026000060283FFFCCF8091060282FFFCCF8091C3
:10027000060281FFFCCF8091060280FFFCCF8091B7
:1002800010029091110280839183809112029091CB
:1002900013028283938380911402909115028483C8
:1002A00095838091160290911702868397838FE041
:1002B000E0E0F2E086830895CF93DF93AAECB1E00B
:1002C00082E08C93E0E2F0E0E4911C92C0E0D2E0A6
:1002D000EC878C93E1E2F0E0E4911C92ED878C8353
:1002E00020E22A8381E08093200298E0909321020B
:1002F000109222028093280290E19093290210929A
:100300002A028093300238E1309331021092320297
:10031000809338022093390210923A02998388839D
:10032000DF91CF9108950F93FC01DA01002311F0C2
:1003300088ED01C08DE8828381E08683002331F05F
:10034000A487B58716862087318705C0248735871F
:100350001686A087B18712866383002359F080E157
:10036000818380E411968C93119784E013968C938B
:10037000139702C081E181830F9108950F93F89440
:10038000882321F0813009F070C034C080912101B0
:1003900087FF05C0809120018F7780932001109204
:1003A000D62010920520662399F480E291E06BE656
:1003B00040EA59E02EE030E200E00E949301809193
:1003C000A3098061E0EAF9E08383109200204DC028
:1003D00080E4E0EAF9E0818380E291E06CE640EAC3
:1003E00059E027E030E201E00E94930181E0809330
:1003F00000203BC08091110187FF06C08091100151
:100400008F77E0E0F1E0808B1092DA201092DB2011
:100410001092D7206623B1F480E191E06BE840EAC6
:100420005AE025EA31E200E00E94930187E090E083
:10043000E0E1F1E08483958384E8809310011092D9
:10044000DC2013C0E0EAFAE080E4818384E0838367
:1004500080E191E06CE840EA5AE02EED30E201E004
:100460000E94930181E08093DC2078940F9108959D
:100470001F920F920FB60F9211240F932F933F9359
:100480004F935F936F937F938F939F93AF93BF939C
:10049000CF93EF93FF938091A109887119F0809118
:1004A000A00920C0C091A0098C2F8350853CD0F4B6
:1004B00080E291E06BE640EA59E02FE030E200E0B4
:1004C0000E9493018C2F90E0E0E2F1E08483958319
:1004D00084E880932001C0930E20E0EAF9E01382C3
:1004E00010920520FF91EF91CF91BF91AF919F9115
:1004F0008F917F916F915F914F913F912F910F91CC
:100500000F900FBE0F901F9018951F920F920FB66D
:100510000F9211248F9381E0809302208F910F908E
:100520000FBE0F901F9018950F9380910220882383
:1005300009F452C0109202208091DC20813019F41D
:100540001092D7202FC08091110187FD04C08091A7
:10055000100187FD05C08091D7208F5F8093D72041
:100560008091D7208330F0F0E0E0F1E0108A8091B4
:10057000100187FDFCCF80E4E0E0F1E0808B80E1BA
:1005800091E06BE840EA5AE025EA31E200E00E949F
:10059000930187E090E0E0E1F1E08483958384E8D3
:1005A0008093100180910020813019F41092052071
:1005B00013C080910520982F9F5F909305208F3165
:1005C00058F081E08093032080930420109205204E
:1005D000109206201092D6200F9108951F920F922C
:1005E0000FB60F9211248F939F93EF93FF938091F7
:1005F000110185FD15C08091110184FF11C080910A
:1006000011018061E0E0F1E0818B1092D72081E060
:100610008093032081E090E08093DA209093DB20A8
:10062000FF91EF919F918F910F900FBE0F901F90B0
:1006300018951F920F920FB60F9211248F939F93CC
:10064000EF93FF931092D72081E08093032081E005
:1006500090E08093D8209093D920E0EAFAE01382CA
:1006600080E48183FF91EF919F918F910F900FBE56
:100670000F901F9018951F920F920FB60F92112492
:100680008F93EF93FF931092002080E1E0EAF9E06E
:10069000838310920520FF91EF918F910F900FBEF1
:1006A0000F901F9018951F920F920FB60F92112462
:1006B0008F93EF93FF93E0E2F1E08091210185FFBA
:1006C00005C0809121018062818310C08091210149
:1006D00084FF0CC0809121018061818380910E2074
:1006E0008F5F8093D62081E080930320FF91EF916C
:1006F0008F910F900FBE0F901F901895FC0120E076
:1007000030E080E004C09191890F2F5F3F4F2617A2
:100710003707CCF390E0909581959F4F08950F9304
:100720001F93CF93DF936091D620CEE0D0E2CE012D
:1007300070E00E947E030097B1F18091B321909107
:10074000B42101968093B3219093B42183E08093E8
:10075000DD208091A6218093DE2081E08093DF2040
:100760008DED90E263E070E00E947E038093E020D4
:10077000E0EAFAE013828091DD208093A00A80E411
:100780008A95F1F780E4818384E0838380E191E0BE
:100790006CE840EA5AE02EED30E201E00E9493015D
:1007A00083E090E026C04091D6200DED10E2C80114
:1007B000BE0150E00E946A0BE0EAFAE013828091E9
:1007C000DD208093A00A80E48A95F1F780E481839C
:1007D00084E0838380E191E06CE840EA5AE098018C
:1007E0002F5F3F4F01E00E9493018091D62090E05F
:1007F0000197E0E1F1E08483958384E88093100120
:100800001092D620DF91CF911F910F910895E0EAC9
:10081000FAE01682178293E095838481886184834D
:10082000E0EAF9E080E18383168217829583848170
:100830008861848380E88093000180E061E00E9409
:10084000BE0181E060E00E94BE01E0E0F8E01182BC
:1008500012821382148280E190E086AB97AB81E034
:10086000868387E0808308950F93CF93F894109246
:10087000032078948091AC21882321F0813009F005
:1008800048C1FFC08091D6208823A1F08091062026
:10089000882381F01092062081E08093AC21809122
:1008A000DC20882321F481E061E00E94BE010E94E7
:1008B0008F030CC08091D620882361F081E060E036
:1008C0000E94BE0180E061E00E94BE01F894109297
:1008D0000420789480910420882329F1F8941092C0
:1008E00004207894109220018091200187FDFCCF94
:1008F000C0E4C093200180E291E06CE640EA59E058
:1009000027E030E201E00E949301E0EAF9E0C183D0
:1009100081E08093002013828091DC20813019F4E3
:1009200060E00E94BE018091DA209091DB20009768
:1009300009F4EFC0F8941092DA201092DB2078943A
:1009400085EA91E267E070E00E947E030097D9F1AA
:100950008091B1219091B22101968093B121909321
:10096000B22183E08093DD208091A6218093DE2058
:10097000C1E0C093DF208DED90E263E070E00E9463
:100980007E038093E02081E061E00E94BE01E0EA06
:10099000FAE013828091DD208093A00A80E48A959A
:1009A000F1F780E4818384E0838383E090E0E0E1F9
:1009B000F1E08483958384E880931001C093AC2197
:1009C00010920620A6C08091A52190E08F709070B3
:1009D000009719F1A7E0B0E2E5EAF1E287E00190C3
:1009E0000D928150E1F7809107208150809307207C
:1009F00080910D208F5F80930D2080E061E00E9448
:100A0000BE0187E090E0E0E2F1E08483958384E832
:100A10008093200181E0809306208091A521807F32
:100A2000803F41F08091A52190E08F7090700097F9
:100A300009F06FC085EA91E26DED70E20E94310924
:100A4000C82F81E061E00E94BE01E0EAFAE0138273
:100A50008091DD208093A00A80E48A95F1F780E4FC
:100A6000818384E083838C2F90E00197E0E1F1E0C3
:100A70008483958384E88093100181E08093AC2186
:100A800048C0809104208823F1F0F894109204204B
:100A90007894109220018091200187FDFCCFC0E462
:100AA000C093200180E291E06CE640EA59E027E043
:100AB00030E201E00E949301E0EAF9E0C18381E0C5
:100AC0008093002013828091D8209091D9200097A4
:100AD00001F1F8941092D8201092D9207894809146
:100AE000D620882361F080910620882341F010925F
:100AF000062081E08093AC210E948F030AC0809180
:100B000006201092AC21882321F481E060E00E944D
:100B1000BE01CF910F910895E0ECF8E011828AEDCB
:100B2000808308950E948C058AE08A95F1F700C0C1
:100B30008CE1E0E4F6E0858380E4E0E0F6E08683A3
:100B4000E0ECF8E013828091C20887FFFCCF20918F
:100B5000C308E0ECF8E013828091C20887FFFCCF65
:100B60008091C30890E4E0E0F6E095839CE1E0E446
:100B7000F6E0968382958695877090E030E043E0BA
:100B8000220F331F4A95E1F7287F3370822B932B76
:100B900008950E9492059C018091AD219091AE2113
:100BA000AC0141505C4F421B530BDC01A21BB30B49
:100BB0008F5F9340821B930BBA0157FF04C06627D7
:100BC0007727641B750BFD01B7FF04C0EE27FF27D5
:100BD000EA1BFB0B9C016E177F0754F497FF04C0C0
:100BE00022273327281B390B6217730764F40CC0C4
:100BF00097FF04C022273327281B390BE217F3077E
:100C000014F4AD0101C0AC01CA010895E0E0F6E0C2
:100C100080EE84838083E0E2F6E08FE0848380834B
:100C2000E0E4F6E08DE184838FEB8083E0E6F6E09C
:100C300082E084839BEB9083E0E8F6E084838AE0A3
:100C40008083E0EEF7E01482108208950E94060689
:100C50000895FB01A0ECB8E013968C931397909144
:100C6000C20897FFFCCF9091C308A0ECB8E01396A0
:100C70001C9213979091C20897FFFCCF9091C308E4
:100C8000108291838E5FA0ECB8E013968C9313973B
:100C90008091C20887FFFCCF8091C308A0ECB8E028
:100CA00013961C9213978091C20887FFFCCF209166
:100CB000C30830E080819181822B932B80839183C4
:100CC000089580E6E0E0F6E085838FE0E0E2F6E07C
:100CD0008583E0E4F6E082E085838CE186830895F5
:100CE000843091F0843028F0853091F08C30E8F435
:100CF00011C021E030E002C0220F331F8A95E2F7D5
:100D0000E0E2F6E0268314C082E0E0E4F6E00BC007
:100D100080E207C08550880F880FE0E4F6E0858305
:100D200080E4E0E0F6E0868303C00E946106089557
:100D30008091C20887FF02C08091C30808951F9266
:100D40000F920FB60F9211248F9381E08093B02100
:100D5000109240088F910F900FBE0F901F90189522
:100D6000E0ECF8E0118280E5808308950F931F93F3
:100D7000CF93DF930DEC11E2A5EBB1E2C9EDD1E227
:100D800089E092E221EF31E241E252E26CE0F801C7
:100D900011928F011D921D9219921992FC011192CC
:100DA0001192CF01F901119211929F01FA01119252
:100DB0001192AF01615059F7DF91CF911F910F91BF
:100DC00008950E946106E0E4F8E011821282138225
:100DD000148280E690E086AB97AB10A211A281E06E
:100DE000868387E080830895EF92FF920F931F938D
:100DF000CF93DF9336E0769567953A95E1F77C01DE
:100E000056E0F694E7945A95E1F7042F10E0D801E4
:100E1000A353BE4D2C91C801880F991F222361F462
:100E2000FC01EF50FE4D60837183FC01EF5DFD4DD1
:100E30006083718321E02C93DC01AF50BE4D4D9156
:100E40005C9111979B01241B350BE901C150DE4FCA
:100E5000FC01EF5DFD4D83E0CF3FD80730F46D938B
:100E60007C9311978081918111C0461B570B405094
:100E70005C4F20503C4F6D937C9311978081918102
:100E8000421753071CF4841B950B02C0820F931F5B
:100E900080839183C801880F991FFC01E752FE4DA2
:100EA000E082F182DC01AB54BE4DFC01EF5DFD4DF3
:100EB000875F9D4D20813181FC0180819181281BBC
:100EC000390B2D933C931197DF91CF911F910F9187
:100ED000FF90EF900895CF92DF92EF92FF920F93E1
:100EE0001F93CF93DF9300D000D0CDB7DEB70E9421
:100EF00061060E94B0060091AF2180910120081781
:100F0000E0F1F8941092B021DD2400EC18E0F4E256
:100F1000CF2EA0ECEA2EA8E0FA2E16C08D2D0E944E
:100F20007006F801C3828091C20887FFFCCF8091D0
:100F3000C308F70113828091C20887FFFCCF80911C
:100F4000C3080E946106D39480910120D81630F323
:100F5000E0E4F8E0118212821382148280E690E0CD
:100F600086AB97AB10A211A281E0868387E08093C5
:100F700040081092AF21789429C0802F0E947006FB
:100F800080E8BE016D5F7F4F0E94290684E8BE01A4
:100F90006F5F7F4F0E942906E0ECF8E0138280919A
:100FA000C20887FFFCCF8091C3080E9461066B8155
:100FB0007C816115710529F089819A81402F0E94F9
:100FC000F4068091AF218F5F8093AF212496CDBF2F
:100FD000DEBFDF91CF911F910F91FF90EF90DF90D7
:100FE000CF900895EF92FF920F931F93CF93DF93CB
:100FF0000F92CDB7DEB7E82EFF24EE0CFF1CEE0CEF
:10100000FF1C8B0120E0C70129830E94730BF801AC
:1010100081938F0129812F5F0894E11CF11C2430FA
:1010200091F70F90DF91CF911F910F91FF90EF906B
:101030000895EF92FF920F931F93CF93DF930F9238
:10104000CDB7DEB78B01E82EFF24EE0CFF1CEE0CB3
:10105000FF1C20E0F80161918F01C70129830E94E4
:10106000830B29812F5F0894E11CF11C243091F738
:101070000F90DF91CF911F910F91FF90EF90089506
:10108000E0E4F6E084818E7F84830895E0E4F6E076
:101090008481816084830895CF93DF9300D000D052
:1010A000CDB7DEB719821A821B821C828FE1BE0186
:1010B0006F5F7F4F0E94F20789819A81AB81BC816B
:1010C0000097A105B10519F00E94400802C00E94D6
:1010D00046088CE1BE016F5F7F4F0E94F207898155
:1010E0009A818093AD219093AE212496CDBFDEBF2F
:1010F000DF91CF910895CF93DF93CDB7DEB7A0975F
:10110000CDBFDEBFF89410920001E0EAF9E013824F
:101110002091A40928612483FC0180E090E02091C3
:10112000A10925FFFCCF21912093A00901968730CA
:101130009105A9F78091A10985FFFCCF80E4E0EA41
:10114000F9E08183E0EAF9E08091A10986FFFACF16
:10115000A0EABAE013961C92139725EC16962C93EE
:1011600016979CEA17969C93179788E114968C9390
:10117000138226839783848310E000E0FF24EE240B
:1011800080E090E0DC01CC24DD240196A11DB11D9E
:1011900081392FE5920721E0A20720E0B20788F00D
:1011A0000894C11CD11CC6018370907083309105D6
:1011B00019F40E94400802C00E94460880E090E0B6
:1011C000DC012091A10927FF0CC02091A009E1E1D9
:1011D000F0E0EC0FFD1FEE0DF11D2083E3942FE0F6
:1011E000E2222091A10A27FF0BC02091A00AE1E092
:1011F000F0E0EC0FFD1FE00FF11D20830F5F0F707B
:10120000EF1481F02091A10A25FF0CC0E1E1F0E08C
:10121000EC0FFD1FEF0DF11D20812093A00AF39428
:101220002FE0F222011779F02091A10925FF0BC0D0
:10123000E1E0F0E0EC0FFD1FE10FF11D20812093B4
:10124000A0091F5F1F7028ECC216D1040CF49DCFBB
:1012500093E088ED08B684BF90938000A89508BEFF
:10126000FFCFCF92DF92EF92FF920F931F93CF9316
:10127000DF93CDB7DEB76897CDBFDEBF8C016B01C2
:10128000FC018181982F907F903809F4AAC0913891
:1012900048F4903609F4A5C0903709F4A2C0992308
:1012A00059F025C1903B09F412C1903C09F4D3C018
:1012B000903909F01CC195C0F801E280F380C701A4
:1012C00080709075009721F0CE010B960E941D0151
:1012D000F7FE0FC0CE0105960E94CE0AF6013396A6
:1012E000DE01159686E00D9001928150E1F706E04F
:1012F00001C000E0F6FE0DC0E02FF0E03396EC0DEB
:10130000FD1DDE01539686E00D9001928150E1F7BC
:101310000A5FF4FE0DC0E02FF0E03396EC0DFD1DEA
:10132000DE011B9688E00D9001928150E1F7085F85
:10133000F3FE08C00E94C905F601E00FF11D83838A
:1013400094830E5FF1FE12C040910120802F90E047
:1013500003968C0D9D1D50E0440F551F65EB71E207
:101360000E946A0B80910120880F080FE1FE10C0D7
:10137000F601E00FF11D8091B1219091B221A09171
:10138000B321B091B42183839483A583B6830C5F8A
:10139000E0FE12C040910120802F90E003968C0D5A
:1013A0009D1D50E0440F551F69ED71E20E946A0BCC
:1013B00080910120880F080F802F8D5FF6018083B8
:1013C0001182128210E0B8016D5F7F4F7601E60E48
:1013D000F71EC6010E947E03F7018083C8010496B0
:1013E00095C08F71903751F0913718F4903659F5B8
:1013F00005C09038D1F0903931F517C0B6016D5F56
:101400007F4F0E94F20787E0F6018083F801818117
:10141000F60181831282C60167E070E00E947E03BC
:10142000F601878388E090E071C0B8016E5F7F4F5E
:101430000E9419080E944C0883E0F6018083F8019D
:101440008181F60141C083E0F6018083F80181814A
:10145000F601818350C0F8014281538151FF10C0D1
:10146000A5EBB1E2E9E0F2E260E02D913D918081EF
:101470009181820F931F819391936F5F6C30A9F7D5
:1014800041FF08C01092B1211092B2211092B321F5
:101490001092B42153FF14C00E9492058093AD2195
:1014A0009093AE21AA2797FDA095BA2F89839A839E
:1014B000AB83BC838CE1BE016F5F7F4F0E94190834
:1014C00083E0F601808380EC8183128216C0F801EC
:1014D00082818F7019F0C8010E947B0893E088ED2B
:1014E00008B684BF90938000A89508BEFFCF83E024
:1014F000F6018083918382E08283C60163E070E01D
:101500000E947E03F601838384E090E06896CDBF5D
:10151000DEBFDF91CF911F910F91FF90EF90DF9091
:10152000CF90089581E0E0E4F6E08783089590E8A5
:10153000E0E0F6E09683E0ECF9E0838302C080917E
:10154000C3098091C20987FFFACFE0ECF9E0638319
:1015500002C08091C3098091C20987FFFACF80E859
:10156000E0E0F6E085830895E0E0F6E080E885833A
:101570008183E0E6F6E080E4828380EB8183E0EC27
:10158000F9E011828DED808308958DE268E00E947C
:10159000970A81E36FE00E94970A089520E8E0E04F
:1015A000F6E0268322EFE0ECF9E023832091C209E4
:1015B00027FFFCCFFC0186E0A0ECB9E013961C925B
:1015C00013979091C20997FFFCCF9091C309919313
:1015D0008150A1F780E8E0E0F6E085830895CF939D
:1015E000DF9300D000D0CDB7DEB7F8948FE39FE152
:1015F0000197F1F700C0000086E0809350008091D1
:10160000510081FFFCCF8091510082FFFCCF81E02F
:10161000809360008093680098ED94BF80934000B1
:1016200085E0E0E4F0E083838FE39FE10197F1F749
:1016300000C000000E9406060E9440080E945C0153
:101640000E9407040E94B6068091A2008160E0EA31
:10165000F0E0828378940E94B0060E94E1060E9426
:10166000B40A0E94C50A0E9446080E944C081982CA
:101670001A821B821C828DE1BE016F5F7F4F0E9428
:10168000F20789819A81AB81BC818D3221E092077A
:1016900020E0A20720E0B20771F08DE291E0A0E027
:1016A000B0E089839A83AB83BC838DE1BE016F5F19
:1016B0007F4F0E94190880910320882311F00E9417
:1016C00034040E9494028091B0218823A1F30E94E7
:1016D0006B07F1CFFB01DC0102C001900D9241507C
:1016E0005040D8F7089503D0808199270895E0EC01
:1016F000F1E0378537FDFDCF348538603487FC0154
:10170000E050F04F0895262FE0ECF1E0378537FDEB
:10171000FDCF3485377F3487378531FF09C036E305
:10172000328738ED34BF31E03387378537FDFDCF61
:1017300033E33287808391831282248325E32287D7
:1017400028ED31E024BF338701960895F894FFCF48
:02175000010C8A
:00000001FF
