:100000000C943F010C945C010C948F080C945C01DF
:100010000C945C010C945C010C9483040C94E80433
:100020000C945C010C945C010C942D140C945C01F8
:100030000C945C010C945C010C945C010C945C01CC
:100040000C945C010C945C010C945C010C945C01BC
:100050000C945C010C945C010C945C010C945C01AC
:100060000C945C010C945C010C945C010C945C019C
:100070000C945C010C945C010C945C010C945C018C
:100080000C945C010C945C010C945C010C945C017C
:100090000C945C010C945C010C945C010C945C016C
:1000A0000C945C010C945C010C945C010C945C015C
:1000B0000C945C010C945C010C945C010C945C014C
:1000C0000C945C010C945C010C945C010C945C013C
:1000D0000C945C010C945C010C945C010C945C012C
:1000E0000C945C010C945C010C945C010C945C011C
:1000F0000C945C010C945C010C945C010C945C010C
:100100000C945C010C945C010C945C010C945C01FB
:100110000C945C010C945C010C945C010C945C01EB
:100120000C945C010C945C010C945C010C945C01DB
:100130000C945C010C9408040C945C010C945C011C
:100140000C945C010C945C010C945C010C945C01BB
:100150000C945C010C945C010C945C010C945C01AB
:100160000C945C010C945C010C94AE040C94BB03E5
:100170000C945C010C94D0040C945C010C945C0114
:100180000C945C010C945C010C945C010C945C017B
:100190000C945C010C945C010C945C010C945C016B
:1001A0000C945C010C945C010C945C010C945C015B
:1001B0000C945C010C945C010C945C010C945C014B
:1001C0000C945C010C945C010C945C010C945C013B
:1001D0000C945C010C945C010C945C010C945C012B
:1001E0000C945C010C945C010C945C010C945C011B
:1001F0000C945C010C945C010C945C010763423626
:10020000B79BD8A71A39685618AEBAAB558C1D3CA7
:10021000B7CC5763BD6DEDFD753EF6177231BF006B
:100220000000803F08000000BE922449123EABAAA5
:10023000AA2ABECDCCCC4C3E00000080BEABAAAA00
:10024000AA3E00000000BF000000803F0000000048
:1002500000084178D3BB4387D1133D190E3CC3BD81
:100260004282AD2B3E68EC8276BED98FE1A93E4C2E
:1002700080EFFFBE01C4FF7F3F000000000011249B
:100280001FBECFEFDFE2DEBFCDBF10E2A0E0B0E2E5
:10029000E4EAFCE302C005900D92A233B107D9F75E
:1002A00012E2A2E3B0E201C01D92A639B107E1F764
:1002B0000E945B190C94501E0C940000CF9382E0B6
:1002C0008093CA01E0E2F0E0E4911092CA01A0E05C
:1002D000B2E01C96EC931C978093CA01E1E2F0E037
:1002E000E4911092CA011D96EC931D97E0E8F1E0AD
:1002F0009DE8938313869DED13969C931397149614
:100300008C93149790E212969C93129791E090939D
:10031000200228E0209321021092220280932802DA
:100320008AE28093290210922A0280E111968C932E
:1003300011979093000221E130E040E050E0BA01D3
:10034000E0E0F2E0C2E011C08091060281FFFCCF44
:10035000C6838091120290911302AA2797FDA0955F
:10036000BA2F480F591F6A1F7B1F2150304061F779
:10037000CB01BA010E947A1B20E030E040E85DE347
:100380000E94481D0E94AB1D0E94471BDC01CB014F
:100390008093402090934120CF910895CF92DF9297
:1003A000EF92FF920F931F93CF93DF9380910602FA
:1003B00080FF6DC081E0E0E0F2E086836091100292
:1003C000709111026093212270932222882777FD79
:1003D0008095982F0E947A1B20E030E040E250E4A4
:1003E0000E94481D20E030E040E05AE30E94481D92
:1003F0009B01F82FE92F462F532F682F792F409319
:100400001D2250931E2260931F2270932022822F60
:10041000932FAF2FBE2FBC01CD010E94E8110E9487
:100420001F1260933620709337208093382090936A
:10043000392020E030E0A9010E94AA1A87FF0BC0F2
:1004400080E090E0DC018093362090933720A093E9
:100450003820B093392060913620709137208091F8
:1004600038209091392020E030E042E053E40E94AF
:100470008F1C181664F480E090E0A2E0B3E480934F
:10048000362090933720A0933820B0933920809164
:10049000060281FFC2C082E0E0E0F2E08683609164
:1004A0001202709113028091402090914120681BAC
:1004B000790B60933A2070933B20882777FD8095D5
:1004C000982F0E947A1B20E030E040E250E40E9426
:1004D000481D20E030E040E05AE30E94481D2AE930
:1004E00039E949ED5FE30E94481DC62FC72EE82E6B
:1004F000D92E0E942807682F70E080E090E00E94CB
:10050000781B20E030E040E853E40E94331A20E0FA
:1005100030E040E05BE30E94481DF62E172FD82FF5
:10052000092F862F912FAD2FB02FBC01CD0120E0D8
:1005300030E040E15FE30E94AA1A87FF04C0FF2475
:1005400010E0D0E10FE38F2D912FAD2FB02FBC0124
:10055000CD010F2D2D2F3B2FA90198010E94331A99
:1005600020E030E040E85FE30E94321A9B01AC01DA
:100570008C2F9C2DAE2DBD2DBC01CD010E94AE1A3D
:10058000C62ED72EE82EF92E462F572F682F792FFB
:10059000CB01BA0120E030E0A9010E948F1C18169F
:1005A00064F480E090E0DC0180933C2090933D2057
:1005B000A0933E20B0933F200CC0F7FAF094F7F8D8
:1005C000F094C0923C20D0923D20E0923E20F092E8
:1005D0003F20C0903C20D0903D20E0903E20F09005
:1005E0003F20C701B60122EB3DE94FEE5DE30E94DB
:1005F0008F1C181694F4C701B60122EB3DE94FEEAB
:100600005DE30E94321ADC01CB0180933C20909381
:100610003D20A0933E20B0933F20DF91CF911F91CA
:100620000F91FF90EF90DF90CF9008950F93FC0112
:10063000DA01002311F088ED01C08DE8828381E0AA
:100640008683002331F0A487B587168620873187FB
:1006500005C0248735871686A087B18712866383F5
:10066000002359F080E1818380E411968C931197E7
:1006700084E013968C93139702C081E181830F91DC
:1006800008950F93F894882321F0813009F070C009
:1006900034C08091210187FF05C0809120018F77B0
:1006A000809320011092172110924620662399F41E
:1006B00080E291E06EE640EB59E02FE430E200E0AA
:1006C0000E9416038091B3098061E0EBF9E0838317
:1006D000109200204DC080E4E0EBF9E0818380E2DD
:1006E00091E06FE640EB59E028E430E201E00E943F
:1006F000160381E0809300203BC08091110187FFA9
:1007000006C0809110018F77E0E0F1E0808B1092BD
:100710001B2110921C21109218216623B1F480E154
:1007200091E06BE640EA59E026EE31E200E00E94FB
:10073000160387E090E0E0E1F1E08483958384E8AC
:100740008093100110921D2113C0E0EAF9E080E4CB
:10075000818384E0838380E191E06CE640EA59E0A4
:100760002FE131E201E00E94160381E080931D2118
:1007700078940F9108951F920F920FB60F92112443
:100780000F932F933F934F935F936F937F938F9329
:100790009F93AF93BF93CF93EF93FF938091B10952
:1007A000887119F08091B00920C0C091B0098C2FD8
:1007B0008350853CD0F480E291E06EE640EB59E056
:1007C00020E530E200E00E9416038C2F90E0E0E28A
:1007D000F1E08483958384E880932001C0934F20C7
:1007E000E0EBF9E0138210924620FF91EF91CF9158
:1007F000BF91AF919F918F917F916F915F914F9139
:100800003F912F910F910F900FBE0F901F90189551
:100810001F920F920FB60F9211248F9381E0809355
:1008200042208F910F900FBE0F901F9018950F933D
:1008300080914220882309F464C010924220809164
:100840001D21813019F4109218212FC080911101BF
:1008500087FD04C08091100187FD05C0809118219B
:100860008F5F80931821809118218330F0F0E0E0B1
:10087000F1E0108A8091100187FDFCCF80E4E0E078
:10088000F1E0808B80E191E06BE640EA59E026EEF2
:1008900031E200E00E94160387E090E0E0E1F1E041
:1008A0008483958384E880931001809100208130B7
:1008B00099F490914420292F2F5F209344209B305E
:1008C00040F080934320809345201092472010925F
:1008D00017211092462015C0109244208091462086
:1008E000982F9F5F909346208F3158F081E080933E
:1008F000432080934520109246201092472010926A
:1009000017210F9108951F920F920FB60F92112485
:100910008F939F93EF93FF938091110185FD15C0F5
:100920008091110184FF11C0809111018061E0E08C
:10093000F1E0818B1092182181E08093432081E0C7
:1009400090E080931B2190931C21FF91EF919F9148
:100950008F910F900FBE0F901F9018951F920F92BE
:100960000FB60F9211248F939F93EF93FF931092E2
:10097000182181E08093432081E090E08093192149
:1009800090931A21E0EAF9E0138280E48183FF91D9
:10099000EF919F918F910F900FBE0F901F90189520
:1009A0001F920F920FB60F9211248F93EF93FF9324
:1009B0001092002080E1E0EBF9E083831092462062
:1009C000FF91EF918F910F900FBE0F901F90189590
:1009D0001F920F920FB60F9211248F93EF93FF93F4
:1009E000E0E2F1E08091210185FF05C080912101C5
:1009F0008062818310C08091210184FF0CC08091AE
:100A000021018061818380914F208F5F8093172126
:100A100081E080934320FF91EF918F910F900FBE63
:100A20000F901F901895FC0120E030E080E004C09A
:100A30009191890F2F5F3F4F26173707CCF390E036
:100A4000909581959F4F08950F931F93CF93DF93B8
:100A500060911721CFE4D0E2CE0170E00E9413052F
:100A60000097B9F1809125229091262201968093DA
:100A700025229093262283E080931E218091E721F6
:100A800080931F2181E0809320218EE191E263E039
:100A900070E00E94130580932121E0EAF9E01382BF
:100AA00080911E218093A0098AE68A95F1F700C003
:100AB00080E4818384E0838380E191E06CE640EA16
:100AC00059E02FE131E201E00E94160383E090E05B
:100AD00027C0409117210EE111E2C801BE0150E08C
:100AE0000E94141EE0EAF9E0138280911E21809397
:100AF000A0098AE68A95F1F700C080E4818384E04A
:100B0000838380E191E06CE640EA59E098012F5F31
:100B10003F4F01E00E9416038091172190E001975A
:100B2000E0E1F1E08483958384E8809310011092E2
:100B30001721DF91CF911F910F910895E0EAF9E01D
:100B40001682178293E09583848188618483E0EB29
:100B5000F9E080E18383168217829583848188611E
:100B6000848380E88093000180E061E00E9441037B
:100B700081E060E00E944103E0E0F9E0118212822E
:100B80001382148280E190E086AB97AB81E086838C
:100B900087E0808308950F93CF93F89410924320B9
:100BA00078948091ED21882321F0813009F04AC1A9
:100BB00001C1809117218823A1F0809147208823CB
:100BC00081F01092472081E08093ED2180911D21DA
:100BD000882321F481E061E00E9441030E94240502
:100BE0000CC080911721882361F081E060E00E94B1
:100BF000410380E061E00E944103F8941092452097
:100C0000789480914520882329F1F894109245200A
:100C10007894109220018091200187FDFCCFC0E4E0
:100C2000C093200180E291E06FE640EB59E028E4B8
:100C300030E201E00E941603E0EBF9E0C18381E0BD
:100C400080930020138280911D21813019F460E08F
:100C50000E94410380911B2190911C21009709F46F
:100C6000F1C0F89410921B2110921C21789486EE0A
:100C700091E267E070E00E9413050097E1F1809136
:100C80002322909124220196809323229093242260
:100C900083E080931E218091E72180931F21C1E092
:100CA000C09320218EE191E263E070E00E94130581
:100CB0008093212181E061E00E944103E0EAF9E0B4
:100CC000138280911E218093A0098AE68A95F1F70C
:100CD00000C080E4818384E0838383E090E0E0E1EE
:100CE000F1E08483958384E880931001C093ED2123
:100CF00010924720A7C08091E62190E08F709070FD
:100D0000009719F1A8E4B0E2E6EEF1E287E0019085
:100D10000D928150E1F780914820815080934820C6
:100D200080914E208F5F80934E2080E061E00E9492
:100D3000410387E090E0E0E2F1E08483958384E87A
:100D40008093200181E0809347208091E621807F7D
:100D5000803F41F08091E62190E08F709070009785
:100D600009F070C086EE91E26EE171E20E94CC164D
:100D7000C82F81E061E00E944103E0EAF9E01382BC
:100D800080911E218093A0098AE68A95F1F700C020
:100D900080E4818384E083838C2F90E00197E0E1FD
:100DA000F1E08483958384E88093100181E080934F
:100DB000ED2148C0809145208823F1F0F8941092ED
:100DC00045207894109220018091200187FDFCCF6E
:100DD000C0E4C093200180E291E06FE640EB59E06F
:100DE00028E430E201E00E941603E0EBF9E0C18361
:100DF00081E08093002013828091192190911A2123
:100E0000009701F1F8941092192110921A21789408
:100E100080911721882361F080914720882341F039
:100E20001092472081E08093ED210E9424050AC0A2
:100E3000809147201092ED21882321F481E060E029
:100E40000E944103CF910F9108958091F12108955F
:100E50008091F2210895CF92DF92EF92FF92CF938B
:100E6000C82FC0908222D0908322E0908422F090FC
:100E70008522682F70E080E090E00E947A1BA70135
:100E800096010E948F1C18162CF4C701B6010E940F
:100E90004C1BC62F8091F221C81771F08C2F90E067
:100EA00080509F4FE0E0F8E080AF91AF82AF93AF0A
:100EB00084AF95AFC093F221CF91FF90EF90DF9078
:100EC000CF900895CF93C82F882331F0833059F005
:100ED0008091F1218C1739F080E00E942B070E944D
:100EE0006212C093F121CF910895E0E0F6E0148200
:100EF0001082E0E2F6E0148284E08083E0E4F6E031
:100F000014828FE88083E0E6F6E082E284838BEB54
:100F10008083E0E8F6E088E084838FE08083E0EE81
:100F2000F7E01482108288E1808B818B0895E0E4E1
:100F3000F6E0148A158A168AA0EEB7E08AE1519687
:100F40008C93519750968C93509780E7828781E0DD
:100F5000818708951092F121E0E0F8E01282138277
:100F600014828FEF91E086AB97AB80E091E080AF89
:100F700091AF82AF93AF84AF95AF83E0818381E07F
:100F800080830895E0E4F6E0209148068091F12105
:100F9000882301F580918406887FA0E8B6E0149646
:100FA0008C9387E0808B818B828B83E0E0E0F8E09C
:100FB000818380E09EEFAFE7B7E480932A2090938F
:100FC0002B20A0932C20B0932D201092122210924F
:100FD0001322089530E02077307094E035952795FE
:100FE0009A95E1F72330D9F1243030F4213071F0B3
:100FF000223009F093C01FC0253009F45CC02530B1
:1010000008F440C0263009F089C06FC09091840672
:10101000987F9560A0E8B6E014969C9397E0918B3A
:1010200023E5A0E0B8E011962C931197823009F0E7
:101030006EC0908B3DC090918406987F9360A0E82D
:10104000B6E014969C9397E0928B23E3A0E0B8E07F
:1010500011962C931197823009F03FC042C09091B5
:101060008406987F9660A0E8B6E014969C9397E07B
:10107000908B23E6A0E0B8E011962C931197823074
:1010800099F415C090918406987F9660A0E8B6E028
:1010900014969C9397E0908B23E6A0E0B8E011961D
:1010A0002C931197823019F487E4818B32C0918B95
:1010B00087E4828B089590918406987F9360A0E8DE
:1010C000B6E014969C9397E0928B23E3A0E0B8E0FF
:1010D00011962C931197823021F4908B87E4818BA9
:1010E000089587E4808B918B089590918406987F72
:1010F0009560A0E8B6E014969C9397E0918B23E569
:10110000A0E0B8E011962C931197823021F487E487
:10111000808B928B0895908B87E4828B08951F9229
:101120000F920FB60F9211242F933F934F935F931B
:101130006F937F938F939F93AF93BF93EF93FF939F
:101140008091480690E080779070E4E095958795CF
:10115000EA95E1F72091EE213091EF214091F021C5
:10116000442381F050E041505040FA01EE0FFF1F40
:10117000E40FF51FEE0FFF1FE80FF11DE050F04EDA
:10118000408101C040E0552747FD5095420F531F55
:101190004093EE215093EF218093F0210E94691338
:1011A0000E94C207FF91EF91BF91AF919F918F91E4
:1011B0007F916F915F914F913F912F910F900FBE53
:1011C0000F901F9018958F929F92AF92BF92CF92DF
:1011D000DF92EF92FF920F931F93CF93DF93EC0177
:1011E0006A017B0148015901688179818A819B816B
:1011F000A70196010E94AA1A87FF04C0C882D9825B
:10120000EA82FB82688179818A819B81A5019401B0
:101210000E948F1C181624F488829982AA82BB82AD
:10122000C701B601A50194010E94AA1A882321F4DE
:10123000C882D982EA82FB82DF91CF911F910F9100
:10124000FF90EF90DF90CF90BF90AF909F908F90E6
:10125000089580E090E0DC0180932722909328227B
:10126000A0932922B0932A2280932B2290932C22A0
:10127000A0932D22B0932E220895CF92DF92EF9269
:10128000FF920F931F93CF93DF932091EE21309124
:10129000EF21EC01C21BD30BBE01D7FF04C06627B0
:1012A00077276C1B7D0B882777FD8095982F0E94F0
:1012B0007A1B20918A2230918B2240918C2250916E
:1012C0008D220E94AA1A87FF02C0C0E0D0E0BE01B2
:1012D000882777FD8095982F0E947A1B209186227F
:1012E0003091872240918822509189220E94481D86
:1012F000EB01182F092FC0907A22D0907B22E0902A
:101300007C22F0907D229801862F9D2FA32FB22F53
:10131000BC01CD01A70196010E948F1C18161CF478
:10132000E6011E2D0F2DF7FAF094F7F8F0949801CE
:101330008C2F9D2FA32FB02FBC01CD01A7019601AB
:101340000E94AA1A87FD05C0C801CC2EDD2EE92E09
:10135000F02EC701B60120E030E0A9010E948F1CE9
:101360001816A4F4C701B60120E030E048E453E4C5
:101370000E94AA1A87FF0AC00F2EF0E0CF2EF0E0DD
:10138000DF2EF8E4EF2EF3E4FF2EF02DC701B601B7
:1013900020E030E0A9010E94AA1A87FF14C0C7010B
:1013A000B60120E030E048E453EC0E948F1C181690
:1013B00054F40F2EF0E0CF2EF0E0DF2EF8E4EF2E05
:1013C000F3ECFF2EF02D0E942507C701B60120E0A7
:1013D00030E0A9010E948F1C181664F0C701B60105
:1013E00020E030E0A9010E94AA1A881F8827881FE0
:1013F000880F01C081E00E946207C701B6010E9408
:10140000471BCB0177FF03C0909581959F4FDF91DC
:10141000CF911F910F91FF90EF90DF90CF900895A3
:101420007F928F929F92AF92BF92CF92DF92EF9274
:10143000FF920F931F93CF93DF9300D000D0CDB7CF
:10144000DEB7823039F1833020F4813009F030C1C9
:1014500007C0833009F450C0843009F029C18AC024
:101460000E942807782E609130227091312280E00E
:1014700090E00E94781B6B017C01609112227091B8
:10148000132280E090E00E94781B9B01AC01C70111
:10149000B60199C00E942807782E60913022709181
:1014A000312280E090E00E94781B6B017C0160910A
:1014B0003C2070913D2080913E2090913F2020E083
:1014C00030E04AE754E40E94481D9B01AC01C7018B
:1014D000B6010E94321AC0903622D0903722E09096
:1014E0003822F0903922009132221091332220913B
:1014F00034223091352279C00E942807782E0E942C
:10150000E30E4B015C010E94DE0E6B017C01209119
:101510003C2030913D2040913E2050913F20CA0117
:10152000B9010E94481DB62FA72F382F292FC701B8
:10153000B601FD01A9010F2F1E2F252F342FA90160
:1015400098010E94481D9B01AC01C501B4010E9495
:10155000321AC0904E22D0904F22E0905022F0904C
:10156000512200914A2210914B2220914C2230911D
:101570004D223BC00E942807782E60911222709164
:10158000132280E090E00E94781B162F872EC82E31
:10159000092F8091F4219091F5210E943D098093BB
:1015A000302290933122BC0180E090E00E94781BB1
:1015B000AB01BC01CB01BA01402F012F182D2C2DFE
:1015C000342FA90198010E94321AC0904222D09073
:1015D0004322E0904422F090452200913E22109157
:1015E0003F222091402230914122582F492F862FAF
:1015F000972FA52FB42FBC01CD01A90198010E94FE
:10160000481DDC01CB0189839A83AB83BC830091A5
:101610002520109126202091272030912820B901E3
:10162000A8017058CE0101960E94E308672D70E072
:1016300080E090E00E947A1B29813A814B815C8195
:101640000E94321AA70196010E94AE1ADC01CB015A
:101650008093272290932822A0932922B0932A22B4
:1016600060E070E0CB01A70196010E94AE1A4B0129
:101670005C01609125207091262080912720909117
:101680002820A70196010E94AE1A8B019C0187E2D7
:1016900092E2B501A4010E94E30880E090E0DC0141
:1016A00080932B2290932C22A0932D22B0932E2254
:1016B0002496CDBFDEBFDF91CF911F910F91FF9098
:1016C000EF90DF90CF90BF90AF909F908F907F90E2
:1016D00008950E9429098091010480FDFCCF85E0D6
:1016E00090E0E0E0F4E082879387E0E0F4E080912E
:1016F000010480FDFACF108611868AE090E084878D
:10170000958781E082838093000408954F925F92D1
:101710006F927F928F929F92AF92BF92CF92DF9201
:10172000EF92FF920F931F93CF93DF93CDB7DEB766
:101730002C97CDBFDEBF0E94E30E6B017C0120E041
:1017400030E0A9010E948F1C87FD43C00E94DE0E7D
:101750004B015C0120913C2030913D2040913E2086
:1017600050913F20CA01B9010E94481DB62FA72FF2
:10177000382F292FC501B401FD01A9010F2F1E2FFC
:10178000252F342FA90198010E94481D9B01AC010F
:10179000C701B6010E94321AB62EA72E982E892EA6
:1017A00040905222509053226090542270905522C3
:1017B000C0904E22D0904F22E0905022F0905122C3
:1017C00000914A2210914B2220914C2230914D22BF
:1017D000A3C080912F228230E9F0843009F455C0F3
:1017E000813009F096C0609130227091312280E002
:1017F00090E00E94781B6B017C0160911222709135
:10180000132280E090E00E94781B9B01AC01C7018D
:10181000B60160C0609130227091312280E090E08A
:101820000E94781B6B017C0160913C2070913D20EF
:1018300080913E2090913F2020E030E04AE754E440
:101840000E94481D9B01AC01C701B6010E94321ADB
:10185000B62EA72E982E892E40903A2250903B22E9
:1018600060903C2270903D22C0903622D09037226A
:10187000E0903822F09039220091322210913322E8
:10188000209134223091352247C06091122270910C
:10189000132280E090E00E94781B5B01C82E092F84
:1018A0008091F4219091F5210E943D09809330228E
:1018B00090933122BC0180E090E00E94781BAB0144
:1018C000BC01CB01BA01402F0A2D1B2D2C2D342F2A
:1018D000A90198010E94321AB62EA72E982E892EA1
:1018E00040904622509047226090482270904922B2
:1018F000C0904222D0904322E0904422F0904522B2
:1019000000913E2210913F222091402230914122AD
:1019100003C080913122FCC0B501A401872F9A2D0C
:10192000A52FB82DBC01CD01A90198010E94481D29
:10193000DC01CB018D839E83AF83B8870091252086
:10194000109126202091272030912820B901A8014C
:101950007058CE0105960E94E3088D819E81AF816B
:10196000B88589839A83AB83BC8360912722709169
:1019700028228091292290912A22F501A4010F2F7B
:101980001A2D252F382DA90198010E94331ADC0148
:10199000CB018093272290932822A0932922B093F1
:1019A0002A22C701B60120E030E0A9010E94AA1A4C
:1019B000882361F480E090E0DC01809327229093FB
:1019C0002822A0932922B0932A2221C060E070E04F
:1019D000CB01A70196010E94AE1A69877A878B878F
:1019E0009C876091252070912620809127209091DE
:1019F0002820A70196010E94AE1A8B019C0187E264
:101A000092E249855A856B857C850E94E308C7016F
:101A1000B60120912722309128224091292250910D
:101A20002A220E94481D9B01AC0169817A818B8129
:101A30009C810E94331ADC01CB0189839A83AB839A
:101A4000BC83A5019401852F9A2DA32FB82DBC012D
:101A5000CD0120912B2230912C2240912D225091AA
:101A60002E220E94321A262FB72F4B2D5A2D692D68
:101A7000782D40932B2250932C2260932D2270932B
:101A80002E22422F5B2F682F792FCB01BA01A301A1
:101A900092010E94481DDC01CB018D839E83AF83A0
:101AA000B887009125201091262020912720309181
:101AB0002820B901A8017058CE0105960E94E308BC
:101AC00069817A818B819C812D813E814F815885EE
:101AD0000E94331ADC01CB0189839A83AB83BC83D8
:101AE0000091252010912620209127203091282038
:101AF000CE01019640E050E0BA010E94E3086981FE
:101B00007A818B819C810E94971A0E944C1B862FA0
:101B10002C96CDBFDEBFDF91CF911F910F91FF902B
:101B2000EF90DF90CF90BF90AF909F908F907F907D
:101B30006F905F904F9008958F929F92AF92BF9257
:101B4000CF92DF92EF92FF924C01623009F045C0D4
:101B500060917622709177228091782290917922FB
:101B60002091F6213091F7214091F8215091F921EF
:101B70000E94321A6B017C0160915A2270915B22A3
:101B800080915C2290915D222DEC3CEC44EE51E47E
:101B90000E94481D9B01AC01C701B6010E94AE1A0C
:101BA0000E94CF1D6B017C01B40180E090E00E9497
:101BB000781B4B015C01C701B60120E030E04AE729
:101BC00054E40E94481D9B01AC01C501B4010E9470
:101BD000AA1A881F8827881F4AC0613009F046C0AA
:101BE000609176227091772280917822909179226B
:101BF0002091F6213091F7214091F8215091F9215F
:101C00000E94321A6B017C0160915A2270915B2212
:101C100080915C2290915D222DEC3CEC44EE51E4ED
:101C20000E94481D9B01AC01C701B6010E94AE1A7B
:101C30000E94CF1D20E030E040EA5FE30E94481D93
:101C40009B01AC0160913C2070913D2080913E2031
:101C500090913F200E94AA1A181644F081E020912A
:101C60001222309113222815390508F480E0FF90E4
:101C7000EF90DF90CF90BF90AF909F908F9008959E
:101C80006AE979E989EB90EC20916622309167222C
:101C900040916822509169220E94AE1A0E941B1B3B
:101CA000DC01CB018093FE219093FF21A0930022C1
:101CB000B09301226AE979E989EB90EC20919222B4
:101CC0003091932240919422509195220E94AE1A15
:101CD0000E941B1BDC01CB01809302229093032204
:101CE000A0930422B0930522809136209091372052
:101CF000A0913820B09139208093FA219093FB2154
:101D0000A093FC21B093FD218093F6219093F721BD
:101D1000A093F821B093F92108951F93CF93DF93F7
:101D2000182FEB0180912920833009F442C08430C0
:101D300028F4813051F0823030F53BC0863079F0A4
:101D4000873089F1853089F534C0CB01612F0E943D
:101D50009C0D813061F586E0809329202AC0609136
:101D6000FA217091FB218091FC219091FD2120911D
:101D70005E2230915F2240916022509161220E9448
:101D8000AA1A87FF03C01092292013C0CE01612F29
:101D90000E949C0D813069F081E08093292083E0CE
:101DA0000E94100A04C083E005C080E003C081E007
:101DB00001C082E0DF91CF911F9108956DEC7CEC22
:101DC00084EE91E408950F931F93CF93DF93809156
:101DD00029208150823090F560917622709177228F
:101DE00080917822909179222091F6213091F721EB
:101DF0004091F8215091F9210E94321A20915A22E3
:101E000030915B2240915C2250915D220E94AE1A7B
:101E10008B01D82FC92F9E01862F912FA32FB22F70
:101E2000BC01CD0120E030E0A9010E94AA1A87FF81
:101E300009C000E010E0D0E0C0E004C000E010E025
:101E4000D0E8CFEB9E01802F912FA32FBC2FBC0198
:101E5000CD01DF91CF911F910F9108954F925F9225
:101E60006F927F928F929F92AF92BF92CF92DF92AA
:101E7000EF92FF920F931F93CF93DF93CDB7DEB70F
:101E80002897CDBFDEBF69837A838B839C83809143
:101E90000A2290910B22A0910C22B0910D228D83E9
:101EA0009E83AF83B88780900E2290900F22A090DF
:101EB0001022B0901122CA01B9010E94481D6B0185
:101EC0007C01C501B40129813A814B815C810E946A
:101ED000331A20E030E048EC51E40E94321A20919D
:101EE0006E2230916F2240917022509171220E9497
:101EF000481D20E030E040E85FE30E94331A209163
:101F000056223091572240915822509159220E94D6
:101F1000481D9B01AC01C701B6010E94481D762EE9
:101F2000672E582E492EA3019201852F942FA32F9F
:101F3000B22FBC01CD0120915A2230915B224091F9
:101F40005C2250915D220E94481D2D813E814F816F
:101F500058850E94331AE62EC72ED82EF92EC501B9
:101F6000B4010E2D1C2D2D2D3F2DA90198010E948D
:101F7000321A2091FE213091FF2140910022509190
:101F800001220E94481D2D2D3F2DA90198010E947C
:101F9000331AE62ED72E882EB92E862F9D2DA82DEA
:101FA000BB2D80930E2290930F22A0931022B0930A
:101FB0001122A3019201852F942FA32FB22FBC01D0
:101FC000CD0120918E2230918F224091902250910C
:101FD00091220E94481D3B01C82EF92E6D817E8101
:101FE0008F819885062D172D2C2D3F2DA901980145
:101FF0000E94321A20910222309103224091042241
:10200000509105220E94481D2C2D3F2DA9019801B9
:102010000E94331A9B01F82FE92F462F532F682F68
:10202000792F40930A2250930B2260930C227093D5
:102030000D22822F932FAF2FBE2FBC01CD012981FE
:102040003A814B815C810E94331ADC01CB01809381
:10205000F6219093F721A093F821B093F9218E2DCA
:102060009D2DA82DBB2DBC01CD0129813A814B812D
:102070005C810E94331ADC01CB018093FA2190939A
:10208000FB21A093FC21B093FD216091362070913B
:102090003720809138209091392020E030E040EACC
:1020A00050E40E94AA1A87FF05C080E00E946207E0
:1020B00087E02EC080912920833069F1843038F484
:1020C000813009F47FC0823008F0F0C051C0853003
:1020D00009F464C1853038F0863009F4AFC0873028
:1020E00009F062C145C0C0900622D0900722E0905E
:1020F0000822F0900922C701B60120E030E0A901D2
:102100000E948F1C18161CF4C701B60120C085E080
:102110008093292049C16091062270910722809105
:1021200008229091092220E030E0A9010E94AA1A19
:1021300018166CF70E942507882309F033C16091B7
:1021400006227091072280910822909109222AE9A3
:1021500039E949EB50E40E94321ADC01CB0180934B
:10216000062290930722A0930822B09309221CC153
:102170000E942507882309F49DC0C090FA21D090C1
:10218000FB21E090FC21F090FD21C701B6012091D8
:102190006A2230916B2240916C2250916D220E94F4
:1021A0008F1C87FFB3C0C701B60120915E2230911A
:1021B0005F2240916022509161220E948F1C87FD16
:1021C000F3C06FC00E942507882309F473C0C09034
:1021D000FA21D090FB21E090FC21F090FD21C70175
:1021E000B60120916A2230916B2240916C2250916D
:1021F0006D220E948F1C87FF89C0C701B601209104
:102200005E2230915F2240916022509161220E94B3
:10221000AA1A87FF02C082E07BCF00912F22809113
:10222000302290913122602F0E949C0D813009F064
:10223000BBC0802F0E94100A86E06ACF0E9425074B
:102240008823C1F1C090FA21D090FB21E090FC21BD
:10225000F090FD21C701B60120916A2230916B22D6
:1022600040916C2250916D220E948F1C87FF4EC0BE
:10227000C701B6012091622230916322409164220D
:10228000509165220E94AA1A87FD81C08091302258
:102290009091312260912F220E949C0D882309F099
:1022A00083C081E08093292083E075C00E942507C8
:1022B0008823B1F483E08093292060917222709189
:1022C0007322809174229091752220916622309120
:1022D000672240916822509169220E94481D3DCF9B
:1022E000C090FA21D090FB21E090FC21F090FD21DC
:1022F000C701B60120916A2230916B2240916C2275
:1023000050916D220E948F1C87FD23C084E0809332
:102310002920609172227091732280917422909191
:102320007522209166223091672240916822509157
:1023300069220E94481DDC01CB0180930622909304
:102340000722A0930822B093092280E00E9462072E
:102350002BC0C701B60120915E2230915F224091CF
:102360006022509161220E948F1C87FD02C081E093
:10237000CFCEC701B60120916222309163224091F5
:102380006422509165220E94AA1A87FF0DC0109204
:10239000292080912F220E94100A06C00E94250742
:1023A000882311F0109229202896CDBFDEBFDF913F
:1023B000CF911F910F91FF90EF90DF90CF90BF9042
:1023C000AF909F908F907F906F905F904F90089507
:1023D000CF92DF92EF92FF920F931F93CF93DF93F1
:1023E0006B017C0120E030E44CE156E40E94481D82
:1023F000D62FC72F182F092F60E070E080E290E4FD
:10240000A70196010E94321A9B01AC01FE01B8019E
:102410008F2F9E2FA72FB62FBC01CD010E94AE1A81
:10242000462F572F682F792FCB01BA01DF91CF911B
:102430001F910F91FF90EF90DF90CF9008950F9331
:102440001F9320E030E44CE156E40E94AE1A0E9453
:10245000D51C26EF3DEE43E859E30E94481D462F68
:10246000572F682F792FCB01BA012FE03FEC4BE5B6
:102470005BE30E94331AB62FA72F382F292F60E075
:1024800070E080E89FE3FD01A9010F2F1E2F252F8B
:10249000342FA90198010E94AE1A462F572F682F9A
:1024A000792FCB01BA0123E333E948E853E40E94D2
:1024B000321A462F572F682F792FCB01BA011F915F
:1024C0000F9108951092192210921B2210921C2233
:1024D00010921A2280E09EEFAFE7B7E480932A20A3
:1024E00090932B20A0932C20B0932D201092122299
:1024F00010921322109216220895CF92DF92EF923B
:10250000FF921F93CF93DF9380911922882351F577
:1025100080911A22882331F180911B2290911C22F4
:10252000C0911A22BC0180E090E00E94781B6B01F0
:102530007C016C2F70E080E090E00E94781B9B0192
:10254000AC01C701B6010E94AE1ADC01CB01809339
:102550002A2090932B20A0932C20B0932D20109212
:10256000162244C0809116228F5F8093162280919C
:102570001622843628F080E09EEFAFE7B7E42EC045
:102580002091162230E081E792E0289FB001299F38
:10259000700D389F700D1124882777FD8095982F36
:1025A0000E947A1BC62E172FD82FC92F9E01862F67
:1025B000912FA32FB22FBC01CD0120912A20309161
:1025C0002B2040912C2050912D200E948F1C1816FA
:1025D0006CF49E018C2D912FA32FB22F80932A2073
:1025E00090932B20A0932C20B0932D2060912A2033
:1025F00070912B2080912C2090912D2025E93FEB8C
:1026000046E556E30E94481D9B01AC0160E070E086
:1026100080E89FE30E94AE1A162FD72FC82FC92E2D
:10262000862F9D2FAC2FBC2DBC01CD0120E03FEFAC
:102630004FE757E40E948F1C1816B4F0812F9D2F8E
:10264000AC2FBC2DBC01CD0120E030E0A9010E94DF
:10265000AA1A87FD0CC0812F9D2FAC2FBC2DBC0169
:10266000CD010E944C1B05C06FEF7FEF02C060E000
:1026700070E060931222709313221092192210922C
:102680001B2210921C2210921A22DF91CF911F91CF
:10269000FF90EF90DF90CF900895E0E8F1E084E6BE
:1026A000808385E6818386E6828310861186128682
:1026B000E0E0FAE080E78183128288E2838314827B
:1026C0008FEF9FEF86AB97AB10A211A286E08083BD
:1026D0000895E0E0FAE080910B0A8E70843049F0B2
:1026E000883061F0823079F48091380A9091390A0B
:1026F00013C080913A0A90913B0A0EC080913C0A27
:1027000090913D0A09C08EE0828710A211A210921A
:102710001722109218220895209117223091182222
:10272000AC01421B530B409314225093152280930B
:1027300017229093182220911B2230911C22809105
:1027400014229091152240911A224F3F49F0820F96
:10275000931F20911B2230911C228217930750F463
:1027600081E08093192210921B2210921C22109259
:102770001A22089580931B2290931C2280911A2282
:102780008F5F80931A2208951F93CF93DF93C0EC3D
:10279000D1E09091CF0197FDFACF8093C0011091C5
:1027A000CA0187E08A878BEC91E061E00E942C1AD5
:1027B0001A878091C401DF91CF911F910895EF9204
:1027C000FF920F931F93CF93DF930F92CDB7DEB796
:1027D000E82EFF24EE0CFF1CEE0CFF1C8B0120E00A
:1027E000C70129830E941D1EF80181938F01298151
:1027F0002F5F0894E11CF11C243091F70F90DF91BA
:10280000CF911F910F91FF90EF900895EF92FF925B
:102810000F931F93CF93DF930F92CDB7DEB78B014A
:10282000E82EFF24EE0CFF1CEE0CFF1C20E0F8014C
:1028300061918F01C70129830E942D1E29812F5F7D
:102840000894E11CF11C243091F70F90DF91CF9197
:102850001F910F91FF90EF9008951F920F920FB666
:102860000F9211248F93F89481E08093F3218F913C
:102870000F900FBE0F901F901895CF92DF92EF929E
:10288000FF92CF93DF936A017B01C82FD0E0CC0F7A
:10289000DD1FCC0FDD1FCE01642F0E942D1E772778
:1028A0006F2D5E2D4D2DCE010196642F0E942D1EA1
:1028B000A70166277727CE010296642F0E942D1E5E
:1028C000CF2CDD24EE24FF24CE0103966C2D0E9434
:1028D0002D1EDF91CF91FF90EF90DF90CF90089564
:1028E0001F93CF93DF938FE892ECA5EFBCE3809327
:1028F000322290933322A0933422B09335228AE07F
:1029000097EDA3E2BCE38093362290933722A09305
:102910003822B093392280E090E0DC0180933A22A3
:1029200090933B22A0933C22B0933D224AE057ED86
:1029300063EA7BE340933E2250933F226093402220
:10294000709341224AE057ED63E27BE340934222D9
:1029500050934322609344227093452280934622F1
:1029600090934722A0934822B093492240E050E040
:1029700060E87FE340934A2250934B2260934C22BD
:1029800070934D224AE959E969E97EE340934E226A
:1029900050934F2260935022709351228093522281
:1029A00090935322A0935422B09355228DEC9CEC2B
:1029B000A4EEB1E48093562290935722A09358221C
:1029C000B093592281E79DE3AAE2B0E480935A22B2
:1029D00090935B22A0935C22B0935D2280E090E014
:1029E000A4EBB2E480935E2290935F22A0936022D6
:1029F000B09361228093622290936322A093642219
:102A0000B093652240E050E26EED74E4409366229C
:102A100050936722609368227093692240E050E0EF
:102A20006CED72E440936A2250936B2260936C22A7
:102A300070936D2244E257E96FE77BE340936E2287
:102A400050936F22609370227093712240E050E0A7
:102A500060EA70E440937222509373226093742270
:102A6000709375228093762290937722A093782298
:102A7000B093792280E090E8ABE3B6E480937A22C9
:102A800090937B22A0937C22B0937D2280E090E003
:102A9000A9ECB3E480937E2290937F22A0938022BE
:102AA000B093812280E090E0A6E1B3E4809382229B
:102AB00090938322A0938422B093852280E090E0BB
:102AC000A0E7B1E48093862290938722A093882286
:102AD000B093892280E090E0A8ECB1E480938A2250
:102AE00090938B22A0938C22B0938D2283E393E367
:102AF000ABE5B1E480938E2290938F22A093902235
:102B0000B093912280E090E2A2EBB6E4809392220F
:102B100090939322A0939422B0939522C2E3D2E2A1
:102B200010E04991599169917991812F0E943D144A
:102B30001F5F1931B1F780E890E060E00E942D1E20
:102B400081E890E060E20E942D1EDF91CF911F91FD
:102B50000895CF92DF92EF92FF920F931F93CF933E
:102B6000DF9380E890E00E941D1E882331F481E805
:102B700090E00E941D1E803211F00E947014C0E08F
:102B8000D0E000E010E0CE0103960E941D1EC82E8A
:102B9000CE0102960E941D1EDD24EE24FF24FE2C91
:102BA000ED2CDC2CCC2490E0A0E0B0E0C82AD92A9F
:102BB000EA2AFB2ACE0101960E941D1EFE2CED2C56
:102BC000DC2CCC2490E0A0E0B0E0C82AD92AEA2A84
:102BD000FB2ACE010E941D1EF801EE0FFF1FEE0F13
:102BE000FF1FEE5CFD4DFE2CED2CDC2CCC2490E088
:102BF000A0E0B0E0C82AD92AEA2AFB2AC082D18202
:102C0000E282F3820F5F1F4F24960931110509F00C
:102C1000BACFDF91CF911F910F91FF90EF90DF908E
:102C2000CF900895CF93DF93CDB7DEB7A097CDBFF8
:102C3000DEBFF89410920001E0EBF9E0138228E186
:102C40002483FC0180E090E02091B10925FFFCCFB6
:102C500021912093B009019687309105A9F78091C1
:102C6000B10985FFFCCF80E4E0EBF9E08183E0EB84
:102C7000F9E08091B10986FFFACF8FE39FE10197D8
:102C8000F1F700C00000A0EAB9E013961C92139778
:102C900025EC16962C9316979CEA17969C931797FB
:102CA00088E114968C93138226839783848330E083
:102CB00020E040E050E080E090E0DC0160E070E087
:102CC00010E4E12E16E0F12E10E80196A11DB11DD1
:102CD0008139EFE59E07E1E0AE07E0E0BE0778F05E
:102CE0006F5F7F4FCB0183709070F7018330910548
:102CF00011F4158301C0168380E090E0DC01E091BF
:102D0000B109E7FF0BC00091B009E1E1F0E0EC0F81
:102D1000FD1FE50FF11D00835F5F5F70E091A1096A
:102D2000E7FF0BC00091A009E1E0F0E0EC0FFD1F10
:102D3000E20FF11D00832F5F2F70541779F0E0919F
:102D4000A109E5FF0BC0E1E1F0E0EC0FFD1FE40F8E
:102D5000F11DE081E093A0094F5F4F70231779F0D8
:102D6000E091B109E5FF0BC0E1E0F0E0EC0FFD1FE1
:102D7000E30FF11DE081E093B0093F5F3F70683CD5
:102D800071050CF4A2CF93E088ED08B684BF909350
:102D90008000A89508BEFFCFDF92EF92FF920F93BD
:102DA0001F93CF93DF93EC017B011981012F007FEB
:102DB0000038D1F0013840F40036B1F00037A1F00E
:102DC000002309F470C04BC2003A09F41EC1013A55
:102DD00020F4003909F043C207C0003B09F427C2C0
:102DE000003C09F03CC209C21F71193128F5E12FDE
:102DF000F0E0EE0FFF1FEE0FFF1F003711F000365F
:102E000069F4EE5CFD4D80819181A281B381F7016F
:102E100083839483A583B68387E01AC04A815B814C
:102E20006C817D81EE5CFD4D4083518362837383B1
:102E3000812F0E943D1432C0003711F00036A9F4F2
:102E4000B7016D5F7F4F812F0E94DF1387E0F7018D
:102E5000808301831282C70167E070E00E9413053E
:102E6000F701878388E090E009C2BE016E5F7F4F63
:102E7000812F0E9406141F3189F48B819A81892B3E
:102E80009C81892B9D81892B29F080E8E0E4F6E084
:102E9000858304C080E8E0E4F6E0868383E0F70100
:102EA00080830183C2C10A811B8115FF0FC08091FD
:102EB000322090913320A0913420B0913520FB0135
:102EC00083839483A583B683C4E001C0C0E010FF70
:102ED00018C060913C2070913D2080913E209091DF
:102EE0003F2020E030E04AE754E40E94481D0E9461
:102EF000AB1D0E944C1BF701EC0FF11D6383748323
:102F0000CE5F07FF18C06091362070913720809106
:102F100038209091392020E030E048EC52E40E94C3
:102F2000481D0E94AB1D0E944C1BF701EC0FF11DC8
:102F300063837483CE5F06FF0AC090911222809152
:102F40001322F701EC0FF11D93838483CE5F03FFFF
:102F500018C06091FA217091FB218091FC21909121
:102F6000FD2120E030E048EC52E40E94481D0E9420
:102F7000AB1D0E944C1BF701EC0FF11D63837483A2
:102F8000CE5F02FF0EC08091EE219091EF21F701FC
:102F9000EC0FF11D83838091EE219091EF219483BA
:102FA000CE5F01FF1DC080E00E94C413F701838340
:102FB00081E00E94C413F701848382E00E94C4135D
:102FC000F701858384E00E94C413F701868385E0BE
:102FD0000E94C413F70187838091D0018087CA5F64
:102FE0008C2F8D5FF701808311821282D0E0BE01A9
:102FF0006D5F7F4F8701060F171FC7010E941305E2
:10300000F8018083CE01049639C1E12FE370F0E02E
:10301000E25DFF4D00811C70143029F0183009F07A
:1030200035C111E001C012E00E942507882329F470
:103030000E94290980E00E942B070A80DB81C02DB5
:10304000013049F1013038F0023009F458C0043041
:1030500009F09EC07EC0F894FDEFC130DF0708F094
:103060009FC080E0BE010E948D0ED82E815082301C
:1030700008F09AC010922F22C0933022D0933122B0
:10308000812F0E94620722E0D21609F084C08D2FA2
:103090000E942B0789C0F894BE0180E090E00E9456
:1030A000781B20917A2230917B2240917C22509192
:1030B0007D220E948F1C18160CF472C0C83CD105EA
:1030C00008F46EC081E0BE010E948D0ED82E8150A2
:1030D000823008F069C0C0933022D093312282E060
:1030E000D81659F480912F22813039F00E9425079B
:1030F000882319F081E00E94100A81E024C0F8942E
:10310000CE010197E5E08C3D9E0708F049C082E0C2
:10311000BE010E948D0ED82E8150823008F044C02E
:10312000C0933022D0933122F2E0DF1659F480911F
:103130002F22823039F00E942507882319F082E07F
:103140000E94100A82E080932F22812F0E94620742
:103150002BC0F894C093F421D093F521CE01805E6A
:10316000934EE8E381349E07D8F4CE010E943D09D6
:10317000EC0181E0BE010E948D0ED82E815082307C
:1031800098F4C0933022D093312200932F220CC0A8
:10319000C0E0D0E007C0C0E0D0E0DD24D39406C09A
:1031A000C1E0D0E0DD2402C0C0E0D0E078940E940D
:1031B000C207112381F0209711F082E816C0F1E0D8
:1031C000DF1661F0DF1660F022E0D21621F083E016
:1031D000D81651F407C0F701128209C080E805C073
:1031E00081E803C083E801C089E9F701828383E0B5
:1031F000F701808380EA818338C08A8181FF08C01B
:10320000109223221092242210922522109226221C
:1032100082FF06C0F8941092EE211092EF2178946C
:1032200083E0F701808380EC818312821EC08A8153
:10323000982F9F7059F0807F8A83CE0166E070E0FE
:103240000E9413058E83CE010E94121693E088ED32
:1032500008B684BF90938000A89508BEFFCF83E096
:10326000F7018083018382E08283C70163E070E01D
:103270000E941305F701838384E090E0DF91CF91F2
:103280001F910F91FF90EF90DF90089580E00E94D2
:10329000620700E010E0D1CE80E8E0E4F6E085834C
:1032A000089580E8E0E4F6E08683089580E8E0E4AD
:1032B000F6E087830895CF93DF9300D000D0CDB799
:1032C000DEB7F8948FE39FE10197F1F700C00000AB
:1032D00086E0809350008091510081FFFCCF809167
:1032E000510082FFFCCF81E08093600080936800F2
:1032F00098ED94BF8093400085E0E0E4F0E08383A4
:10330000EFE3FFE13197F1F700C000000E9475077D
:103310000E94A91519821A821B821C828FE1BE01AC
:103320006F5F7F4F0E94DF1389819A81AB81BC81DF
:103330000097A105B10529F080E8E0E4F6E0858377
:1033400004C080E8E0E4F6E0868319821A821B82DA
:103350001C828DE1BE016F5F7F4F0E94DF13898168
:103360009A81AB81BC818133F1E09F07F0E0AF0728
:10337000F0E0BF0771F081E391E0A0E0B0E0898365
:103380009A83AB83BC838DE1BE016F5F7F4F0E9448
:1033900006140E94AA070E944D130E949E050E94D7
:1033A0005E010E9497070E94690B8091A2008160D4
:1033B000E0EAF0E0828300EC11E08091CF0187FD2C
:1033C000FACF8FEBF8018483E090CA0188E082870E
:1033D0008BEC91E061E00E942C1AF801E28678946F
:1033E0000E94CE010E94400E0E94C20720E2E22EFF
:1033F00026E0F22E14E080914320882311F00E94F1
:10340000CB050E9417048091F3218130A1F7F701C9
:103410001583F8941092F3210E947D1278940E94F3
:10342000CE016091362070913720809138209091A4
:10343000392020913C2030913D2040913E205091F8
:103440003F200E942E0F0E94860B0E942B070E9495
:10345000C207F7011683CFCF1BBEFC0128ED24BFA6
:10346000608308955058BB27AA270ED007C2F8D111
:1034700030F0FDD120F031F49F3F11F41EF4C8C1AB
:103480000EF4E095E7FB95C1E92F09D280F3BA1756
:10349000620773078407950718F071F49EF538C228
:1034A0000EF4E0950B2EBA2FA02D0B01B90190015F
:1034B0000C01CA01A0011124FF27591B99F0593FA3
:1034C00050F4503E68F11A16F040A22F232F342FEB
:1034D0004427585FF3CF469537952795A795F04039
:1034E0005395C9F77EF41F16BA0B620B730B840B4E
:1034F000BAF09150A1F0FF0FBB1F661F771F881F06
:10350000C2F70EC0BA0F621F731F841F48F487955D
:1035100077956795B795F7959E3F08F0B3CF93954C
:10352000880F08F09927EE0F979587950895D9D1C0
:1035300080F09F3740F491110EF4EBC160E070E031
:1035400080E89FE3089526F01B16611D711D811D03
:1035500036C150C10AD108F481E008950CD08EC163
:1035600086D140F07DD130F021F45F3F19F021C1C8
:103570005111CFC14DC193D198F39923C9F355236C
:10358000B1F3951B550BBB27AA2762177307840756
:1035900038F09F5F5F4F220F331F441FAA1FA9F30C
:1035A00033D00E2E3AF0E0E830D091505040E695FE
:1035B000001CCAF729D0FE2F27D0660F771F881F5F
:1035C000BB1F261737074807AB07B0E809F0BB0B4E
:1035D000802DBF01FF2793585F4F2AF09E3F510572
:1035E00068F0E7C096C15F3FECF3983EDCF3869548
:1035F00077956795B795F7959F5FC9F7880F911DE8
:103600009695879597F90895E1E0660F771F881FD3
:10361000BB1F621773078407BA0720F0621B730B86
:10362000840BBA0BEE1F88F7E095089519F40EF09D
:10363000C0C06EC1EDC03BD1C8F39638C0F707F8E3
:103640000F92E8942BE33AEA48EB5FE72FD20F9210
:103650000F920F924DB75EB70F92E7D1ECEFF1E00A
:10366000DAD04F915F91EF91FF91E595EE1FFF1F2B
:1036700049F0FE57E0684427EE0F441FFA95E1F742
:103680004195550B59D10F9007FE4DC1089504D0B7
:103690006894B1113EC108950AD188F09F5790F007
:1036A000B92F9927B751A0F0D1F0660F771F881F67
:1036B000991F1AF0BA95C9F712C0B13081F028D11C
:1036C000B1E0089525C1672F782F8827B85F39F0BA
:1036D000B93FCCF3869577956795B395D9F73EF4C6
:1036E00090958095709561957F4F8F4F9F4F08956E
:1036F000E89409C097FB3EF490958095709561958C
:103700007F4F8F4F9F4F9923A9F0F92F96E9BB2741
:103710009395F695879577956795B795F111F8CFBD
:10372000FAF4BB0F11F460FF1BC06F5F7F4F8F4F28
:103730009F4F16C0882311F096E911C0772321F01E
:103740009EE8872F762F05C0662371F096E8862FB6
:1037500070E060E02AF09A95660F771F881FDAF70D
:10376000880F9695879597F90895990F0008550F3A
:10377000AA0BE0E8FEEF16161706E807F907C0F0F7
:1037800012161306E407F50798F0621B730B840BFF
:10379000950B39F40A2661F0232B242B252B21F4D9
:1037A00008950A2609F4A140A6958FEF811D811D79
:1037B000089597F99F6780E870E060E00895882396
:1037C00071F4772321F09850872B762F07C066235A
:1037D00011F499270DC09051862B70E060E02AF01B
:1037E0009A95660F771F881FDAF7880F9695879549
:1037F00097F908959F3F31F0915020F48795779580
:103800006795B795880F911D9695879597F90895B7
:103810009FEF80EC0895DF93CF931F930F93FF9258
:10382000EF92DF927B018C01689405C0DA2EEF01E4
:103830003BD1FE01E894A591259135914591559193
:10384000AEF3EF0121DEFE019701A801DA9479F7CA
:10385000DF90EF90FF900F911F91CF91DF9108952E
:1038600000240A941616170618060906089500245F
:103870000A9412161306140605060895092E0394D9
:10388000000C11F4882352F0BB0F40F4BF2B11F44D
:1038900060FF04C06F5F7F4F8F4F9F4F089557FDAC
:1038A0009058440F551F59F05F3F71F04795880FAE
:1038B00097FB991F61F09F3F79F087950895121645
:1038C00013061406551FF2CF4695F1DF08C01616F1
:1038D00017061806991FF1CF8695710561050894A2
:1038E0000895E5DFA0F0BEE7B91788F4BB279F383D
:1038F00060F41616B11D672F782F8827985FF7CFD1
:10390000869577956795B11D93959639C8F3089577
:10391000E894BB2766277727CB0197F9089525DF21
:1039200008F48FEF08959B01AC0160E070E080E83F
:103930009FE314CE3ECF5ECFBADFE8F39923D9F3ED
:10394000940F511DBBF39150504094F059F08823CF
:1039500032F0660F771F881F91505040C1F79E3F8D
:10396000510544F7880F911D9695879597F908950D
:103970005F3FACF0983E9CF0BB27869577956795A6
:10398000B79508F4B1609395C1F7BB0F58F711F4E0
:1039900060FFE8CF6F5F7F4F8F4F9F4FE3CFB9CF6F
:1039A0000EF028CF35CF689404CF81DFC8F3992378
:1039B000D1F3C6F3DF93CF931F930F93FF92C92FD9
:1039C000DD2788232AF02197660F771F881FDAF7F3
:1039D00020E030E040E85FEB9FE3883920F0803E54
:1039E00030F021968F773FDDE4E2F2E003C03BDD6B
:1039F000E1E5F2E010DF8B01BE01EC01FB2E6F5719
:103A000071097595771F880B990B74DE28E132E7F1
:103A100041E35FE349D0AF2D9801AE01FF900F91D4
:103A20001F91CF91DF9130DD29CFFA01DC01AA0F80
:103A3000BB1F9B01AC01BF5728F422273327442723
:103A400050781FC0B75188F4AB2F002446953795A6
:103A50002795011CA395D2F3002069F0220F331F94
:103A6000441FB395DAF30DD0FDCC61307105A0E8A9
:103A70008A07B94630F49B01AC016627772788276F
:103A80009078309621F020833183428353830895C8
:103A90000BD0F4CEE5DE28F0EADE18F0952309F02D
:103AA00088CEB6CE112435CFFADEA0F3959FD1F3A0
:103AB000950F50E0551F629FF001729FBB27F00DDC
:103AC000B11D639FAA27F00DB11DAA1F649F662731
:103AD000B00DA11D661F829F2227B00DA11D621F80
:103AE000739FB00DA11D621F839FA00D611D221F3A
:103AF000749F3327A00D611D231F849F600D211D1E
:103B0000822F762F6A2F11249F5750408AF0E1F0C0
:103B100088234AF0EE0FFF1FBB1F661F771F881F09
:103B200091505040A9F79E3F510570F042CEF1CE22
:103B30005F3FECF3983EDCF3869577956795B795F4
:103B4000F795E7959F5FC1F7FE2B880F911D96951E
:103B5000879597F90895ABDEE0F09E37D8F0963957
:103B6000B8F49E3848F4672F782F8827985FF9CFEC
:103B700086957795679593959539D0F3B62FB17063
:103B80006B0F711D811D20F487957795679593952F
:103B900016CE30CEBECE11F40EF43ACE2BCE87DE4A
:103BA000D0F39923D9F3CEF39F57550B87FF35D028
:103BB0000024A0E640EA900180585695979528F495
:103BC000805C660F771F881F20F02617370748078D
:103BD00030F4621B730B840B202931294A2BA695E4
:103BE00017940794202531254A2758F7660F771F29
:103BF000881F20F026173707480730F4620B730B35
:103C0000840B200D311D411DA09581F7B901842F32
:103C10009158880F96958795089591505040660F5A
:103C2000771F881FD2F70895FB01DC0102C00190C5
:103C30000D9241505040D8F7089503D080819927C4
:103C40000895E0ECF1E0378537FDFDCF348538602D
:103C50003487FC01E050F04F0895262FE0ECF1E0AE
:103C6000378537FDFDCF3485377F3487378531FF82
:103C700009C036E3328738ED34BF31E0338737850A
:103C800037FDFDCF33E33287808391831282248313
:103C900025E3228728ED31E024BF3387019608957C
:043CA000F894FFCFC6
:103CA4000100FEFF020103020001FEFDFF01FF000F
:103CB4000302FEFE02FD00FF01FF03FE010002FD00
:103CC4000102FFFE0000007D430400FE7F47040262
:023CD4000001ED
:00000001FF
