:100000000C94FE400C941B410C941B410C941B411E
:100010000C941B410C941B410C941B410C941B41F0
:100020000C941B410C941B410C941B410C941B41E0
:100030000C941B410C941B410C941B410C941B41D0
:100040000C941B410C941B410C941B410C941B41C0
:100050000C941B410C941B410C941B410C941B41B0
:100060000C941B410C941B410C941B410C941B41A0
:100070000C941B410C941B410C941B410C941B4190
:100080000C941B410C941B410C941B410C941B4180
:100090000C941B410C941B410C941B410C941B4170
:1000A0000C941B410C941B410C941B410C941B4160
:1000B0000C941B410C941B410C941B410C941B4150
:1000C0000C941B410C941B410C941B410C941B4140
:1000D0000C941B410C941B410C941B410C941B4130
:1000E0000C941B410C941B410C941B410C941B4120
:1000F0000C941B410C941B410C941B410C941B4110
:100100000C941B410C941B410C941B410C941B41FF
:100110000C941B410C941B410C941B410C941B41EF
:100120000C941B410C941B410C941B410C941B41DF
:100130000C941B410C941B410C941B410C941B41CF
:100140000C941B410C941B410C941B410C941B41BF
:100150000C941B410C941B410C941B410C941B41AF
:100160000C941B410C941B410C941B410C941B419F
:100170000C941B410C941B410C941B410C941B418F
:100180000C941B410C941B410C941B410C941B417F
:100190000C941B410C941B410C941B410C941B416F
:1001A0000C941B410C941B410C941B410C941B415F
:1001B0000C941B410C941B410C941B410C941B414F
:1001C0000C941B410C941B410C941B410C941B413F
:1001D0000C941B410C941B410C941B410C941B412F
:1001E0000C941B410C941B410C941B410C941B411F
:1001F0000C941B410C941B410C941B4111241FBEF9
:10020000CFEFDFE2DEBFCDBF10E2A0E0B0E2E2E977
:10021000FDE802C005900D92A030B107D9F711E2B8
:10022000A0E0B0E201C01D92A130B107E1F70E9449
:100230006B430C94C7460C9400403BB78BBFFB014B
:1002400086913BBF08953BB78BBFFB018791969189
:100250003BBF089542E097C041E095C08093C00144
:1002600088278093C1018093C20147E07CD0CB01F5
:1002700008958093C40148E076C08091D00108952C
:100280003BB748E10C94C8413BB74AE10C94C841E4
:100290003BB7882799278BBF40E20C94C8413BB7F6
:1002A0008BBFCB0142E20C94C8413BB70B0143E248
:1002B0000C94C841EE27FF2719BEDC0143E24093AE
:1002C000CA0150E82DE90D901D9020933400E89567
:1002D00032965A95C1F7112408953BB76BBFFA01C6
:1002E00019BEDC0140E04093CA0150E0879197912C
:1002F0008D939D935A95D1F73BBF08953BB78BBF24
:10030000CB0144E20C94C8413BB78BBFCB0145E223
:100310000C94C8413BB746E20C94C8413BB78BBF35
:10032000CB014AE20C94C8413BB78BBFCB014CE2F6
:100330000C94C8413BB78BBFCB014DE20C94C84134
:1003400048E311C049E30FC028ED2093340021E0B9
:100350002093CC0108952091CF0127FDFCCF2227C7
:100360002093CA0108954093CA0128ED31E02093FB
:1003700034003093CB016091C4017091C50180912C
:10038000C60199270895FC014093CA0184910895FC
:10039000FC014093CA012DE920933400E895112413
:1003A0003BBF08958627682F62956827062E6695BD
:1003B00066956025062E669560256770082E892F44
:1003C000669507946795902D8627069467959025E6
:1003D0008627089580910020823050F49091A109E1
:1003E00097FFFACF81E0809300208091A0090895C3
:1003F000FFCF90910020923060F48093A00980910B
:10040000A10986FFFCCF8091A1098064E0EAF9E0B0
:1004100081830895CF930E94EA41C82F0E94EA4148
:100420003C2F20E090E0822B932BCF910895AF9248
:10043000BF92CF92DF92EF92FF921F93CF93DF9301
:100440007C01162F5A0161E0C62E60E2D62EC0E074
:10045000D0E0CE15DF0518F40E94EA4101C08FEF0D
:10046000F60181936F012196F1E0C030DF0789F733
:100470001534C9F4F5018081918161E070E2A70132
:100480000E944346A70160E070E0F5018081918100
:10049000A281B381840F951FA61FB71F808391830C
:1004A000A283B38335C0163411F0153579F5F50103
:1004B00080819181A281B381F694E794A70160E0E5
:1004C00070E0480F591F6A1F7B1F4083518362836E
:1004D0007383163461F4BC01CD01660F771F881F4A
:1004E000991F41E050E221E00E94884511C0153576
:1004F00079F481E090E20E945A410E9440410E94BA
:10050000AB410E9444410E94AB4102C08FE301C055
:100510008DE0DF91CF911F91FF90EF90DF90CF9012
:10052000BF90AF900895AF92BF92CF92DF92EF92BB
:10053000FF920F931F93CF93DF936C01C62F7A0125
:100540005C016534E9F4FA018081918161E070E237
:10055000A6010E940846A60160E070E0F7018081D4
:100560009181A281B381840F951FA61FB71F80833D
:100570009183A283B38301E010E2C0E0D0E053C0D6
:10058000663429F0653519F0603509F04FC0F70180
:1005900080819181A281B381880F991FAA1FBB1FFF
:1005A00080839183A283B38300E010E0C63441F4DA
:1005B000F70160817181828193810E941D410EC08B
:1005C000C53531F4F701808191810E942C4106C02C
:1005D000C03551F4F70180810E942A41F801EF5F94
:1005E000FF4D80830F5F1F4F0E94AB41F701808159
:1005F0009181A281B3810196A11DB11D8083918358
:10060000A283B3830894C108D108C114D10471F640
:10061000B695A79597958795AACFF80181918F01F7
:100620000E94F9412196CA15DB05BCF3DF91CF91F9
:100630001F910F91FF90EF90DF90CF90BF90AF9000
:1006400008958F929F92AF92BF92CF92DF92EF92D6
:10065000FF920F931F93CF93DF934B015C016901CE
:100660007A01C0E0D1E000E010E022C081E0C030BB
:10067000D80781F481E090E2B501A4010E946D41A8
:1006800080E091E0A0E0B0E0880E991EAA1EBB1E9B
:10069000C0E0D0E0FE01EF5FFF4DC80160810E9425
:1006A000D2418C0121960894C108D108E108F108D3
:1006B000C114D104E104F104C9F6C801DF91CF915E
:1006C0001F910F91FF90EF90DF90CF90BF90AF9070
:1006D0009F908F9008955F926F927F928F929F92DA
:1006E000AF92BF92CF92DF92EF92FF920F931F9340
:1006F000CF93DF93CDB7DEB72597CDBFDEBF19828D
:100700001A821B821C82109200208091500084600B
:10071000809350008091510082FFFCCF8091500067
:100720008260809350008091510081FFFCCF11E0E6
:10073000109360001093680088ED84BF1093400010
:10074000E0E4F6E080E8818385830E94B146E0E63C
:10075000F6E0118382E081831683858300E0BEEF9B
:100760007B2E10E8C12E18E3D12E11E0E12EF12CE2
:1007700080E4A82E86E0B82E90E8592E6624639473
:10078000C114D104E104F10431F00894C108D10886
:10079000E108F1080AC0F50157827A94A0E8CA2E50
:1007A000A8E3DA2EA1E0EA2EF12C8091A10987FFBF
:1007B00014C01091A0091B3131F08FE30E94F94160
:1007C000133509F0A3C100FF04C0133509F09EC121
:1007D00003C01B3109F09AC10F5F0A3020F060920C
:1007E000002011E001C010E0A895112349F011E0AC
:1007F000AA24BB24F0E4EF2EF6E0FF2E00E865C14A
:10080000772009F0BDCFF4CFF70107830E94EA41BA
:10081000813611F489E555C1813429F40E940A42D8
:10082000A0E0B0E080C08834B9F40E94EA41C82E4C
:100830000E940A424C2D50E060E070E0BA0155275A
:100840004427A0E0B0E0482B592B6A2B7B2B49832F
:100850005A836B837C83DBC0853639F40E94484120
:100860000E94AB410E94A846D2C0823629F489E595
:100870000E94F94181E0BFC0823489F40E940A429B
:10088000C82EA82EB92E9D830E94EA41682F8C2D78
:100890009D81AE014F5F5F4F0E94174212C18736A4
:1008A00089F40E940A42C82EA82EB92E9D830E9468
:1008B000EA41682F8C2D9D81AE014F5F5F4F0E94F2
:1008C000934201C1823591F489819A81AB81BC81C7
:1008D000880F991FAA1FBB1FBC01CD010E94234195
:1008E000C82E892F0E94F9418C2D4BC0833629F4E4
:1008F0000E94EA41A82EBB248AC08334C9F40E9416
:10090000EA41982E8824A828B92889819A81880FDD
:10091000991FB5010E94554189819A81AB81BC81A3
:100920000196A11DB11D89839A83AB83BC836FC0DF
:100930008D36B1F489819A81AB81BC818030F0E43D
:100940009F07F0E0AF07F0E0BF0708F0B9C0BC01B7
:10095000CD01660F771F881F991F0E947E4157C0E7
:10096000843449F4C980DA800E94EA41682FC601C4
:100970000E94E74508C0843691F489819A810E94DB
:10098000C6450E94F94189819A81AB81BC8101965B
:10099000A11DB11D89839A83AB83BC8394C08C361F
:1009A00029F40E94EA410E94394131C0823719F48A
:1009B0000E943D4186C0863411F480E007C08E3429
:1009C00011F481E003C0813521F482E00E942E41C0
:1009D00078C08035E1F08C34D1F0853429F48DE095
:1009E0000E94F94110E06FC0803711F483E569C0BF
:1009F000843729F48BE70E94F94180E062C0982F88
:100A00009857923010F0843521F40E94EA418DE02D
:100A100058C08335A1F488E50E94F94182E40E9420
:100A2000F9418FE60E94F9418FE60E94F94184E77F
:100A30000E94F9418BE20E94F9418BE242C0863567
:100A400029F481E30E94F94188E33BC0833741F4F4
:100A500081E40E94F94185E90E94F9418EE131C0AB
:100A6000883661F50E94EA41823429F0863481F0AB
:100A7000813451F412C020E030E140E050E080E0E9
:100A800090E8A0E0B0E010C08FE30E94F9411DC0E3
:100A900020E030E940E050E004C020E030E840E0F1
:100AA00050E080E090E0DC01BC01CD010E942143D8
:100AB000C82E892F0E94F9418C2D03C08B3119F06B
:100AC0008FE30E94F9410E94AB41112309F09CCEB3
:100AD0000E94BD46E0E4F6E080E8828386830C94C1
:100AE000000080E090E02596CDBFDEBFDF91CF9182
:100AF0001F910F91FF90EF90DF90CF90BF90AF903C
:100B00009F908F907F906F905F90089500E06BCEE4
:100B1000CF92DF92EF92FF92CF93DF930F92CDB7F8
:100B2000DEB76B017C01CA0129830E945A412981E9
:100B3000C701B601222319F00E94844102C00E941D
:100B40007E410E94AB410F90DF91CF91FF90EF90DB
:100B5000DF90CF900895EBECF1E021E030E088EDFC
:100B600090E084BF208308958091CF0187FDFCCF62
:100B700008950E94B4458091CF0181FF06C086E3AD
:100B8000E0ECF1E082870E94AB4508950F931F933C
:100B9000CF93DF9300D0CDB7DEB789839A830E94CD
:100BA000B44500EC11E08981F80180839A819F713E
:100BB0009183128286E082870E94AB45F80184818E
:100BC0000F900F90DF91CF911F910F910895CF93C8
:100BD000DF9300D00F92CDB7DEB769838A839B8302
:100BE0000E94B945E0ECF1E023E322878A8180830B
:100BF0009B819F71918312826981648385E38287DF
:100C00000E94AB452396CDBFDEBFDF91CF91089503
:100C10009F92AF92BF92CF92DF92EF92FF920F938B
:100C20001F93CF93DF937C015B016A01E0ECF1E05D
:100C300012820E94B445CC2DDD2D00EC11E086E03F
:100C4000982E12C0E092C0018F2D8F71F801818320
:100C500092860E94AB458091C401F50181935F01AA
:100C60000894E11CF11C2197209761F7C601DF91E0
:100C7000CF911F910F91FF90EF90DF90CF90BF9099
:100C8000AF909F9008956F927F928F929F92AF92B4
:100C9000BF92CF92DF92EF92FF920F931F93CF9369
:100CA000DF930F92CDB7DEB75B01D42EC52E282F70
:100CB0002F717C01E21AF10829830E94B9450E9434
:100CC000B445E0ECF1E083E38287118212826D2C5F
:100CD0007C2C00EC11E025E3822E33E3932E298156
:100CE00022C02093C001F50181915F01F801848346
:100CF0000894610871086114710419F02F5F2032A3
:100D000091F4E092C0018F2D8F71F801818382866A
:100D10000E94AB4580E290E0E80EF91E0E94B445C7
:100D2000F801928620E061147104D9F68D2D9C2D76
:100D30000F90DF91CF911F910F91FF90EF90DF9077
:100D4000CF90BF90AF909F908F907F906F900895BD
:100D50000E94B44580E3E0ECF1E082870E94AB455D
:100D6000089588E0E0E6F6E08183E0EAF9E083E3D5
:100D70008683178288E184830895E0EAF9E014828B
:100D80001682178288E0E0E6F6E082830895F89400
:020D9000FFCF93
:00000001FF
