:020000021000EC
:100000000C94FD800C941D810C941D810C941D8119
:100010000C941D810C941D810C941D810C941D81E8
:100020000C941D810C941D810C941D810C941D81D8
:100030000C941D810C941D810C941D810C941D81C8
:100040000C941D810C941D810C941D810C941D81B8
:100050000C941D810C941D810C941D810C941D81A8
:100060000C941D810C941D810C941D810C941D8198
:100070000C941D810C941D810C941D810C941D8188
:100080000C941D810C941D810C941D810C941D8178
:100090000C941D810C941D810C941D810C941D8168
:1000A0000C941D810C941D810C941D810C941D8158
:1000B0000C941D810C941D810C941D810C941D8148
:1000C0000C941D810C941D810C941D810C941D8138
:1000D0000C941D810C941D810C941D810C941D8128
:1000E0000C941D810C941D810C941D810C941D8118
:1000F0000C941D810C941D810C941D810C941D8108
:100100000C941D810C941D810C941D810C941D81F7
:100110000C941D810C941D810C941D810C941D81E7
:100120000C941D810C941D810C941D810C941D81D7
:100130000C941D810C941D810C941D810C941D81C7
:100140000C941D810C941D810C941D810C941D81B7
:100150000C941D810C941D810C941D810C941D81A7
:100160000C941D810C941D810C941D810C941D8197
:100170000C941D810C941D810C941D810C941D8187
:100180000C941D810C941D810C941D810C941D8177
:100190000C941D810C941D810C941D810C941D8167
:1001A0000C941D810C941D810C941D810C941D8157
:1001B0000C941D810C941D810C941D810C941D8147
:1001C0000C941D810C941D810C941D810C941D8137
:1001D0000C941D810C941D810C941D810C941D8127
:1001E0000C941D810C941D8158426A016A877187A5
:1001F000A087CA87B7877387DF8711241FBECFEF19
:10020000DFE2DEBFCDBF10E2A0E0B0E2E0EDFFE054
:1002100001E00BBF02C007900D92A030B107D9F7E3
:100220001BBE11E2A0E0B0E201C01D92A230B107F6
:10023000E1F70E941C840C94E6870C9400803BB785
:100240008BBFFB0186913BBF08953BB78BBFFB0182
:10025000879196913BBF089542E097C041E095C0D9
:100260008093C00188278093C1018093C20147E039
:100270007CD0CB0108958093C40148E076C0809182
:10028000D00108953BB748E10C94CA813BB74AE1DD
:100290000C94CA813BB7882799278BBF40E20C9406
:1002A000CA813BB78BBFCB0142E20C94CA813BB7FA
:1002B0000B0143E20C94CA81EE27FF2719BEDC0133
:1002C00043E24093CA0150E82DE90D901D90209320
:1002D0003400E89532965A95C1F7112408953BB73A
:1002E0006BBFFA0119BEDC0140E04093CA0150E047
:1002F000879197918D939D935A95D1F73BBF089520
:100300003BB78BBFCB0144E20C94CA813BB78BBF98
:10031000CB0145E20C94CA813BB746E20C94CA81FA
:100320003BB78BBFCB014AE20C94CA813BB78BBF72
:10033000CB014CE20C94CA813BB78BBFCB014DE2A1
:100340000C94CA8148E311C049E30FC028ED209303
:10035000340021E02093CC0108952091CF0127FDA6
:10036000FCCF22272093CA0108954093CA0128EDAB
:1003700031E0209334003093CB016091C40170913F
:10038000C5018091C60199270895FC014093CA01D7
:1003900084910895FC014093CA012DE92093340013
:1003A000E89511243BBF08958627682F629568273A
:1003B000062E669566956025062E66956025677003
:1003C000082E892F669507946795902D86270694A9
:1003D000679590258627089580910020823050F4FB
:1003E0009091A10897FFFACF81E08093002080913F
:1003F000A0080895FFCF90910020923060F4809380
:10040000A0088091A10886FFFCCF8091A10880649C
:10041000E0EAF8E081830895CF930E94EC81C82F31
:100420000E94EC813C2F20E090E0822B932BCF9117
:100430000895E2E0F0E28FEF819391E2E230F90774
:10044000D9F70895AF92BF92CF92DF92EF92FF92C9
:100450001F93CF93DF937C01162F5A0162E0C62EC3
:1004600060E2D62EC0E0D0E0CE15DF0518F40E9481
:10047000EC8101C08FEFF60181936F012196F1E0CD
:10048000C030DF0789F71534C9F4F5018081918107
:1004900062E070E2A7010E94E586A70160E070E0DB
:1004A000F50180819181A281B381840F951FA61FE0
:1004B000B71F80839183A283B38335C0163411F0B4
:1004C000153579F5F50180819181A281B381F6948A
:1004D000E794A70160E070E0480F591F6A1F7B1F77
:1004E0004083518362837383163461F4BC01CD0170
:1004F000660F771F881F991F42E050E221E00E949B
:100500002A8611C0153579F482E090E20E945C8160
:100510000E9442810E94AD810E9446810E94AD816D
:1005200002C08FE301C08DE0DF91CF911F91FF905A
:10053000EF90DF90CF90BF90AF900895AF92BF92B1
:10054000CF92DF92EF92FF920F931F93CF93DF939F
:100550006C01C62F7A015C016534A9F4FA0180812F
:10056000918162E070E2A6010E94AA86A60160E085
:1005700070E0F70180819181A281B381840F951F82
:10058000A61FB71F4CC0663429F0653519F06035D9
:1005900009F070C0F70180819181A281B381880F39
:1005A000991FAA1FBB1F80839183A283B38300E09E
:1005B00010E0C63441F4F70160817181828193813A
:1005C0000E941F810EC0C53531F4F70180819181F1
:1005D0000E942E8106C0C03551F4F70180810E942F
:1005E0002C81F801EE5FFF4D80830F5F1F4F0E944B
:1005F000AD81F70180819181A281B3810196A11D16
:10060000B11D80839183A283B3830894C108D1086C
:10061000C114D10471F6B695A795979587958083F7
:100620009183A283B38380910120882321F08C2FB2
:100630008554823078F0F70180819181A281B38165
:100640008030F0E89F07F0E0AF07F0E0BF0720F050
:10065000C63411F40E94198202E010E2C0E0D0E03A
:1006600006C0F80181918F010E94FB812196CA1575
:10067000DB05BCF3DF91CF911F910F91FF90EF90BD
:10068000DF90CF90BF90AF9008958F929F92AF92DE
:10069000BF92CF92DF92EF92FF920F931F93CF936F
:1006A000DF934B015C0169017A01C0E0D1E000E019
:1006B00010E022C081E0C030D80781F482E090E2EF
:1006C000B501A4010E946F8180E091E0A0E0B0E05C
:1006D000880E991EAA1EBB1EC0E0D0E0FE01EE5F90
:1006E000FF4DC80160810E94D4818C01219608943D
:1006F000C108D108E108F108C114D104E104F104F2
:10070000C9F6C801DF91CF911F910F91FF90EF9033
:10071000DF90CF90BF90AF909F908F900895CF9231
:10072000DF92EF92FF920F931F93CF93DF9382E0BC
:1007300090E240E05FEF60E070E00E946F818091A6
:10074000FC20883509F06FC08091FD20823409F0CB
:100750006AC08091FE20893409F065C08091FF2035
:10076000863409F060C09091002180E0C0900121A2
:10077000DD24C82AD92A60E070E880E090E02AEF02
:100780003FE740E050E00E944583C6E0D0E06FEFD5
:100790000E94D4812197D9F7C816D90609F041C023
:1007A000CC24DD24760100E016E0D1E0CFEFD801C3
:1007B0001796DC93B701A601405050486F4F7F4F0A
:1007C00082E090E20E946F81B0E0CB16BFE7DB06CB
:1007D000B0E0EB06B0E0FB0661F4C093FC20C093F0
:1007E000FD20C093FE20C093FF20C0930021C09342
:1007F0000121C701B60142E050E221E00E942A86B1
:1008000080E091E0A0E0B0E0C80ED91EEA1EFB1E19
:1008100090E0C91690E8D90690E0E90690E0F90664
:1008200031F60E947387DF91CF911F910F91FF9056
:10083000EF90DF90CF9008958F929F92AF92BF92EA
:10084000DF92EF92FF920F931F93CF93DF93CDB779
:10085000DEB72597CDBFDEBF19821A821B821C82AC
:1008600081E08093012010920020809150008460EC
:10087000809350008091510082FFFCCF81E08093F3
:10088000600080936800E0E0F6E0818385830E9449
:10089000538788E1E0E4F6E0828B2091002036E087
:1008A00080E395E7A0E0B0E0E0E0F6E041E000970B
:1008B000A105B10521F00197A109B10906C047833F
:1008C000315080E395E7A0E0B0E05091A10857FFD8
:1008D00003C021E001E001C000E0A895002359F029
:1008E0002093002001E0EE24FF24A12C46E0B42E4A
:1008F000DD24D3948DC13323D1F620930020F3CF90
:10090000F501D7820E94EC81813611F489E57BC123
:10091000813429F40E940C82A0E0B0E089C08834C0
:10092000B9F40E94EC81082F0E940C82402F50E005
:1009300060E070E0BA0155274427A0E0B0E0482B02
:10094000592B6A2B7B2B49835A836B837C830AC088
:10095000853651F40E944A810E94AD810E944A87E7
:10096000109201208DE04FC1823629F489E50E9462
:10097000FB8181E0CBC0823489F40E940C82082F75
:10098000E82EF92E9D830E94EC81682F802F9D8197
:10099000AE014F5F5F4F0E94228235C1873689F4D6
:1009A0000E940C82082FE82EF92E9D830E94EC8174
:1009B000682F802F9D81AE014F5F5F4F0E949E8206
:1009C00024C18235C1F489819A81AB81BC81880FB1
:1009D000991FAA1FBB1FBC01CD010E9425818C015C
:1009E00080910120882311F00FEF1FEF812F0E94CB
:1009F000FB81802F4FC0833629F40E94EC81E82EC2
:100A0000FF24B0CF8334C9F40E94EC81982E88244F
:100A1000E828F92889819A81880F991FB7010E94D7
:100A2000578189819A81AB81BC810196A11DB11D3D
:100A300089839A83AB83BC8395CF8D36B1F489814A
:100A40009A81AB81BC818030F0E89F07F0E0AF076E
:100A5000F0E0BF0708F0D6C0BC01CD01660F771FDC
:100A6000881F991F0E9480817DCF843449F40981B9
:100A70001A810E94EC81682FC8010E9489860CC0EF
:100A80008436B1F489819A810E9468869091012010
:100A900091118FEF0E94FB8189819A81AB81BC818A
:100AA0000196A11DB11D89839A83AB83BC83ADC020
:100AB0008C3629F40E94EC810E943B8153CF82370F
:100AC00019F40E943F819FC0863411F480E007C072
:100AD0008E3411F481E003C0813521F482E00E945C
:100AE000308191C0803509F43DCF8C3409F43ACF80
:100AF000853429F48DE00E94FB8100E087C08037B7
:100B000011F483E580C0843729F48BE70E94FB81D0
:100B100080E079C0982F9857923010F0843519F4FE
:100B20000E94EC811FCF8335A1F488E50E94FB81F0
:100B300082E40E94FB818FE60E94FB818FE60E9487
:100B4000FB8184E70E94FB818BE20E94FB818BE2A8
:100B50005AC0863529F481E30E94FB8188E353C0A3
:100B6000833741F482E40E94FB8186E90E94FB8185
:100B70008EE149C0883609F043C00E94EC8186347A
:100B800039F1873428F4813441F18234E9F405C025
:100B9000813661F08437C1F40EC000E010E120E03E
:100BA00030E080E090E0A1E0B0E01EC000E010E89E
:100BB00020E030E016C000E010E820E030E080E007
:100BC00090E8A0E0B0E010C08FE30E94FB8198CED7
:100BD00000E010E121E030E004C000E010E021E09E
:100BE00030E080E090E0DC01BC01CD01A90198017A
:100BF0000E944583082F892F0E94FB81802F03C00C
:100C00008B3119F08FE30E94FB8101E00E94AD81DE
:100C1000002309F075CE0E948F830E946087E0E474
:100C2000F6E0128AE0E0F6E081E0828386830C94AD
:100C3000000080E090E02596CDBFDEBFDF91CF9130
:100C40001F910F91FF90EF90DF90BF90AF909F901A
:100C50008F900895CF92DF92EF92FF92CF93DF9320
:100C60000F92CDB7DEB76B017C01CA0129830E94C8
:100C70005C812981C701B601222319F00E94868177
:100C800002C00E9480810E94AD810F90DF91CF91C0
:100C9000FF90EF90DF90CF900895EBECF1E021E032
:100CA00030E088ED90E084BF208308958091CF01EB
:100CB00087FDFCCF08950E9456868091CF0181FF69
:100CC00006C086E3E0ECF1E082870E944D8608953D
:100CD0000F931F93CF93DF9300D0CDB7DEB78983F7
:100CE0009A830E94568600EC11E08981F801808386
:100CF0009A819F719183128286E082870E944D863D
:100D0000F80184810F900F90DF91CF911F910F9187
:100D10000895CF93DF9300D00F92CDB7DEB76983EC
:100D20008A839B830E945B86E0ECF1E023E32287C9
:100D30008A8180839B819F71918312826981648300
:100D400085E382870E944D862396CDBFDEBFDF916B
:100D5000CF9108959F92AF92BF92CF92DF92EF9280
:100D6000FF920F931F93CF93DF937C015B016A0186
:100D7000E0ECF1E012820E945686CC2DDD2D00ECD5
:100D800011E086E0982E12C0E092C0018F2D8F7185
:100D9000F801818392860E944D868091C401F501FD
:100DA00081935F010894E11CF11C2197209761F762
:100DB000C601DF91CF911F910F91FF90EF90DF90CF
:100DC000CF90BF90AF909F9008956F927F928F9237
:100DD0009F92AF92BF92CF92DF92EF92FF920F93CA
:100DE0001F93CF93DF930F92CDB7DEB75B01D42E65
:100DF000C52E282F2F717C01E21AF10829830E9449
:100E00005B860E945686E0ECF1E083E382871182E4
:100E100012826D2C7C2C00EC11E025E3822E33E352
:100E2000932E298122C02093C001F50181915F0199
:100E3000F80184830894610871086114710419F041
:100E40002F5F203291F4E092C0018F2D8F71F80155
:100E5000818382860E944D8680E290E0E80EF91E32
:100E60000E945686F801928620E061147104D9F63A
:100E70008D2D9C2D0F90DF91CF911F910F91FF90A1
:100E8000EF90DF90CF90BF90AF909F908F907F902A
:100E90006F9008950E94568680E3E0ECF1E082872F
:100EA0000E944D86089588E0E0E4F6E08183E0EA60
:100EB000F8E083E1868380EC87838CE18483089566
:100EC000E0EAF8E014821682178288E0E0E4F6E0B7
:100ED0008283089528E031E0FC012083318380E0A3
:100EE000089582E00895CF92DF92EF92FF92CF9320
:100EF000CFB7F894C12C80E8D82EE12CF12CC70193
:100F0000B6010E9451810E94AD8180E091E0A0E095
:100F1000B0E0C80ED91EEA1EFB1E90E0C91690E094
:100F2000D90691E0E90690E0F90649F71092CA0166
:100F3000CFBF80E0CF91FF90EF90DF90CF900895EA
:100F4000CF93CFB7613020E0720721E0820720E025
:100F5000920750F4F8940E9451810E94AD81109242
:100F6000CA01CFBF80E001C083E0CF910895CF9345
:100F7000CFB7F8940E945C810E9442810E94AD81AB
:100F80000E9446810E94AD811092CA01CFBF80E0CD
:100F9000CF910895CF93CFB7613030E0730731E040
:100FA000830730E0930740F4F8940E942A86109259
:100FB000CA01CFBF80E001C083E0CF9108956050A7
:100FC00070488F4F9F4F0E94CA870895F894FFCFB3
:0400000310000000E9
:00000001FF
