:100000000C94FE000C941B010C941B010C941B011E
:100010000C941B010C941B010C9478030C94DD03CD
:100020000C941B010C941B010C941B010C941B01E0
:100030000C941B010C941B010C940F030C941B01DA
:100040000C941B010C941B010C941B010C941B01C0
:100050000C94C7090C941B010C941B010C941B01FC
:100060000C941B010C941B010C941B010C941B01A0
:100070000C941B010C941B010C941B010C941B0190
:100080000C941B010C941B010C941B010C941B0180
:100090000C941B010C941B010C941B010C941B0170
:1000A0000C941B010C941B010C941B010C941B0160
:1000B0000C941B010C941B010C941B010C941B0150
:1000C0000C941B010C941B010C941B010C941B0140
:1000D0000C941B010C941B010C941B010C941B0130
:1000E0000C941B010C941B010C941B010C941B0120
:1000F0000C94A3030C941B010C941B010C941B0186
:100100000C941B010C941B010C941B010C941B01FF
:100110000C941B010C941B010C941B010C941B01EF
:100120000C941B010C941B010C941B010C941B01DF
:100130000C941B010C941B010C941B010C941B01CF
:100140000C941B010C941B010C941B010C941B01BF
:100150000C941B010C941B010C941B010C941B01AF
:100160000C94C2020C941B010C94C5030C941B014B
:100170000C941B010C941B010C941B010C941B018F
:100180000C941B010C941B010C941B010C941B017F
:100190000C941B010C941B010C941B010C941B016F
:1001A0000C941B010C941B010C941B010C941B015F
:1001B0000C941B010C941B010C941B010C941B014F
:1001C0000C941B010C941B010C941B010C941B013F
:1001D0000C941B010C941B010C941B010C941B012F
:1001E0000C941B010C941B010C941B010C941B011F
:1001F0000C941B010C941B010C941B0111241FBEB9
:10020000CFEFDFE2DEBFCDBF10E2A0E0B0E2EEEF65
:10021000F9E102C005900D92A230B107D9F712E2C0
:10022000A2E0B0E201C01D92A132B107E1F70E9445
:100230002A0C0C94FD0C0C94000090E8E0E0F6E031
:100240009683E0ECF9E0838302C08091C30980913A
:10025000C20987FFFACFE0ECF9E0638302C0809126
:10026000C3098091C20987FFFACF80E8E0E0F6E099
:1002700085830895E0E0F6E080E885838183E0E609
:10028000F6E080E4828380EB8183E0ECF9E0118288
:100290008DED808308958DE268E00E941D0181E369
:1002A0006FE00E941D01089520E8E0E0F6E026835B
:1002B00022EFE0ECF9E023832091C20927FFFCCF75
:1002C000FC0186E0A0ECB9E013961C921397909184
:1002D000C20997FFFCCF9091C30991938150A1F778
:1002E00080E8E0E0F6E085830895FC0188E08093F3
:1002F000210280E18093290288E18093310280E22B
:1003000080933902000000008DE380930002809109
:10031000060283FFFCCF8091060282FFFCCF809112
:10032000060281FFFCCF8091060280FFFCCF809106
:10033000100290911102808391838091120290911A
:100340001302828393838091140290911502848317
:1003500095838091160290911702868397838FE090
:10036000A0E0B2E016968C93169788E28093210263
:1003700080E38093290288E380933102000000002B
:100380008DE1809300028091060282FFFCCF809174
:10039000060281FFFCCF8091060280FFFCCF809196
:1003A00010029091110280879187809112029091A2
:1003B000130282879387809114029091150284879B
:1003C000958787E0E0E0F2E086830895CF93DF939E
:1003D000AAECB1E082E08C93E0E2F0E0E4911C92C0
:1003E000C0E0D2E0EC878C93E1E2F0E0E4911C9273
:1003F000ED878C8320E22A8381E08093200298E0BD
:1004000090932102109222028093280290E190930F
:10041000290210922A028093300238E1309331028F
:1004200010923202809338022093390210923A02DD
:1004300099838883DF91CF9108950F93FC01DA01AE
:10044000002311F088ED01C08DE8828381E086836E
:10045000002331F0A487B58716862087318705C031
:10046000248735871686A087B18712866383002389
:1004700059F080E1818380E411968C93119784E098
:1004800013968C93139702C081E181830F91089595
:100490000F93F894882321F0813009F070C034C0A4
:1004A0008091210187FF05C0809120018F77809383
:1004B00020011092862010920520662399F480E294
:1004C00091E06BE640EA59E02EE030E200E00E9465
:1004D0001D028091A3098061E0EAF9E08383109214
:1004E00000204DC080E4E0EAF9E0818380E291E001
:1004F0006CE640EA59E027E030E201E00E941D028C
:1005000081E0809300203BC08091110187FF06C0ED
:10051000809110018F77E0E0F1E0808B10928A20CB
:1005200010928B20109287206623B1F480E191E035
:100530006BE840EA5AE025E031E200E00E941D024B
:1005400087E090E0E0E1F1E08483958384E88093A4
:10055000100110928C2013C0E0EAFAE080E481835D
:1005600084E0838380E191E06CE840EA5AE02EE881
:1005700030E201E00E941D0281E080938C2078949B
:100580000F9108951F920F920FB60F9211240F939F
:100590002F933F934F935F936F937F938F939F938B
:1005A000AF93BF93CF93EF93FF938091A10988718D
:1005B00019F08091A00920C0C091A0098C2F835010
:1005C0008537D0F480E291E06BE640EA59E02FE015
:1005D00030E200E00E941D028C2F90E0E0E2F1E0AA
:1005E0008483958384E880932001C0930E20E0EA01
:1005F000F9E0138210920520FF91EF91CF91BF9106
:10060000AF919F918F917F916F915F914F913F91AA
:100610002F910F910F900FBE0F901F9018951F9262
:100620000F920FB60F9211248F9381E080930220D6
:100630008F910F900FBE0F901F9018950F93809180
:100640000220882309F452C01092022080918C204D
:10065000813019F4109287202FC08091110187FDFD
:1006600004C08091100187FD05C0809187208F5FB5
:1006700080938720809187208330F0F0E0E0F1E0E4
:10068000108A8091100187FDFCCF80E4E0E0F1E06A
:10069000808B80E191E06BE840EA5AE025E031E2AE
:1006A00000E00E941D0287E090E0E0E1F1E0848339
:1006B000958384E88093100180910020813019F4A3
:1006C0001092052013C080910520982F9F5F909372
:1006D00005208F3158F081E080930320809304201F
:1006E0001092052010920620109286200F910895F6
:1006F0001F920F920FB60F9211248F939F93EF9337
:10070000FF938091110185FD15C08091110184FF37
:1007100011C0809111018061E0E0F1E0818B1092C5
:10072000872081E08093032081E090E080938A20FD
:1007300090938B20FF91EF919F918F910F900FBE1F
:100740000F901F9018951F920F920FB60F921124C1
:100750008F939F93EF93FF931092872081E0809374
:10076000032081E090E08093882090938920E0EA44
:10077000FAE0138280E48183FF91EF919F918F9142
:100780000F900FBE0F901F9018951F920F920FB6EB
:100790000F9211248F93EF93FF931092002080E12A
:1007A000E0EAF9E0838310920520FF91EF918F91A9
:1007B0000F900FBE0F901F9018951F920F920FB6BB
:1007C0000F9211248F93EF93FF93E0E2F1E0809179
:1007D000210185FF05C0809121018062818310C0C5
:1007E0008091210184FF0CC080912101806181836F
:1007F00080910E208F5F8093862081E0809303207C
:10080000FF91EF918F910F900FBE0F901F90189551
:10081000FC0120E030E080E004C09191890F2F5F5F
:100820003F4F26173707CCF390E0909581959F4F67
:1008300008950F931F93CF93DF9360918620CEE0AE
:10084000D0E2CE0170E00E9408040097B1F18091DF
:1008500013219091142101968093132190931421D8
:1008600083E080938D208091062180938E2081E00B
:1008700080938F208DE890E263E070E00E9408048E
:1008800080939020E0EAFAE0138280918D2080939B
:10089000A00A80E48A95F1F780E4818384E0838371
:1008A00080E191E06CE840EA5AE02EE830E201E0B5
:1008B0000E941D0283E090E026C0409186200DE852
:1008C00010E2C801BE0150E00E94C10CE0EAFAE06B
:1008D000138280918D208093A00A80E48A95F1F79D
:1008E00080E4818384E0838380E191E06CE840EAE6
:1008F0005AE098012F5F3F4F01E00E941D02809156
:10090000862090E00197E0E1F1E08483958384E81C
:100910008093100110928620DF91CF911F910F914B
:100920000895E0EAFAE01682178293E095838481C5
:1009300088618483E0EAF9E080E18383168217828C
:10094000958384818861848380E88093000180E0BE
:1009500061E00E94480281E060E00E944802E0E01D
:10096000F8E0118212821382148280E190E086AB5B
:1009700097AB81E0868387E0808308950F93CF93C0
:100980000E944509F89410920320789480910C21DC
:10099000882321F0813009F048C1FFC08091862072
:1009A0008823A1F080910620882381F010920620F0
:1009B00081E080930C2180918C20882321F481E0B8
:1009C00061E00E9448020E9419040CC080918620B8
:1009D000882361F081E060E00E94480280E061E0ED
:1009E0000E944802F8941092042078948091042088
:1009F000882329F1F8941092042078941092200111
:100A00008091200187FDFCCFC0E4C093200180E2EB
:100A100091E06CE640EA59E027E030E201E00E9414
:100A20001D02E0EAF9E0C18381E080930020138297
:100A300080918C20813019F460E00E9448028091FE
:100A40008A2090918B20009709F4EFC0F8941092BF
:100A50008A2010928B20789485E091E267E070E024
:100A60000E9408040097D9F18091112190911221E0
:100A70000196809311219093122183E080938D2021
:100A80008091062180938E20C1E0C0938F208DE855
:100A900090E263E070E00E9408048093902081E07F
:100AA00061E00E944802E0EAFAE0138280918D2022
:100AB0008093A00A80E48A95F1F780E4818384E042
:100AC000838383E090E0E0E1F1E08483958384E830
:100AD00080931001C0930C2110920620A6C0809133
:100AE000052190E08F709070009719F1A7E0B0E2B7
:100AF000E5E0F1E287E001900D928150E1F780910D
:100B0000072081508093072080910D208F5F809374
:100B10000D2080E061E00E94480287E090E0E0E282
:100B2000F1E08483958384E88093200181E08093C1
:100B3000062080910521807F803F41F08091052132
:100B400090E08F709070009709F06FC085E091E29F
:100B50006DE870E20E94F807C82F81E061E00E9412
:100B60004802E0EAFAE0138280918D208093A00A87
:100B700080E48A95F1F780E4818384E083838C2F7D
:100B800090E00197E0E1F1E08483958384E880932D
:100B9000100181E080930C2148C0809104208823BB
:100BA000F1F0F89410920420789410922001809132
:100BB000200187FDFCCFC0E4C093200180E291E0DA
:100BC0006CE640EA59E027E030E201E00E941D02B5
:100BD000E0EAF9E0C18381E08093002013828091F4
:100BE000882090918920009701F1F8941092882034
:100BF00010928920789480918620882361F08091DA
:100C00000620882341F01092062081E080930C2179
:100C10000E9419040AC08091062010920C2188239A
:100C200021F481E060E00E944802CF910F91089585
:100C3000E0ECF8E011828AED808308950E941806A6
:100C40008AE08A95F1F700C08CE1E0E4F6E0858364
:100C500080E4E0E0F6E0868385E38A95F1F7000022
:100C6000E0ECF8E013828091C20887FFFCCF20916E
:100C7000C308E0ECF8E013828091C20887FFFCCF44
:100C80008091C30890E4E0E0F6E095839CE1E0E425
:100C9000F6E0968382958695877090E030E043E099
:100CA000220F331F4A95E1F7287F3370822B932B55
:100CB00008950E941E069C0180910D2190910E21A5
:100CC000AC0141505C4F421B530BDC01A21BB30B28
:100CD0008F5F9340821B930BBA0157FF04C06627B6
:100CE0007727641B750BFD01B7FF04C0EE27FF27B4
:100CF000EA1BFB0B9C016E177F0754F497FF04C09F
:100D000022273327281B390B6217730764F40CC0A2
:100D100097FF04C022273327281B390BE217F3075C
:100D200014F4AD0101C0AC01CA010895E0E0F6E0A1
:100D300080EE84838083E0E2F6E08FE0848380832A
:100D4000E0E4F6E08DE1848383EA8083E0E6F6E088
:100D500082E084839BEB9083E0E8F6E084838AE082
:100D60008083E0EEF7E01482108208950E949606D8
:100D70000895EF92FF920F931F93CF93DF930F92FB
:100D8000CDB7DEB7E82EFF24EE0CFF1CEE0CFF1CE7
:100D90008B0120E0C70129830E94CA0CF8018193CE
:100DA0008F0129812F5F0894E11CF11C243091F7F9
:100DB0000F90DF91CF911F910F91FF90EF900895C9
:100DC000EF92FF920F931F93CF93DF930F92CDB7C4
:100DD000DEB78B01E82EFF24EE0CFF1CEE0CFF1C8F
:100DE00020E0F80161918F01C70129830E94DA0C8C
:100DF00029812F5F0894E11CF11C243091F70F909A
:100E0000DF91CF911F910F91FF90EF900895E0E453
:100E1000F6E084818E7F84830895E0E4F6E08481A7
:100E2000816084830895CF93DF9300D000D0CDB745
:100E3000DEB719821A821B821C828FE1BE016F5FAE
:100E40007F4F0E94B90689819A81AB81BC8100974E
:100E5000A105B10519F00E94070702C00E940D0705
:100E60008CE1BE016F5F7F4F0E94B90689819A8134
:100E700080930D2190930E212496CDBFDEBFDF918C
:100E8000CF910895CF93DF93CDB7DEB7A097CDBFB5
:100E9000DEBFF89410920001E0EAF9E0138220919D
:100EA000A40928612483FC0180E090E02091A1093D
:100EB00025FFFCCF21912093A00901968730910551
:100EC000A9F78091A10985FFFCCF80E4E0EAF9E071
:100ED0008183E0EAF9E08091A10986FFFACFA0EAD8
:100EE000BAE013961C92139725EC16962C9316973E
:100EF0009CEA17969C93179788E114968C9313821B
:100F000026839783848310E000E0FF24EE2480E0B2
:100F100090E0DC01CC24DD240196A11DB11D8139B6
:100F20002FE5920721E0A20720E0B20788F008949D
:100F3000C11CD11CC601837090708330910519F4D7
:100F40000E94070702C00E940D0780E090E0DC01CC
:100F50002091A10927FF0CC02091A009E1E1F0E058
:100F6000EC0FFD1FEE0DF11D2083E3942FE0E22234
:100F70002091A10A27FF0BC02091A00AE1E0F0E038
:100F8000EC0FFD1FE00FF11D20830F5F0F70EF14BA
:100F900081F02091A10A25FF0CC0E1E1F0E0EC0F07
:100FA000FD1FEF0DF11D20812093A00AF3942FE087
:100FB000F222011779F02091A10925FF0BC0E1E091
:100FC000F0E0EC0FFD1FE10FF11D20812093A0093F
:100FD0001F5F1F7028ECC216D1040CF49DCF93E064
:100FE00088ED08B684BF90938000A89508BEFFCF17
:100FF000CF92DF92EF92FF920F931F93CF93DF93E5
:10100000CDB7DEB76897CDBFDEBF8C016B01FC01A9
:101010008181982F907F903809F496C0913848F4D8
:10102000903609F491C0903709F48EC0992359F095
:1010300011C1903B09F4FEC0903C09F4BFC0903947
:1010400009F008C181C0F801E280F380C701807017
:101050009075009721F0CE010B960E947501F7FE66
:101060000FC0CE0105960E945401F6013396DE01B1
:10107000159686E00D9001928150E1F706E001C0DF
:1010800000E0F6FE0DC0E02FF0E03396EC0DFD1D04
:10109000DE01539686E00D9001928150E1F70A5FE0
:1010A000F4FE0DC0E02FF0E03396EC0DFD1DDE01E7
:1010B0001B9688E00D9001928150E1F7085FF3FEE6
:1010C00008C00E945906F601E00FF11D8383948346
:1010D0000E5FF1FE12C040910120802F90E0039638
:1010E0008C0D9D1D50E0440F551F65E571E20E9477
:1010F000C10C80910120880F080FE1FE10C0F6019D
:10110000E00FF11D8091112190911221A0911321E6
:10111000B091142183839483A583B6830C5F802FC1
:101120008D5FF60180831182128210E0B8016D5F3D
:101130007F4F7601E60EF71EC6010E940804F701F4
:101140008083C801049695C08F71903751F0913714
:1011500018F4903659F505C09038D1F0903931F532
:1011600017C0B6016D5F7F4F0E94B90687E0F60198
:101170008083F8018181F60181831282C60167E0D4
:1011800070E00E940804F601878388E090E071C057
:10119000B8016E5F7F4F0E94E0060E94130783E054
:1011A000F6018083F8018181F60141C083E0F601F8
:1011B0008083F8018181F601818350C0F80142816A
:1011C000538151FF10C0A5E5B1E2E9EDF1E260E025
:1011D0002D913D9180819181820F931F81939193F5
:1011E0006F5F6C30A9F741FF08C010921121109277
:1011F0001221109213211092142153FF14C00E9447
:101200001E0680930D2190930E21AA2797FDA0958D
:10121000BA2F89839A83AB83BC838CE1BE016F5F55
:101220007F4F0E94E00683E0F601808380EC81839B
:10123000128216C0F80182818F7019F0C8010E94D5
:10124000420793E088ED08B684BF90938000A8958C
:1012500008BEFFCF83E0F6018083918382E0828322
:10126000C60163E070E00E940804F601838384E015
:1012700090E06896CDBFDEBFDF91CF911F910F91B7
:10128000FF90EF90DF90CF90089581E0E0E4F6E0EA
:1012900087830895FB01A0ECB8E013968C93139715
:1012A0009091C20897FFFCCF9091C308A0ECB8E0E2
:1012B00013961C9213979091C20897FFFCCF9091C0
:1012C000C308108291838E5FA0ECB8E013968C93D4
:1012D00013978091C20887FFFCCF8091C308A0ECD0
:1012E000B8E013961C9213978091C20887FFFCCF39
:1012F0002091C30830E080819181822B932B8083E1
:101300009183089580E6E0E0F6E085838FE0E0E2F7
:10131000F6E08583E0E4F6E082E085838CE1868375
:101320000895843091F0843028F0853091F08C302D
:1013300020F514C021E030E002C0220F331F8A954F
:10134000E2F7E0E2F6E026831BC082E0E0E4F6E0AC
:1013500003C080E2E0E0F6E0868312C08550880F8B
:10136000880FE0E4F6E0858380E4E0E0F6E0868341
:1013700085E38A95F1F7000003C00E948209089571
:101380008091C20887FF02C08091C30808951F9210
:101390000F920FB60F9211248F9381E0809310214A
:1013A000109240088F910F900FBE0F901F901895CC
:1013B000E0ECF8E0118280E5808308956F927F92DF
:1013C0008F929F92AF92BF92CF92DF92EF92FF9255
:1013D0000F931F93CF93DF938DE6682E81E2782ED3
:1013E000A5E5B1E2C9EDD1E229E731E245E251E2FA
:1013F00069E072E201E911E299EAE92E91E2F92E3F
:10140000EDE3CE2EE1E2DE2EF1ECAF2EF1E2BF2EC7
:1014100081EF882E81E2982E8CE0F30111923F013A
:101420001D921D9219921992F901119211929F0128
:10143000FA0111921192AF01FB0111921192BF01B9
:10144000F801119211928F01F701119211927F010F
:10145000F601119211926F01F501119211925F0143
:10146000F401119211924F018150B9F6DF91CF91A1
:101470001F910F91FF90EF90DF90CF90BF90AF90B2
:101480009F908F907F906F900895EF92FF921F939F
:10149000CF93DF930E94820910E020ECE22E28E037
:1014A000F22E2AC0812F0E949109C12FD0E0CC0FCB
:1014B000DD1FBE0167587E4D88E80E944A09BE01C3
:1014C0006B5D7E4D8CE80E944A09BE01675F7D4DD1
:1014D00080E90E944A09BE016F567E4D88E80E944D
:1014E0004A09F70113828091C20887FFFCCF8091DF
:1014F000C3080E9482091F5F80910120181790F293
:10150000E0E4F8E0118212821382148280E690E017
:1015100086AB97AB10A211A281E0868387E080930F
:101520004008DF91CF911F91FF90EF9008958F9227
:101530009F92AF92BF92CF92DF92EF92FF920F9362
:101540001F93CF93DF9326E0769567952A95E1F771
:101550004C0136E0969487943A95E1F7042F10E019
:10156000D801A359BE4D2C91C801880F991F222381
:1015700061F4FC01EF53FE4D60837183FC01EF5079
:10158000FE4D6083718321E02C93DC01AF53BE4D8F
:101590004D915C9111979B01241B350BE901C150C2
:1015A000DE4FFC01EF50FE4D83E0CF3FD80730F413
:1015B0006D937C9311978081918111C0461B570BCD
:1015C00040505C4F20503C4F6D937C93119780812D
:1015D0009181421753071CF4841B950B02C0820FA4
:1015E000931F80839183AA24BB24E801CC0FDD1FC5
:1015F000FE01EF56FE4D60817181882777FD809551
:10160000982FA50194010E94A20CAB01BC01FE0120
:10161000EB5DFE4D80819181AA2797FDA095BA2FA1
:10162000072E7BE0880F991FAA1FBB1F7A95D1F761
:10163000702D840F951FA61FB71F072E7BE0B59551
:10164000A795979587957A95D1F7702DFE01EF5064
:10165000FE4D20813181442737FD4095542FBC0138
:10166000CD010E94A20CDC01CB01FE01E758FE4D2A
:10167000C080D180EE24D7FCE094FE2C0B2EBAE083
:10168000CC0CDD1CEE1CFF1CBA95D1F7B02DC80E9A
:10169000D91EEA1EFB1E0B2EBAE0F594E794D794F0
:1016A000C794BA95D1F7B02DFE01E75FFD4D60817B
:1016B0007181882777FD8095982FA50194010E945C
:1016C000A20CDC01CB01FE01EB5AFE4D0B2EBBE060
:1016D000CC0CDD1CEE1CFF1CBA95D1F7B02DC80E4A
:1016E000D91EEA1EFB1E0B2EBEE0F594E794D7949C
:1016F000C794BA95D1F7B02DC752DE4D8881998134
:10170000C81AD90AC082D182DF91CF911F910F915F
:10171000FF90EF90DF90CF90BF90AF909F908F9011
:101720000895CF92DF92EF92FF920F931F93CF9382
:10173000DF9300D000D0CDB7DEB70E9482090E94AF
:10174000D80900910F21809101200817E0F1F89449
:1017500010921021DD2400EC18E064E2C62E70EC3B
:10176000E72E78E0F72E16C08D2D0E949109F80122
:10177000C3828091C20887FFFCCF8091C308F70124
:1017800013828091C20887FFFCCF8091C3080E941A
:101790008209D39480910120D81630F3E0E4F8E078
:1017A000118212821382148280E690E086AB97AB9E
:1017B00010A211A281E0868387E0809340081092F6
:1017C0000F2178943BC0802F0E94910980E8BE01D0
:1017D0006D5F7F4F0E944A0984E8BE016F5F7F4FB3
:1017E0000E944A09E0ECF8E013828091C20887FF6A
:1017F000FCCF8091C3080E9482096B817C816115B6
:101800007105B9F089819A81402F0E94970A802F33
:1018100090E0880F991FFC01E35CFE4D29813A811D
:101820002083318387559E4D2B813C81FC01208391
:10183000318380910F218F5F80930F212496CDBF3C
:10184000DEBFDF91CF911F910F91FF90EF90DF905E
:10185000CF900895CF93DF9300D000D0CDB7DEB7FF
:10186000F8948FE39FE10197F1F700C0000086E054
:10187000809350008091510081FFFCCF80915100F6
:1018800082FFFCCF81E0809360008093680098ED38
:1018900094BF8093400085E0E0E4F0E083838FE331
:1018A0009FE10197F1F700C000000E9496060E9498
:1018B00007070E94E6010E9491040E94DE098091C0
:1018C000A2008160E0EAF0E0828378940E94D80967
:1018D0000E94450A0E943A010E944B010E940D0796
:1018E0000E94130719821A821B821C828DE1BE019D
:1018F0006F5F7F4F0E94B90689819A81AB81BC815D
:1019000086369105A105B10571F086E690E0A0E06C
:10191000B0E089839A83AB83BC838DE1BE016F5FA6
:101920007F4F0E94E00680910320882311F00E94DF
:10193000BE040E941E03809110218823A1F30E94FF
:10194000910BF1CF629FD001739FF001829FE00D58
:10195000F11D649FE00DF11D929FF00D839FF00D2E
:10196000749FF00D659FF00D9927729FB00DE11DDA
:10197000F91F639FB00DE11DF91FBD01CF011124B7
:101980000895FB01DC0102C001900D9241505040CE
:10199000D8F7089503D0808199270895E0ECF1E00D
:1019A000378537FDFDCF348538603487FC01E05042
:1019B000F04F0895262FE0ECF1E0378537FDFDCF9D
:1019C0003485377F3487378531FF09C036E3328766
:1019D00038ED34BF31E03387378537FDFDCF33E352
:1019E0003287808391831282248325E3228728ED26
:0E19F00031E024BF338701960895F894FFCFAD
:0219FE00010CDA
:00000001FF
