:100000000C9427010C944D010C944D010C944D015E
:100010000C944D010C944D010C94CE060C940007E9
:100020000C9432070C9464070C944D010C944D0110
:100030000C944D010C944D010C946E0E0C944D01DA
:100040000C944D010C944D010C944D010C944D01F8
:100050000C944D010C944D010C944D010C944D01E8
:100060000C944D010C94C2040C944D010C94FC05AD
:100070000C942A050C944D010C9442060C944D01ED
:100080000C944D010C944D010C944D010C944D01B8
:100090000C944D010C944D010C944D010C944D01A8
:1000A0000C944D010C944D010C944D010C944D0198
:1000B0000C944D010C944D010C944D010C944D0188
:1000C0000C944D010C944D010C944D010C944D0178
:1000D0000C944D010C944D010C944D010C944D0168
:1000E0000C944D010C944D010C9492050C944D010F
:1000F0000C9488060C94C7050C944D010C94AB0627
:100100000C944D010C944D010C944D010C944D0137
:100110000C944D010C944D010C944D010C944D0127
:100120000C944D010C944D010C944D010C944D0117
:100130000C944D010C94F6030C944D010C944D015C
:100140000C944D010C944D010C944D010C944D01F7
:100150000C944D010C944D010C944D010C944D01E7
:100160000C945E050C944D010C9465060C94F604F9
:100170000C944D010C941F060C944D010C944D01F0
:100180000C944D010C944D010C944D010C944D01B7
:100190000C944D010C944D010C944D010C944D01A7
:1001A0000C944D010C944D010C944D010C944D0197
:1001B0000C944D010C944D010C944D010C944D0187
:1001C0000C944D010C944D010C944D010C944D0177
:1001D0000C944D010C944D010C944D010C945D0454
:1001E0000C944D010C944D010C944D010C944D0157
:1001F0000C944D0108000000BE922449123EABAAA7
:10020000AA2ABECDCCCC4C3E00000080BEABAAAA30
:10021000AA3E00000000BF000000803F0000000078
:1002200000084178D3BB4387D1133D190E3CC3BDB1
:100230004282AD2B3E68EC8276BED98FE1A93E4C5E
:1002400080EFFFBE01C4FF7F3F00000000001124CB
:100250001FBECFEFDFE3DEBFCDBF00E00CBF18BE97
:1002600019BE1ABE1BBE10E2A0E0B0E2EAEDFAE24F
:1002700000E00BBF02C007900D92AA35B107D9F775
:100280001BBE11E3AAE5B0E201C01D92AC36B10776
:10029000E1F70E9499110C946B150C9400000F93D8
:1002A0001F9320E030E44CE156E40E94F7120E94D4
:1002B0001E1426EF3DEE43E859E30E945E14462FDC
:1002C000572F682F792FCB01BA012FE03FEC4BE578
:1002D0005BE30E949312B62FA72F382F292F60E0DF
:1002E00070E080E89FE3FD01A9010F2F1E2F252F4D
:1002F000342FA90198010E94F712462F572F682F1B
:10030000792FCB01BA0123E333E948E853E40E9493
:100310009212462F572F682F792FCB01BA011F91C8
:100320000F910895CF92DF92EF92FF920F931F9358
:10033000CF93DF936B017C0120E030E44CE156E485
:100340000E945E14D62FC72F182F092F60E070E08F
:1003500080E290E4A70196010E9492129B01AC01F9
:10036000FE01B8018F2F9E2FA72FB62FBC01CD0104
:100370000E94F712462F572F682F792FCB01BA0111
:10038000DF91CF911F910F91FF90EF90DF90CF9071
:100390000895FC0188E08093210288E1809329027E
:1003A00088E38093310280E2809339028DE3809369
:1003B00000028091060283FFFCCF8091060282FF3B
:1003C000FCCF8091060281FFFCCF8091060280FF66
:1003D000FCCF8091100290911102808391838091D3
:1003E0001202909113028283938380911402909160
:1003F000150284839583168217828091160290914C
:10040000170280879187128613868FE0E0E0F2E082
:1004100086830895CF93DF93AAECB1E082E08C93BA
:10042000E0E2F0E0E4911C92C0E0D2E0EC878C9333
:10043000E1E2F0E0E4911C92ED878C8380E28A8314
:1004400081E08093200298E0909321021092220292
:100450008093280298E19093290210922A028093B7
:10046000300298E390933102109232028093380266
:1004700090E39093390210923A0290E19983888335
:10048000DF91CF910895E0E2F3E08FE5848380E18E
:100490008283118285E08083108E118E0895E0ECB6
:1004A000FBE011828AED808308950E944F0280E173
:1004B000E0EAF6E086838AE08A95F1F700C0E0EC96
:1004C000FBE013828091C20B87FFFCCF8091C30BAE
:1004D000E0ECFBE013829091C20B97FFFCCF4091C0
:1004E000C30B90E1E0EAF6E09583429546954770AC
:1004F00050E090E023E0880F991F2A95E1F7887F6C
:100500009370482B592B40935A2050935B20809135
:100510005C20882359F440935F2050936020109210
:100520005D2010925E2081E080935C2080915F20AE
:1005300090916020BA01681B790B9B0121503E4FBE
:10054000E3E02F3F3E0758F440935F205093602034
:1005500080915D2090915E20860F971F18C020E04B
:1005600034E0B901641B750B680F791F281B390B28
:10057000240F351F40935F205093602080915D20B1
:1005800090915E20621773073CF4861B970B809353
:100590005D2090935E2006C0280F391F20935D20B8
:1005A00030935E2080915D2090915E200895E0E080
:1005B000F6E014821082E0E2F6E0148284E08083A8
:1005C000E0E4F6E092E294838BEB8083E0E6F6E0F1
:1005D00094838083E0E8F6E094838083E0EAF6E0A9
:1005E00014828BED8083E0EEF6E014821082E0E06E
:1005F000F7E014821082E0E2F7E0148288E0808362
:10060000E0ECF7E014821082E0EEF7E01482108252
:100610000895DC011296ED91FC911397818185FF7D
:1006200004C08181806281830895818184FF0FC02D
:100630008181806181831B961C921B971496ED919A
:10064000FC91159780818E5F17968C93179708956C
:10065000FC016115710529F089E2868380EA8783B0
:1006600002C01682178283E0858384818861848337
:100670004115510511F080E201C080E383830895A4
:100680009C0180E090E00BC04091A10B45FFFCCFA6
:10069000F901E80FF91F40814093A00B01968617DE
:1006A000970791F70895CF93DF93FC01C081D18123
:1006B0008981887139F0809164208F5F80936420F4
:1006C000888143C02881822F8350853C30F08091FF
:1006D00063208F5F8093632038C0A281B38136810D
:1006E00084819581029641E016964C931697139655
:1006F0003C9313973DE812963C9312971C968C936B
:100700001C971D969C931D971E961C921E971896DB
:10071000CC9318971996DC9319971A961C921A97EE
:1007200081E111968C93A281B381822F90E014967F
:100730008D939C93159784E88C93A481B5812C9319
:100740000480F581E02D11821B82DF91CF91089505
:10075000CF93DF93EC01E881F98181818871A62F25
:10076000B0E051F08081FD01E059FF4D1082A259A7
:10077000BF4D85E08C9337C02081AD0142595F4D5C
:10078000FA018081A059BF4D882319F41C9285E09D
:1007900080838C9190E00196EC81FD81E80FF91F38
:1007A00020838C918F5F8C938C91813061F42093A6
:1007B0005531EC81FD812083EC81FD811182235034
:1007C000253C88F40DC02C916091553130E0862F86
:1007D00090E001962817390731F46E5F6F831C9201
:1007E00085E0FA018083DF91CF9108951F920F92E7
:1007F0000FB60F9208B60F9211248F938091173184
:10080000882349F080916A20882329F080916A200A
:10081000815080936A2080912331882349F0809110
:100820006B20882329F080916B20815080936B206E
:1008300080912F31882349F080916C20882329F002
:1008400080916C20815080936C2080913B31882373
:1008500049F080916D20882329F080916D2081508E
:1008600080936D2080914731882349F080916E20DC
:10087000882329F080916E20815080936E20809192
:100880005331882349F080916F20882329F080918B
:100890006F20815080936F2080916920882329F0F8
:1008A000809169208150809369208F910F9008BEBC
:1008B0000F900FBE0F901F9018951F920F920FB6BA
:1008C0000F9208B60F920BB60F9211248F939F933D
:1008D000EF93FF938091A10B887169F08091A00B39
:1008E0001092543180E280936920809168208F5F5C
:1008F000809368203AC09091A00B8091612088235A
:1009000059F01092543180E28093692080916720E1
:100910008F5F8093672029C080916920882351F4DC
:100920001092543180E280936920809166208F5F1D
:100930008093662080915431E82FF0E0E251F64D2B
:1009400090838F5F80935431813029F49E7851F0E9
:10095000109254310AC0873041F481E080936120C5
:100960001092543180E280936920FF91EF919F9122
:100970008F910F900BBE0F9008BE0F900FBE0F907F
:100980001F9018951F920F920FB60F9208B60F92F4
:1009900009B60F920BB60F9211242F933F934F93EA
:1009A0005F936F937F938F939F93AF93BF93EF93D7
:1009B000FF9380910520909106200E945303FF91A0
:1009C000EF91BF91AF919F918F917F916F915F91C7
:1009D0004F913F912F910F900BBE0F9009BE0F903A
:1009E00008BE0F900FBE0F901F9018951F920F9288
:1009F0000FB60F9208B60F9209B60F920BB60F9270
:100A000011242F933F934F935F936F937F938F9313
:100A10009F93AF93BF93EF93FF93809107209091A3
:100A200008200E945303FF91EF91BF91AF919F91D6
:100A30008F917F916F915F914F913F912F910F9087
:100A40000BBE0F9009BE0F9008BE0F900FBE0F9007
:100A50001F9018951F920F920FB60F9208B60F9223
:100A600009B60F920BB60F9211242F933F934F9319
:100A70005F936F937F938F939F93AF93BF93EF9306
:100A8000FF938091092090910A200E945303FF91C7
:100A9000EF91BF91AF919F918F917F916F915F91F6
:100AA0004F913F912F910F900BBE0F9009BE0F9069
:100AB00008BE0F900FBE0F901F9018951F920F92B7
:100AC0000FB60F9208B60F9209B60F920BB60F929F
:100AD00011242F933F934F935F936F937F938F9343
:100AE0009F93AF93BF93EF93FF9380910B209091CF
:100AF0000C200E945303FF91EF91BF91AF919F9102
:100B00008F917F916F915F914F913F912F910F90B6
:100B10000BBE0F9009BE0F9008BE0F900FBE0F9036
:100B20001F9018951F920F920FB60F9208B60F9252
:100B300009B60F920BB60F9211242F933F934F9348
:100B40005F936F937F938F939F93AF93BF93EF9335
:100B5000FF9380910D2090910E2060E00E94A803E9
:100B6000FF91EF91BF91AF919F918F917F916F9185
:100B70005F914F913F912F910F900BBE0F9009BE47
:100B80000F9008BE0F900FBE0F901F9018951F92E8
:100B90000F920FB60F9208B60F9209B60F920BB6CE
:100BA0000F9211242F933F934F935F936F937F93F3
:100BB0008F939F93AF93BF93EF93FF9380910F20F9
:100BC0009091102061E00E94A803FF91EF91BF91E6
:100BD000AF919F918F917F916F915F914F913F91D5
:100BE0002F910F900BBE0F9009BE0F9008BE0F9073
:100BF0000FBE0F901F9018951F920F920FB60F9275
:100C000008B60F920BB60F9211248F93EF93FF93B8
:100C1000E0910520F091062081E080870190F0812D
:100C2000E02D80E28383FF91EF918F910F900BBEB7
:100C30000F9008BE0F900FBE0F901F9018951F9237
:100C40000F920FB60F9208B60F920BB60F921124A7
:100C50008F93EF93FF93E0910720F091082081E0BC
:100C600080870190F081E02D80E28383FF91EF91F6
:100C70008F910F900BBE0F9008BE0F900FBE0F907C
:100C80001F9018951F920F920FB60F9208B60F92F1
:100C90000BB60F9211248F93EF93FF93E0910920ED
:100CA000F0910A2081E080870190F081E02D80E2C0
:100CB0008383FF91EF918F910F900BBE0F9008BE31
:100CC0000F900FBE0F901F9018951F920F920FB6A6
:100CD0000F9208B60F920BB60F9211248F93EF93D9
:100CE000FF93E0910B20F0910C2081E08087019030
:100CF000F081E02D80E28383FF91EF918F910F903F
:100D00000BBE0F9008BE0F900FBE0F901F9018954E
:100D10001F920F920FB60F9208B60F920BB60F925A
:100D200011248F93EF93FF93E0910D20F0910E200B
:100D300081E080870190F081E02D80E28383FF9144
:100D4000EF918F910F900BBE0F9008BE0F900FBECA
:100D50000F901F9018951F920F920FB60F9208B622
:100D60000F920BB60F9211248F93EF93FF93E091A4
:100D70000F20F091102081E080870190F081E02D1C
:100D800080E28383FF91EF918F910F900BBE0F90C4
:100D900008BE0F900FBE0F901F9018951F920F92D4
:100DA0000FB60F9208B60F9209B60F920BB60F92BC
:100DB00011242F933F934F935F936F937F938F9360
:100DC0009F93AF93BF93EF93FF938CE091E30E94C7
:100DD0000903FF91EF91BF91AF919F918F917F9107
:100DE0006F915F914F913F912F910F900BBE0F909C
:100DF00009BE0F9008BE0F900FBE0F901F90189560
:100E00001F920F920FB60F9208B60F9209B60F926B
:100E10000BB60F9211242F933F934F935F936F93D1
:100E20007F938F939F93AF93BF93EF93FF9388E14B
:100E300091E30E940903FF91EF91BF91AF919F91C0
:100E40008F917F916F915F914F913F912F910F9073
:100E50000BBE0F9009BE0F9008BE0F900FBE0F90F3
:100E60001F9018951F920F920FB60F9208B60F920F
:100E700009B60F920BB60F9211242F933F934F9305
:100E80005F936F937F938F939F93AF93BF93EF93F2
:100E9000FF9384E291E30E940903FF91EF91BF91D8
:100EA000AF919F918F917F916F915F914F913F9102
:100EB0002F910F900BBE0F9009BE0F9008BE0F90A0
:100EC0000FBE0F901F9018951F920F920FB60F92A2
:100ED00008B60F9209B60F920BB60F9211242F93FA
:100EE0003F934F935F936F937F938F939F93AF93B2
:100EF000BF93EF93FF9380E391E30E940903FF9177
:100F0000EF91BF91AF919F918F917F916F915F9181
:100F10004F913F912F910F900BBE0F9009BE0F90F4
:100F200008BE0F900FBE0F901F901895FC0120E097
:100F300030E080E004C09191890F2F5F3F4F26176A
:100F40003707CCF390E0909581959F4F08950F93CC
:100F50001F93CF93DF93EC01F89480E28093692094
:100F600078948F81882321F4809169208823C9F7A0
:100F7000809169208823C1F4809120018F77E0E07F
:100F8000F1E080A3E0911831F091193113821092B1
:100F9000233183E08093F5291092F6298091EF297F
:100FA0008093F72984E01EC00C811D816F81C801E8
:100FB00070E00E949607009721F1E985F0E0EE0FBE
:100FC000FF1FE25AFE4C80819181019680839183BC
:100FD00083E08093F5291092F6298091EF29809380
:100FE000F72981E08093F82985EF99E264E070E0C9
:100FF0000E9496078093F92985EF99E265E070E0F9
:1010000003C06F81C80170E00E944003DF91CF915F
:101010001F910F9108958F929F92AF92BF92DF928E
:10102000EF92FF920F931F93CF93DF93F82EE92E49
:101030005B01D42E4901C90100E010E002C00F5F3E
:101040001F4F969587950097D1F784E08D1568F529
:10105000F5018381882349F5CD2DD0E0C501BE017E
:101060000E9496070097B9F4AE0145505040B50173
:101070006C5F7F4F8F2D9E2D0E942F158091DE2952
:101080009091DF29882999298093DE299093DF297F
:101090008D2D85500BC0F801EE0FFF1FE25AFE4C5C
:1010A0008081918101968083918380E0DF91CF914F
:1010B0001F910F91FF90EF90DF90BF90AF909F90A6
:1010C0008F900895EF92FF920F931F93CF93DF932A
:1010D0006130B9F0613030F0623049F0633009F0CE
:1010E00076C00AC0CCE0D1E3A0E1B1E00EC0C4E21A
:1010F000D1E3A0E3B1E009C0C0E3D1E3A0E4B1E0F3
:1011000004C0C8E1D1E3A0E2B1E0E82EFF248701EA
:10111000000F111FF801EF5EFF4D20813181288300
:1011200039831F821886AA83BB83F801E35EFF4DD3
:101130000190F081E02DEC83FD83F701E75DFF4D29
:1011400090819E83898781E08A878B87F801EB5F96
:10115000FF4DC083D18390E4F9019183F701E15DF4
:10116000FF4D708116968C93169713967C93139768
:1011700088ED12968C9312971C962C931C971D96B3
:101180003C931D971E961C921E9718964C93189789
:1011900019965C9319971A961C921A9780E11196EA
:1011A0008C931197F901918383818460838387E015
:1011B00090E014968D939C93159784E88C93F89403
:1011C000E62FF0E0E659FF4D85E080837894DF91CB
:1011D000CF911F910F91FF90EF900895CF93DF93E0
:1011E000482F50E09A01220F331FD901A40FB51FD9
:1011F000AA0FBB1FAA0FBB1FA45FBE4CF901EF5E75
:10120000FF4DC081D181CD93DC93119717961C922D
:10121000179718961C921897F901E35EFF4D6081AD
:10122000718114966D937C931597FA01E75DFF4DDC
:10123000908116969C93169719968C93199781E036
:101240001A968C931A971B968C931B972B5F3F4D86
:10125000F901A083B18380E48983DF91CF91089560
:101260001F93CF93DF9310E0812F0E94EE081F5F42
:101270001630D1F780EA9BE061E070E040E050E09A
:101280000E94280380EA98E060E070E041E050E0CE
:101290000E94280380EB99E060E070E041E050E0BC
:1012A0000E94280380EB98E060E070E041E050E0AD
:1012B0000E94280380EA99E060E070E041E050E09D
:1012C0000E94280380EA9AE060E070E041E050E08C
:1012D0000E94280380EB9AE060E070E041E050E07B
:1012E0000E94280380E880930001C0E4D6E080914A
:1012F00044068E7F8C83A0E6B6E080E116968C9340
:101300001697809144068F7E8C8321E016962C934D
:101310001697E0E8F6E0809184068E7F84838091C2
:1013200084068F7E84838091440682608C8380E271
:1013300015968C9315978091440680628C8382E089
:1013400015968C9315978091840682608483809192
:10135000840680628483E0E0F9E0118212821382C5
:10136000148280E290E086AB97AB10A211A2268394
:1013700010930009DF91CF911F910895CF93DF93D0
:10138000482F682F70E0CB01880F991FFC01E60FF2
:10139000F71FEE0FFF1FEE0FFF1FE45FFE4C2085CF
:1013A000213041F41086F894FB01E659FF4D25E009
:1013B00020837894860F971F880F991F880F991F95
:1013C000845F9E4CDC0117968C911797882309F453
:1013D00051C0842F90E0FC01EE0FFF1FE80FF91FB2
:1013E000EE0FFF1FEE0FFF1FE45FFE4C818592851D
:1013F000A82FB0E0AA0FBB1F992319F0AB5CBF4D1B
:1014000002C0AF5BBF4D0D90BC91A02D97819C9306
:101410001782108690E0880F991FDC01A35BBF4DF7
:101420002D913C9111972115310509F469C0528520
:10143000552309F465C0128651E053872483358310
:10144000DC01AB5FBF4DED93FC938F5E9F4DEC01D4
:10145000A881B98180E411968C930190F081E02DF0
:10146000838180628383F894FB01E659FF4D85E018
:1014700080837894DB01A659BF4D8C91882309F0B5
:1014800041C0CB01880F991FFC01E60FF71FEE0F3B
:10149000FF1FEE0FFF1FE45FFE4C138625E02C9329
:1014A000413071F0413028F0423089F04330D9F4B6
:1014B00015C0209110012F77E0E0F1E0208B13C0E0
:1014C000209120012F77E0E0F1E020A30CC02091D3
:1014D00030012F77E0E0F1E020AB05C02091400122
:1014E0002F7720934001860F971F880F991F880F31
:1014F000991F845F9E4CDC01ED91FC911197138242
:1015000081E001C080E0DF91CF910895CF93DF9318
:10151000282F682F70E0AB01440F551FFA01E60F2A
:10152000F71FEE0FFF1FEE0FFF1FE45FFE4C8781DA
:10153000882309F461C08285DA01882319F0AB5C45
:10154000BF4D02C0AF5BBF4D0D90BC91A02D8781F8
:101550008C93FA01E60FF71FEE0FFF1FEE0FFF1F30
:10156000E45FFE4C17821086DA01A35BBF4D8D91BC
:101570009C911197009719F03285332369F4FB0190
:10158000EE0FFF1FE60FF71FEE0FFF1FEE0FFF1FFF
:10159000E45FFE4C138639C0128631E033878483C2
:1015A0009583DA01AB5FBF4D30E0C901880F991F09
:1015B000820F931F880F991F880F991F845F9E4C7D
:1015C0008D939C934F5E5F4DEA01A881B98180E4C1
:1015D00011968C9311970190F081E02D80E1838327
:1015E000F894FB01E459FF4D108266597F4D85E068
:1015F000FB01808378940BC0DB01A659BF4D8C9111
:10160000882329F4138685E08C9381E001C080E073
:10161000DF91CF910895EF92FF920F931F93CF9395
:10162000DF937C018B01A7EEB9E2FB0187E001901B
:101630000D928150E1F7A0EEB9E2F80187E0019048
:101640000D928150E1F780EF8093E7298091ED2999
:10165000815F8093ED2981EF8093E0298091E629D5
:10166000825F8093E6291092DE291092DF29A5E39C
:10167000B0E2C1E4D0E281E190E220E4ED91FD919D
:101680001082E991F991309709F01082FC014191A3
:101690005191CF01FA012183F0E2A134BF0771F724
:1016A0008091002080FF0BC080E060E047EE59E2AF
:1016B0000E94620880E00E94BE098823D9F38091CD
:1016C000002081FF0BC081E061E040EE59E20E9402
:1016D000620881E00E94BE098823D9F3809100202E
:1016E00082FF0BC082E062E040EE59E20E94620895
:1016F00082E00E94BE098823D9F38091002083FFF5
:101700000BC083E063E040EE59E20E94620883E090
:101710000E94BE098823D9F38091002084FF2BC04A
:1017200084E00E94EE0880E090E02091A10A25FF6D
:10173000FCCFFC01E052F64D20812093A00A0196D7
:101740008730910591F7E0EAFAE08091A10A85FFE0
:10175000FACF8091A00A80E8818380E18383F894A6
:101760001092702085E080936E20789484E00E942F
:10177000860A8823D9F38091002085FF2BC085E05D
:101780000E94EE0880E090E02091B10A25FFFCCF96
:10179000FC01E052F64D20812093B00A019687307B
:1017A000910591F7E0EBFAE08091B10A85FFFACF5D
:1017B0008091B00A80E8818380E18383F89410925D
:1017C000712085E080936F20789485E00E94860ADE
:1017D0008823D9F3C80163E770E20E94320F809337
:1017E000722040917220C701059663E770E221E004
:1017F00030E00E940B08C82FD0E04091F125CE01C7
:1018000005968E0D9F1D62EF75E222E030E00E948A
:101810000B08C80FD11D40919623CE0105968E0D61
:101820009F1D67E973E224E030E00E940B08C80FB7
:10183000D11D40912825CE0105968E0D9F1D69E290
:1018400075E228E030E00E940B08C80FD11D4091DE
:10185000CD22CE0105968E0D9F1D6EEC72E220E129
:1018600030E00E940B08C80FD11D40915F24CE01CB
:1018700005968E0D9F1D60E674E220E230E00E9426
:101880000B08C80FD11D40910422CE0105968E0D84
:101890009F1D65E072E220E430E00E940B08C80F53
:1018A000D11D40911529CE0105968E0D9F1D66E133
:1018B00079E220E830E00E940B08C80FD11D40916A
:1018C0004C28CE0105968E0D9F1D6DE478E220E038
:1018D00031E00E940B08C80FD11D40918327CE0133
:1018E00005968E0D9F1D64E877E220E032E00E94AD
:1018F0000B08C80FD11D4091BA26CE0105968E0D5A
:101900009F1D6BEB76E220E034E00E940B08C80FCD
:10191000D11D40913B21CE0105968E0D9F1D6CE39C
:1019200071E220E038E00E940B08C80FD11DCE0103
:101930000496F70180839183F8018181F701828306
:101940008091DE299091DF2983839483BE016B5FB0
:101950007F4F8701060F171FC7010E949607F801E6
:101960008083BE016A5F7F4FC7010E944003DF9101
:10197000CF911F910F91FF90EF900895CF93DF9338
:10198000CDB7DEB72797CDBFDEBF8FEF89831A8231
:1019900080910120909102208B839C83CE0101963F
:1019A00066E070E00E9496078F8380916220882312
:1019B00051F082E59CE2BE016F5F7F4F0E940B0BEE
:1019C000109262200AC08FEA9EE2BE016F5F7F4FD5
:1019D0000E940B0B81E0809362202796CDBFDEBF73
:1019E000DF91CF910895109261208EEE99E267E029
:1019F00070E00E949607009711F180916A319091F2
:101A00006B31019680936A3190936B3183E08093C0
:101A1000F5298093F6298091EF298093F72981E0B9
:101A20008093F82985EF99E264E070E00E949607C0
:101A30008093F92985EF99E265E070E03BC08091E1
:101A4000EE298F3F39F485EF99E26EEE79E20E943C
:101A50000B0B0895F89480E280936920789480912C
:101A6000EE2990E0807F90708033910509F446C0A4
:101A7000813391054CF48031910551F1803291050B
:101A800091F1009769F008958035910509F469C0D6
:101A90008036910591F08034910509F085C03DC0F4
:101AA0008EEE99E265EF79E20E94320F682F85EFA2
:101AB00099E270E00E944003089580E061E04EEEFC
:101AC00059E20E946208809120318823E1F320C00E
:101AD00081E061E04EEE59E20E946208809120317F
:101AE0008823E1F315C082E061E04EEE59E20E94E6
:101AF0006208809120318823E1F30AC083E061E02D
:101B00004EEE59E20E946208809120318823E1F371
:101B10001092203188E191E321C084E00E94EE0818
:101B200080E090E02091A10A25FFFCCFFC01E2516A
:101B3000F64D20812093A00A01968730910591F7F8
:101B4000E0EAFAE08091A10A85FFFACF8091A00A2D
:101B500080E8818380E183838CE391E30E94A7077F
:101B6000089585E00E94EE0880E090E02091B10A9F
:101B700025FFFCCFFC01E251F64D20812093B00AF5
:101B800001968730910591F7E0EBFAE08091B10A78
:101B900085FFFACF8091B00A80E8818380E183835A
:101BA00088E491E30E94A7070895EF92FF920F93B4
:101BB0001F93CF93DF930F92CDB7DEB7E82EFF24AC
:101BC000EE0CFF1CEE0CFF1C8B0120E0C7012983EB
:101BD0000E943815F80181938F0129812F5F0894A5
:101BE000E11CF11C243091F70F90DF91CF911F91F0
:101BF0000F91FF90EF900895CF93DF9300D00F9255
:101C0000CDB7DEB719821A821B821C828FE1BE011A
:101C10006F5F7F4F0E94D50D89819A81AB81BC8116
:101C20000097A105B10529F088E0E0E2F7E085839F
:101C300004C088E0E0E2F7E086838CE1BE016F5FDC
:101C40007F4F0E94D50D89819A8180935F20909368
:101C500060208BE1BE016F5F7F4F0E94D50D8981AF
:101C60009A8180935831909359318AE1BE016F5F18
:101C70007F4F0E94D50D89819A8180935631909330
:101C800057312496CDBFDEBFDF91CF910895EF92FB
:101C9000FF920F931F93CF93DF930F92CDB7DEB7D1
:101CA0008B01E82EFF24EE0CFF1CEE0CFF1C20E045
:101CB000F80161918F01C70129830E94481529818C
:101CC0002F5F0894E11CF11C243091F70F90DF91F5
:101CD000CF911F910F91FF90EF9008951F920F9257
:101CE0000FB60F9208B60F9211248F9381E0809364
:101CF0005D318F910F9008BE0F900FBE0F901F9017
:101D00001895CF93DF93CDB7DEB7A097CDBFDEBFD9
:101D1000FC01F8941092000113828481886184830D
:101D2000DB0180E090E0218125FFFDCF2D91208314
:101D3000019687309105B9F7818185FFFDCF80E459
:101D40008183818186FFFDCFA0EABBE013961C92C0
:101D5000139725EC16962C9316979CEA17969C934E
:101D6000179788E114968C93149713822683978390
:101D7000848320E030E010E000E040E050E0BA0171
:101D8000EE24FF2480E2A82E87E0B82E98E0D92E1A
:101D90004F5F5F4F6F4F7F4F41398FE5580781E0AD
:101DA000680780E07807A0F00894E11CF11CC701E7
:101DB00083709070D5018330910521F41596DC92E3
:101DC000159703C01696DC92169740E050E0BA01D2
:101DD000818187FF0AC08081A1E1B0E0AC0FBD1F07
:101DE000A00FB11D8C930F5F0F708091A10B87FF27
:101DF0000BC08091A00BA1E0B0E0AC0FBD1FA30F02
:101E0000B11D8C933F5F3F70011779F08091A10B5A
:101E100085FF0BC0A1E1B0E0AC0FBD1FA10FB11D4C
:101E20008C918093A00B1F5F1F70321769F0818126
:101E300085FF0AC0A1E0B0E0AC0FBD1FA20FB11D2D
:101E40008C9180832F5F2F70B8ECEB16F1040CF4AB
:101E50009FCF97E188ED08B684BF90938000A89546
:101E600008BEFFCFAF92BF92CF92DF92EF92FF9268
:101E70000F931F93CF93DF93CDB7DEB76097CDBF9E
:101E8000DEBF8C016B01FC018181282F207F203671
:101E900009F4DFC12136A8F4203209F4A8C02132A8
:101EA00030F4222321F1203109F016C298C02034E9
:101EB00009F4C1C0203509F4C6C0203309F00CC2B2
:101EC0009EC0203909F4C5C1213938F4203709F4FE
:101ED000C0C1203809F000C2BCC1203C09F46BC16C
:101EE000203D09F4F4C1203B09F0F6C107C1F80117
:101EF000A280B380C50180739070009721F0CE015D
:101F000005960E94C901B2FE09C080915D209091A2
:101F10005E20F6018483958302E001C000E0A5FE07
:101F20000DC0E02FF0E03496EC0DFD1DDE0115969E
:101F300086E00D9001928150E1F70A5FA4FE2BC06C
:101F40006D857E85882777FD8095982F0E948D135B
:101F500020E030E040E250E40E945E1420E030E0F7
:101F600040E05AE30E945E140E9492010E944F01D9
:101F700020E030E048EC52E40E945E140E94C1145C
:101F80007601E00EF11C0E945F13DC01CB01F7012A
:101F9000848395830E5FA1FE0CC0F601E00FF11D56
:101FA0003496AEE5B1E38EE00D9001928150E1F7F9
:101FB000025F802F8D5FF60180831182128213826F
:101FC00010E0B8016C5F7F4F7601E60EF71EC60188
:101FD0000E949607F7018083C80105968DC1F8011C
:101FE0008281938180930320909304201DC0F80187
:101FF00082819381809301209093022015C031E06B
:1020000030935D31E0E0F8E0118212821382148295
:1020100080910320909104209695879586AB97AB8D
:10202000368385E08093000883E0F6018083118287
:102030002283138258C1E0E0F8E016821092000873
:1020400010925D31F1CF90E09C01237030708C7064
:10205000907021153105F9F4009739F483E0E0EA36
:10206000F6E0868310925C313FC0F8018281938153
:1020700080935A3190935B3121812C70243039F454
:10208000909581959F4F80935A3190935B3181E079
:1020900080935C3129C010925C318430910551F0FD
:1020A00088309105A1F0009709F583E0E0EAF6E0B9
:1020B00086831AC0F80182819381E0E2F3E0808F89
:1020C000918FE0EAF6E082E0868381E00CC0F801BF
:1020D00082819381E0E2F3E0808F918FE0EAF6E085
:1020E00081E0868382E0858380E001C082E093E026
:1020F000F6019083118290E59283F4C084E0FB01A5
:102100008083118222831382F8018281FB01848300
:10211000CB0165E070E00E949607F601858380E0C0
:1021200090E02091A10B25FFFCCFF601E80FF91FED
:1021300020812093A00B01968630910591F7F8013C
:10214000828190E0807F90708033910541F18133EE
:1021500091054CF480319105D1F080329105D1F098
:10216000009761F0C7C080359105F9F08036910580
:10217000F9F08034910509F0BDC014C097E188EDF5
:1021800008B684BF90938000A89508BEFFCF80EB6F
:1021900099E002C080EB98E0B8010E94810E80EACD
:1021A00099E0FACF80EA9AE0F7CF80EB9AE0F4CF9B
:1021B00080EA98E0F1CFF8018281938181FF1CC011
:1021C00010925E3110925F31109260311092613145
:1021D0001092623110926331109264311092653125
:1021E0001092663110926731109268311092693105
:1021F00010926A3110926B3192FF25C080915A2063
:1022000090915B20AA2797FDA095BA2F89839A8386
:10221000AB83BC838CE1BE016F5F7F4F0E94470E92
:1022200080915A2090915B2080935F209093602052
:1022300010925D2010925E2081E080935C201092CD
:102240005A3110925B3183E0F6018083118280EC79
:1022500033C08F71203751F0213718F4203671F5D3
:1022600005C02038D9F0203949F518C0B6016C5F97
:102270007F4F0E94D50D87E0F60180831182F8011F
:102280008181F60182831382C60168E070E00E94BA
:102290009607F601808789E090E02EC0B8016E5F56
:1022A0007F4F0E94470E0E94FC0D83E0F601808361
:1022B0001182F8018181F6018283BBCE83E0F601B1
:1022C00080831182F8018181F60182830AC0F801BE
:1022D000828180930020A8CE83E0F6018083118262
:1022E000228382E08383C60164E070E00E94960747
:1022F000F601848385E090E06096CDBFDEBFDF917C
:10230000CF911F910F91FF90EF90DF90CF90BF90F2
:10231000AF90089588E0E0E2F7E08583089588E0D3
:10232000E0E2F7E08683089588E0E0E2F7E0878363
:102330000895CF93DF9300D00F92CDB7DEB70E9400
:10234000D70288E0E0E2F7E08583F8948FE39FE12D
:102350000197F1F700C0000086E080935000809163
:10236000510081FFFCCF8091510082FFFCCF01E042
:10237000009360000093680088ED84BF00934000E4
:1023800085E0E0E4F0E08383AFE3BFE11197F1F78C
:1023900000C000000E940A020E9430090E9443020D
:1023A0000E94550210925C208FEF93ECA9E08150BF
:1023B0009040A040E1F700C0000088E0E0E2F7E0D4
:1023C00086830E94FC0D00935C2019821A821B8276
:1023D0001C828DE1BE016F5F7F4F0E94D50D898108
:1023E0009A81AB81BC818D32E1E09E07E0E0AE07CF
:1023F000E0E0BE0771F08DE291E0A0E0B0E08983FB
:102400009A83AB83BC838DE1BE016F5F7F4F0E94D7
:10241000470EE0EAF0E08091A2008760828380911D
:10242000A20080688283789400EA16E053E0B52E1B
:1024300060E2C62E63E0D62E72E0F72EEE24E3941F
:102440000E94550280915C31813009F05BC020917F
:102450005A3130915B3180915D2090915E20A901CD
:10246000481B590B609158317091593164177507A9
:1024700004F5CA0157FF03C0909581959F4F409185
:10248000563150915731849F9001859F300D949F14
:10249000300D1124F0E120303F0710F02FEF3FE026
:1024A000D60158962D933C935997F801E682F58210
:1024B00029C0821B930B6817790704F5CA0157FFDF
:1024C00003C0909581959F4F40915631509157315F
:1024D000849F9001859F300D949F300D1124F0E171
:1024E00020303F0710F02FEF3FE0D60158962D9394
:1024F0003C935997F801F682E58204C0D8011696FC
:10250000BC92169780916120882311F00E94F30CF1
:1025100080915D31882309F493CF10925D310E9440
:10252000BE0C8ECF5058BB27AA270ED048C139D138
:1025300030F03ED120F031F49F3F11F41EF42EC153
:102540000EF4E095E7FB24C1E92F4AD180F3BA17D6
:10255000620773078407950718F071F49EF562C14E
:102560000EF4E0950B2EBA2FA02D0B01B9019001AE
:102570000C01CA01A0011124FF27591B99F0593FF2
:1025800050F4503E68F11A16F040A22F232F342F3A
:102590004427585FF3CF469537952795A795F04088
:1025A0005395C9F77EF41F16BA0B620B730B840B9D
:1025B000BAF09150A1F0FF0FBB1F661F771F881F55
:1025C000C2F70EC0BA0F621F731F841F48F48795AD
:1025D00077956795B795F7959E3F08F0B3CF93959C
:1025E000880F08F09927EE0F9795879508950CD0DE
:1025F000E6C0DED040F0D5D030F021F45F3F19F0D6
:10260000C7C0511110C1CAC0EBD098F39923C9F3C8
:102610005523B1F3951B550BBB27AA2762177307E8
:10262000840738F09F5F5F4F220F331F441FAA1F9C
:10263000A9F333D00E2E3AF0E0E830D0915050405C
:10264000E695001CCAF729D0FE2F27D0660F771F0A
:10265000881FBB1F261737074807AB07B0E809F0EC
:10266000BB0B802DBF01FF2793585F4F2AF09E3F81
:10267000510568F08DC0D7C05F3FECF3983EDCF3A6
:10268000869577956795B795F7959F5FC9F7880FFA
:10269000911D9695879597F90895E1E0660F771F4C
:1026A000881FBB1F621773078407BA0720F0621BDD
:1026B000730B840BBA0BEE1F88F7E095089598D042
:1026C00088F09F5790F0B92F9927B751A0F0D1F01B
:1026D000660F771F881F991F1AF0BA95C9F712C0A5
:1026E000B13081F09FD0B1E008959CC0672F782F62
:1026F0008827B85F39F0B93FCCF386957795679511
:10270000B395D9F73EF490958095709561957F4F7C
:102710008F4F9F4F0895E89409C097FB3EF4909522
:102720008095709561957F4F8F4F9F4F9923A9F0AA
:10273000F92F96E9BB279395F69587957795679539
:10274000B795F111F8CFFAF4BB0F11F460FF1BC07D
:102750006F5F7F4F8F4F9F4F16C0882311F096E910
:1027600011C0772321F09EE8872F762F05C06623BE
:1027700071F096E8862F70E060E02AF09A95660F77
:10278000771F881FDAF7880F9695879597F9089530
:1027900097F99F6780E870E060E008959FEF80EC14
:1027A000089500240A9416161706180609060895B7
:1027B00000240A9412161306140605060895092E1D
:1027C0000394000C11F4882352F0BB0F40F4BF2B8C
:1027D00011F460FF04C06F5F7F4F8F4F9F4F0895CC
:1027E00057FD9058440F551F59F05F3F71F04795C2
:1027F000880F97FB991F61F09F3F79F087950895A7
:10280000121613061406551FF2CF4695F1DF08C0C5
:10281000161617061806991FF1CF869571056105E2
:1028200008940895E894BB2766277727CB0197F98A
:1028300008950EF0E1C0B2CF6894AACFD9DFC8F3F3
:102840009923D1F3C6F3DF93CF931F930F93FF9296
:10285000C92FDD2788232AF02197660F771F881F4D
:10286000DAF720E030E040E85FEB9FE3883920F0C2
:10287000803E30F021968F7756DEE4EFF1E003C022
:1028800052DEE1E2F2E0C6D08B01BE01EC01FB2E8C
:102890006F5771097595771F880B990B3EDF28E1FB
:1028A00032E741E35FE316D0AF2D9801AE01FF9010
:1028B0000F911F91CF91DF9147DE81CF0BD07FCF5A
:1028C00070DF28F075DF18F0952309F061CF66CF2F
:1028D0001124A9CF85DFA0F3959FD1F3950F50E088
:1028E000551F629FF001729FBB27F00DB11D639FC2
:1028F000AA27F00DB11DAA1F649F6627B00DA11D68
:10290000661F829F2227B00DA11D621F739FB00D0D
:10291000A11D621F839FA00D611D221F749F33277D
:10292000A00D611D231F849F600D211D822F762F16
:102930006A2F11249F5750408AF0E1F088234AF013
:10294000EE0FFF1FBB1F661F771F881F915050405F
:10295000A9F79E3F510570F01BCF65CF5F3FECF3A9
:10296000983EDCF3869577956795B795F795E7954B
:102970009F5FC1F7FE2B880F911D9695879597F95C
:10298000089536DFE0F09E37D8F09639B8F49E38D7
:1029900048F4672F782F8827985FF9CF8695779529
:1029A000679593959539D0F3B62FB1706B0F711D64
:1029B000811D20F4879577956795939502C01CC07B
:1029C00032CF882371F4772321F09850872B762F0C
:1029D00007C0662311F499270DC09051862B70E033
:1029E00060E02AF09A95660F771F881FDAF7880F44
:1029F0009695879597F908959F3F31F0915020F46F
:102A0000879577956795B795880F911D96958795CA
:102A100097F90895DF93CF931F930F93FF92EF924F
:102A2000DF927B018C01689405C0DA2EEF0152DF42
:102A3000FE01E894A5912591359145915591AEF30C
:102A4000EF0182DDFE019701A801DA9479F7DF90AA
:102A5000EF90FF900F911F91CF91DF910895FB01AF
:102A6000DC0102C001900D9241505040D8F708950A
:102A700003D0808199270895E0ECF1E0378537FD98
:102A8000FDCF348538603487FC01E050F04F089565
:102A9000262FE0ECF1E0378537FDFDCF3485377F19
:102AA0003487378531FF09C036E3328738ED34BFCC
:102AB00031E03387378537FDFDCF33E332878083BD
:102AC00091831282248325E3228728ED31E024BFFD
:0A2AD000338701960895F894FFCFB4
:102ADA00FFFFFFFFFF0C311831243130313C314800
:102AEA0031A008B009B008A009A00AB00A3C21F236
:102AFA002529256024162984274B6E4E6B8B8E4C14
:102B0A006F4F6C8C8F3B21F12528255F2415298373
:102B1A002700009623CD2204224C28BA26000097CB
:0A2B2A0023CE2205224D28BB260011
:00000001FF
