:100000000C943F010C945C010C946B080C945C0103
:100010000C945C010C945C010C945F040C94C4047B
:100020000C945C010C945C010C94C2130C945C0164
:100030000C945C010C945C010C945C010C945C01CC
:100040000C945C010C945C010C945C010C945C01BC
:100050000C945C010C945C010C945C010C945C01AC
:100060000C945C010C945C010C945C010C945C019C
:100070000C945C010C945C010C945C010C945C018C
:100080000C945C010C945C010C945C010C945C017C
:100090000C945C010C945C010C945C010C945C016C
:1000A0000C945C010C945C010C945C010C945C015C
:1000B0000C945C010C945C010C945C010C945C014C
:1000C0000C945C010C945C010C945C010C945C013C
:1000D0000C945C010C945C010C945C010C945C012C
:1000E0000C945C010C945C010C945C010C945C011C
:1000F0000C945C010C945C010C945C010C945C010C
:100100000C945C010C945C010C945C010C945C01FB
:100110000C945C010C945C010C945C010C945C01EB
:100120000C945C010C945C010C945C010C945C01DB
:100130000C945C010C94E4030C945C010C945C0141
:100140000C945C010C945C010C945C010C945C01BB
:100150000C945C010C945C010C945C010C945C01AB
:100160000C945C010C945C010C948A040C9497032D
:100170000C945C010C94AC040C945C010C945C0138
:100180000C945C010C945C010C945C010C945C017B
:100190000C945C010C945C010C945C010C945C016B
:1001A0000C945C010C945C010C945C010C945C015B
:1001B0000C945C010C945C010C945C010C945C014B
:1001C0000C945C010C945C010C945C010C945C013B
:1001D0000C945C010C945C010C945C010C945C012B
:1001E0000C945C010C945C010C945C010C945C011B
:1001F0000C945C010C945C010C945C010763423626
:10020000B79BD8A71A39685618AEBAAB558C1D3CA7
:10021000B7CC5763BD6DEDFD753EF6177231BF006B
:100220000000803F08000000BE922449123EABAAA5
:10023000AA2ABECDCCCC4C3E00000080BEABAAAA00
:10024000AA3E00000000BF000000803F0000000048
:1002500000084178D3BB4387D1133D190E3CC3BD81
:100260004282AD2B3E68EC8276BED98FE1A93E4C2E
:1002700080EFFFBE01C4FF7F3F000000000011249B
:100280001FBECFEFDFE2DEBFCDBF10E2A0E0B0E2E5
:10029000E6EBFBE302C005900D92AA33B107D9F754
:1002A00012E2AAE3B0E201C01D92A638B107E1F75D
:1002B0000E94E4180C94D91D0C940000CF9382E0A6
:1002C0008093CA01E0E2F0E0E4911092CA01A0E05C
:1002D000B2E01C96EC931C978093CA01E1E2F0E037
:1002E000E4911092CA011D96EC931D97E0E8F1E0AD
:1002F0009DE8938313869DED13969C931397149614
:100300008C93149790E212969C93129791E090939D
:10031000200228E0209321021092220280932802DA
:100320008AE28093290210922A0280E111968C932E
:1003300011979093000221E130E040E050E0BA01D3
:10034000E0E0F2E0C2E011C08091060281FFFCCF44
:10035000C6838091120290911302AA2797FDA0955F
:10036000BA2F480F591F6A1F7B1F2150304061F779
:10037000CB01BA010E94FF1A20E030E040E85DE3C3
:100380000E94CD1C0E94301D0E94CC1ADC01CB01C2
:100390008093442090934520CF910895CF92DF928F
:1003A000EF92FF920F931F93CF93DF9380910602FA
:1003B00080FF6DC081E0E0E0F2E086836091100292
:1003C000709111026093112270931222882777FD99
:1003D0008095982F0E94FF1A20E030E040E250E420
:1003E0000E94CD1C20E030E040E05AE30E94CD1C8A
:1003F0009B01F82FE92F462F532F682F792F409319
:100400000D2250930E2260930F2270931022822FA0
:10041000932FAF2FBE2FBC01CD010E947D110E94F2
:10042000B411609300207093012080930220909378
:10043000032020E030E0A9010E942F1A87FF0BC0A3
:1004400080E090E0DC018093002090930120A09355
:100450000220B093032060910020709101208091D0
:1004600002209091032020E030E042E053E40E941B
:10047000141C181664F480E090E0A2E0B3E48093CA
:10048000002090930120A0930220B093032080913C
:10049000060281FF9EC082E0E0E0F2E08683609188
:1004A0001202709113028091442090914520681BA4
:1004B000790B60933E2070933F20882777FD8095CD
:1004C000982F0E94FF1A20E030E040E250E40E94A2
:1004D000CD1C20E030E040E05AE30E94CD1C2AE928
:1004E00039E949ED5FE30E94CD1CC62FC72EE82EE7
:1004F000D92E0E940407682F70E080E090E00E94EF
:10050000FD1A20E030E040E853E40E94B81920E0F2
:1005100030E040E05BE30E94CD1CF62E172FD82F71
:10052000092F862F912FAD2FB02FBC01CD0120E0D8
:1005300030E040E15FE30E942F1A87FF04C0FF24F0
:1005400010E0D0E10FE38F2D912FAD2FB02FBC0124
:10055000CD010F2D2D2F3B2FA90198010E94B81915
:1005600020E030E040E85FE30E94B7199B01AC0156
:100570008C2F9C2DAE2DBD2DBC01CD010E94331AB8
:10058000C62ED72EE82EF92E462F572F682F792FFB
:10059000CB01BA0120E030E0A9010E94141C18161A
:1005A00064F480E090E0DC0180934020909341204F
:1005B000A0934220B09343200CC0F7FAF094F7F8D0
:1005C000F094C0924020D0924120E0924220F092DC
:1005D0004320DF91CF911F910F91FF90EF90DF901B
:1005E000CF9008950F93FC01DA01002311F088EDFC
:1005F00001C08DE8828381E08683002331F0A487E7
:10060000B58716862087318705C0248735871686EB
:10061000A087B18712866383002359F080E181832C
:1006200080E411968C93119784E013968C93139722
:1006300002C081E181830F9108950F93F89488237C
:1006400021F0813009F070C034C08091210187FF12
:1006500005C0809120018F778093200110921B218B
:1006600010924A20662399F480E291E06EE640EB16
:1006700059E023E530E200E00E94F2028091B309E4
:100680008061E0EBF9E08383109204204DC080E4A8
:10069000E0EBF9E0818380E291E06FE640EB59E026
:1006A0002CE430E201E00E94F20281E08093042019
:1006B0003BC08091110187FF06C0809110018F77A8
:1006C000E0E0F1E0808B10921F2110922021109227
:1006D0001C216623B1F480E191E06BE640EA59E029
:1006E0002AEE31E200E00E94F20287E090E0E0E1D1
:1006F000F1E08483958384E8809310011092212196
:1007000013C0E0EAF9E080E4818384E0838380E140
:1007100091E06CE640EA59E023E231E201E00E9418
:10072000F20281E08093212178940F9108951F9225
:100730000F920FB60F9211240F932F933F934F9365
:100740005F936F937F938F939F93AF93BF93CF9359
:10075000EF93FF938091B109887119F08091B009EE
:1007600020C0C091B0098C2F8350853CD0F480E22A
:1007700091E06EE640EB59E024E530E200E00E94B3
:10078000F2028C2F90E0E0E2F1E08483958384E82C
:1007900080932001C0935320E0EBF9E01382109284
:1007A0004A20FF91EF91CF91BF91AF919F918F918F
:1007B0007F916F915F914F913F912F910F910F908A
:1007C0000FBE0F901F9018951F920F920FB60F92A9
:1007D00011248F9381E0809346208F910F900FBE5C
:1007E0000F901F9018950F9380914620882309F44D
:1007F00064C01092462080912121813019F410921A
:100800001C212FC08091110187FD04C0809110012F
:1008100087FD05C080911C218F5F80931C218091F2
:100820001C218330F0F0E0E0F1E0108A80911001AB
:1008300087FDFCCF80E4E0E0F1E0808B80E191E097
:100840006BE640EA59E02AEE31E200E00E94F20253
:1008500087E090E0E0E1F1E08483958384E8809391
:10086000100180910420813099F490914820292F23
:100870002F5F209348209B3040F080934720809347
:10088000492010924B2010921B2110924A2015C033
:100890001092482080914A20982F9F5F90934A2081
:1008A0008F3158F081E08093472080934920109247
:1008B0004A2010924B2010921B210F9108951F92F5
:1008C0000F920FB60F9211248F939F93EF93FF9384
:1008D0008091110185FD15C08091110184FF11C027
:1008E000809111018061E0E0F1E0818B10921C2188
:1008F00081E08093472081E090E080931F219093D6
:100900002021FF91EF919F918F910F900FBE0F903B
:100910001F9018951F920F920FB60F9211248F936C
:100920009F93EF93FF9310921C2181E080934720C7
:1009300081E090E080931D2190931E21E0EAF9E090
:10094000138280E48183FF91EF919F918F910F90AB
:100950000FBE0F901F9018951F920F920FB60F9217
:1009600011248F93EF93FF931092042080E1E0EB2A
:10097000F9E0838310924A20FF91EF918F910F90BD
:100980000FBE0F901F9018951F920F920FB60F92E7
:1009900011248F93EF93FF93E0E2F1E08091210126
:1009A00085FF05C0809121018062818310C0809104
:1009B000210184FF0CC0809121018061818380919D
:1009C00053208F5F80931B2181E080934720FF910C
:1009D000EF918F910F900FBE0F901F901895FC0113
:1009E00020E030E080E004C09191890F2F5F3F4FFD
:1009F00026173707CCF390E0909581959F4F089587
:100A00000F931F93CF93DF9360911B21C3E5D0E237
:100A1000CE0170E00E94EF040097B9F18091152299
:100A2000909116220196809315229093162283E0CE
:100A3000809322218091EB218093232181E0809378
:100A4000242182E291E263E070E00E94EF0480934F
:100A50002521E0EAF9E01382809122218093A00908
:100A60008AE68A95F1F700C080E4818384E083837D
:100A700080E191E06CE640EA59E023E231E201E0F6
:100A80000E94F20283E090E027C040911B2102E225
:100A900011E2C801BE0150E00E949D1DE0EAF9E0AC
:100AA0001382809122218093A0098AE68A95F1F72A
:100AB00000C080E4818384E0838380E191E06CE680
:100AC00040EA59E098012F5F3F4F01E00E94F20297
:100AD00080911B2190E00197E0E1F1E08483958310
:100AE00084E88093100110921B21DF91CF911F9118
:100AF0000F910895E0EAF9E01682178293E095835A
:100B0000848188618483E0EBF9E080E1838316824D
:100B10001782958384818861848380E880930001B3
:100B200080E061E00E941D0381E060E00E941D03FF
:100B3000E0E0F9E0118212821382148280E190E0F9
:100B400086AB97AB81E0868387E0808308950F931F
:100B5000CF93F8941092472078948091F1218823C4
:100B600021F0813009F04AC101C180911B21882305
:100B7000A1F080914B20882381F010924B2081E0DE
:100B80008093F12180912121882321F481E061E08B
:100B90000E941D030E9400050CC080911B21882328
:100BA00061F081E060E00E941D0380E061E00E944E
:100BB0001D03F8941092492078948091492088234D
:100BC00029F1F89410924920789410922001809194
:100BD000200187FDFCCFC0E4C093200180E291E0BA
:100BE0006FE640EB59E02CE430E201E00E94F202B3
:100BF000E0EBF9E0C18381E08093042013828091CF
:100C00002121813019F460E00E941D0380911F2191
:100C100090912021009709F4F1C0F89410921F21BF
:100C20001092202178948AEE91E267E070E00E94B1
:100C3000EF040097E1F18091132290911422019624
:100C4000809313229093142283E080932221809139
:100C5000EB2180932321C1E0C093242182E291E221
:100C600063E070E00E94EF048093252181E061E061
:100C70000E941D03E0EAF9E0138280912221809313
:100C8000A0098AE68A95F1F700C080E4818384E0B8
:100C9000838383E090E0E0E1F1E08483958384E85E
:100CA00080931001C093F12110924B20A7C0809136
:100CB000EA2190E08F709070009719F1ACE4B0E2F7
:100CC000EAEEF1E287E001900D928150E1F7809128
:100CD0004C20815080934C20809152208F5F8093D4
:100CE000522080E061E00E941D0387E090E0E0E296
:100CF000F1E08483958384E88093200181E08093F0
:100D00004B208091EA21807F803F41F08091EA2151
:100D100090E08F709070009709F070C08AEE91E2B9
:100D200062E271E20E944916C82F81E061E00E94F0
:100D30001D03E0EAF9E01382809122218093A0094B
:100D40008AE68A95F1F700C080E4818384E083839A
:100D50008C2F90E00197E0E1F1E08483958384E8B3
:100D60008093100181E08093F12148C08091492057
:100D70008823F1F0F8941092492078941092200181
:100D80008091200187FDFCCFC0E4C093200180E268
:100D900091E06FE640EB59E02CE430E201E00E9484
:100DA000F202E0EBF9E0C18381E08093042013823A
:100DB00080911D2190911E21009701F1F8941092CD
:100DC0001D2110921E21789480911B21882361F0AF
:100DD00080914B20882341F010924B2081E080933A
:100DE000F1210E9400050AC080914B201092F12150
:100DF000882321F481E060E00E941D03CF910F91D0
:100E000008958091F52108958091F6210895CF925B
:100E1000DF92EF92FF92CF93C82FC0907222D090B2
:100E20007322E0907422F0907522682F70E080E0C9
:100E300090E00E94FF1AA70196010E94141C181648
:100E40002CF4C701B6010E94D11AC62F8091F62159
:100E5000C81771F08C2F90E080509F4FE0E0F8E0D1
:100E600080AF91AF82AF93AF84AF95AFC093F621BF
:100E7000CF91FF90EF90DF90CF900895CF93C82F40
:100E8000882331F0833059F08091F5218C1739F0A7
:100E900080E00E9407070E94F711C093F521CF91CF
:100EA0000895E0E0F6E014821082E0E2F6E01482B9
:100EB00084E08083E0E4F6E014828FE88083E0E65B
:100EC000F6E082E284838BEB8083E0E8F6E088E062
:100ED00084838FE08083E0EEF7E01482108288E163
:100EE000808B818B0895E0E4F6E0148A158A168AD7
:100EF000A0EEB7E08AE151968C93519750968C936F
:100F0000509780E7828781E0818708951092F521CC
:100F1000E0E0F8E01282138214828FEF91E086AB5A
:100F200097AB80E091E080AF91AF82AF93AF84AF99
:100F300095AF83E0818381E080830895E0E4F6E06B
:100F4000209148068091F521882301F5809184063F
:100F5000887FA0E8B6E014968C9387E0808B818B25
:100F6000828B83E0E0E0F8E0818380E09EEFAFE7F2
:100F7000B7E48093322090933320A0933420B09331
:100F800035201092022210920322089530E020773B
:100F9000307094E0359527959A95E1F72330D9F193
:100FA000243030F4213071F0223009F093C01FC09A
:100FB000253009F45CC0253008F440C0263009F023
:100FC00089C06FC090918406987F9560A0E8B6E0D4
:100FD00014969C9397E0918B23E5A0E0B8E01196DE
:100FE0002C931197823009F06EC0908B3DC0909188
:100FF0008406987F9360A0E8B6E014969C9397E0EF
:10100000928B23E3A0E0B8E011962C9311978230E5
:1010100009F03FC042C090918406987F9660A0E896
:10102000B6E014969C9397E0908B23E6A0E0B8E09E
:1010300011962C931197823099F415C090918406E3
:10104000987F9660A0E8B6E014969C9397E0908B0A
:1010500023E6A0E0B8E011962C931197823019F4A2
:1010600087E4818B32C0918B87E4828B08959091C5
:101070008406987F9360A0E8B6E014969C9397E06E
:10108000928B23E3A0E0B8E011962C931197823065
:1010900021F4908B87E4818B089587E4808B918B7A
:1010A000089590918406987F9560A0E8B6E0149624
:1010B0009C9397E0918B23E5A0E0B8E011962C93E8
:1010C0001197823021F487E4808B928B0895908B66
:1010D00087E4828B08951F920F920FB60F9211240E
:1010E0002F933F934F935F936F937F938F939F9330
:1010F000AF93BF93EF93FF938091480690E0807782
:101100009070E4E095958795EA95E1F72091F221BA
:101110003091F3214091F421442381F050E041507B
:101120005040FA01EE0FFF1FE40FF51FEE0FFF1FF7
:10113000E80FF11DEC5FFF4D408101C040E05527F5
:1011400047FD5095420F531F4093F2215093F321D6
:101150008093F4210E94FE120E949E07FF91EF915E
:10116000BF91AF919F918F917F916F915F914F91BF
:101170003F912F910F900FBE0F901F9018958F9257
:101180009F92AF92BF92CF92DF92EF92FF920F9316
:101190001F93CF93DF93EC016A017B014801590152
:1011A000688179818A819B81A70196010E942F1A0B
:1011B00087FF04C0C882D982EA82FB826881798174
:1011C0008A819B81A50194010E94141C181624F4A5
:1011D00088829982AA82BB82C701B601A5019401C7
:1011E0000E942F1A882321F4C882D982EA82FB82C6
:1011F000DF91CF911F910F91FF90EF90DF90CF90F3
:10120000BF90AF909F908F90089580E090E0DC01B8
:101210008093172290931822A0931922B0931A2238
:1012200080931B2290931C22A0931D22B0931E2218
:101230000895CF92DF92EF92FF920F931F93CF9377
:10124000DF932091F2213091F321EC01C21BD30BEB
:10125000BE01D7FF04C0662777276C1B7D0B88274C
:1012600077FD8095982F0E94FF1A20917A22309165
:101270007B2240917C2250917D220E942F1A87FF71
:1012800002C0C0E0D0E0BE01882777FD8095982F8E
:101290000E94FF1A20917622309177224091782285
:1012A000509179220E94CD1CEB01182F092FC0907C
:1012B0006A22D0906B22E0906C22F0906D2298010F
:1012C000862F9D2FA32FB22FBC01CD01A701960120
:1012D0000E94141C18161CF4E6011E2D0F2DF7FA9F
:1012E000F094F7F8F09498018C2F9D2FA32FB02F36
:1012F000BC01CD01A70196010E942F1A87FD05C0F0
:10130000C801CC2EDD2EE92EF02EC701B60120E05B
:1013100030E0A9010E94141C1816A4F4C701B601FC
:1013200020E030E048E453E40E942F1A87FF0AC00F
:101330000F2EF0E0CF2EF0E0DF2EF8E4EF2EF3E4F6
:10134000FF2EF02DC701B60120E030E0A9010E9478
:101350002F1A87FF14C0C701B60120E030E048E42F
:1013600053EC0E94141C181654F40F2EF0E0CF2EEC
:10137000F0E0DF2EF8E4EF2EF3ECFF2EF02D0E94CC
:101380000107C701B60120E030E0A9010E94141C4A
:10139000181664F0C701B60120E030E0A9010E94F0
:1013A0002F1A881F8827881F880F01C081E00E949C
:1013B0003E07C701B6010E94CC1ACB0177FF03C0DC
:1013C000909581959F4FDF91CF911F910F91FF9045
:1013D000EF90DF90CF9008957F928F929F92AF927F
:1013E000BF92CF92DF92EF92FF920F931F93CF9312
:1013F000DF9300D000D0CDB7DEB7823039F1833033
:1014000020F4813009F030C107C0833009F450C0A6
:10141000843009F029C18AC00E940407782E6091A7
:1014200020227091212280E090E00E94FD1A6B0141
:101430007C01609102227091032280E090E00E9482
:10144000FD1A9B01AC01C701B60199C00E940407B7
:10145000782E609120227091212280E090E00E94FD
:10146000FD1A6B017C0160914020709141208091B8
:1014700042209091432020E030E04AE754E40E946B
:10148000CD1C9B01AC01C701B6010E94B719C090E9
:101490002622D0902722E0902822F0902922009145
:1014A000222210912322209124223091252279C0DA
:1014B0000E940407782E0E94B30F4B015C010E942A
:1014C000A40F6B017C01209140203091412040917C
:1014D000422050914320CA01B9010E94CD1CB62F71
:1014E000A72F382F292FC701B601FD01A9010F2F02
:1014F0001E2F252F342FA90198010E94CD1C9B017E
:10150000AC01C501B4010E94B719C0903E22D09031
:101510003F22E0904022F090412200913A22109127
:101520003B2220913C2230913D223BC00E94040787
:10153000782E609102227091032280E090E00E9458
:10154000FD1A162F872EC82E092F8091F821909111
:10155000F9210E9419098093202290932122BC0135
:1015600080E090E00E94FD1AAB01BC01CB01BA0102
:10157000402F012F182D2C2D342FA90198010E94E6
:10158000B719C0903222D0903322E0903422F090EC
:10159000352200912E2210912F222091302230915D
:1015A0003122582F492F862F972FA52FB42FBC01FA
:1015B000CD01A90198010E94CD1CDC01CB018983DA
:1015C0009A83AB83BC830091292010912A2020911B
:1015D0002B2030912C20B901A8017058CE01019622
:1015E0000E94BF08672D70E080E090E00E94FF1A23
:1015F00029813A814B815C810E94B719A70196012C
:101600000E94331ADC01CB01809317229093182299
:10161000A0931922B0931A2260E070E0CB01A701D9
:1016200096010E94331A4B015C0160912920709150
:101630002A2080912B2090912C20A70196010E94B6
:10164000331A8B019C0187E192E2B501A4010E944B
:10165000BF0880E090E0DC0180931B2290931C2265
:10166000A0931D22B0931E222496CDBFDEBFDF9132
:10167000CF911F910F91FF90EF90DF90CF90BF908F
:10168000AF909F908F907F9008950E940509809160
:10169000010480FDFCCF85E090E0E0E0F4E082878B
:1016A0009387E0E0F4E08091010480FDFACF10869A
:1016B00011868AE090E08487958781E08283809319
:1016C000000408954F925F926F927F928F929F9243
:1016D000AF92BF92CF92DF92EF92FF920F931F9340
:1016E000CF93DF93CDB7DEB72C97CDBFDEBF0E947F
:1016F000B30F6B017C0120E030E0A9010E94141CB3
:1017000087FD43C00E94A40F4B015C012091402043
:10171000309141204091422050914320CA01B901AB
:101720000E94CD1CB62FA72F382F292FC501B40139
:10173000FD01A9010F2F1E2F252F342FA90198017C
:101740000E94CD1C9B01AC01C701B6010E94B719D4
:10175000B62EA72E982E892E4090422250904322DA
:101760006090442270904522C0903E22D0903F224B
:10177000E0904022F090412200913A2210913B22C9
:1017800020913C2230913D22A3C080911F228230C3
:10179000E9F0843009F455C0813009F096C06091B9
:1017A00020227091212280E090E00E94FD1A6B01BE
:1017B0007C01609102227091032280E090E00E94FF
:1017C000FD1A9B01AC01C701B60160C060912022E7
:1017D0007091212280E090E00E94FD1A6B017C0153
:1017E000609140207091412080914220909143204F
:1017F00020E030E04AE754E40E94CD1C9B01AC019C
:10180000C701B6010E94B719B62EA72E982E892EB1
:1018100040902A2250902B2260902C2270902D22F2
:10182000C0902622D0902722E0902822F0902922F2
:1018300000912222109123222091242230912522EE
:1018400047C0609102227091032280E090E00E94E4
:10185000FD1A5B01C82E092F8091F8219091F92182
:101860000E9419098093202290932122BC0180E0DC
:1018700090E00E94FD1AAB01BC01CB01BA01402FE0
:101880000A2D1B2D2C2D342FA90198010E94B71968
:10189000B62EA72E982E892E4090362250903722B1
:1018A0006090382270903922C0903222D09033223A
:1018B000E0903422F090352200912E2210912F22B8
:1018C000209130223091312203C080912122FCC02E
:1018D000B501A401872F9A2DA52FB82DBC01CD01EC
:1018E000A90198010E94CD1CDC01CB018D839E8350
:1018F000AF83B8870091292010912A2020912B20B6
:1019000030912C20B901A8017058CE0105960E9493
:10191000BF088D819E81AF81B88589839A83AB830F
:10192000BC836091172270911822809119229091A6
:101930001A22F501A4010F2F1A2D252F382DA901E8
:1019400098010E94B819DC01CB0180931722909373
:101950001822A0931922B0931A22C701B60120E0E1
:1019600030E0A9010E942F1A882361F480E090E002
:10197000DC018093172290931822A0931922B09330
:101980001A2221C060E070E0CB01A70196010E94FD
:10199000331A69877A878B879C8760912920709199
:1019A0002A2080912B2090912C20A70196010E9443
:1019B000331A8B019C0187E192E249855A856B8538
:1019C0007C850E94BF08C701B60120911722309183
:1019D00018224091192250911A220E94CD1C9B017D
:1019E000AC0169817A818B819C810E94B819DC01EC
:1019F000CB0189839A83AB83BC83A5019401852F96
:101A00009A2DA32FB82DBC01CD0120911B2230911E
:101A10001C2240911D2250911E220E94B719262F90
:101A2000B72F4B2D5A2D692D782D40931B225093A3
:101A30001C2260931D2270931E22422F5B2F682F61
:101A4000792FCB01BA01A30192010E94CD1CDC01C8
:101A5000CB018D839E83AF83B8870091292010919D
:101A60002A2020912B2030912C20B901A8017058F8
:101A7000CE0105960E94BF0869817A818B819C8185
:101A80002D813E814F8158850E94B819DC01CB0120
:101A900089839A83AB83BC830091292010912A20EB
:101AA00020912B2030912C20CE01019640E050E077
:101AB000BA010E94BF0869817A818B819C810E9452
:101AC0001C1A0E94D11A862F2C96CDBFDEBFDF9143
:101AD000CF911F910F91FF90EF90DF90CF90BF902B
:101AE000AF909F908F907F906F905F904F900895F0
:101AF0004F925F926F927F928F929F92AF92BF921E
:101B0000CF92DF92EF92FF920F931F93CF93DF93C9
:101B10002B013C0169017A018090FA219090FB2110
:101B2000A090FC21B090FD21A50194010E94B8195C
:101B300020E030E048EC51E40E94B71920915E2289
:101B400030915F2240916022509161220E94CD1C11
:101B500020E030E040E85FE30E94B819209146227F
:101B60003091472240914822509149220E94CD1C39
:101B7000D62FC72F182F092FAE019801852F942F2C
:101B8000A32FB22F80932D2090932E20A0932F204F
:101B9000B0933020C701B601A70196010E94CD1C69
:101BA000FE01A8010F2F1E2F252F342FA901980108
:101BB0000E94CD1C20914A2230914B2240914C2210
:101BC00050914D220E94CD1CD62FC72F182F092FC0
:101BD0006AE979E989EB90EC2091562230915722FD
:101BE00040915822509159220E94331A0E94A01A03
:101BF0006B017C01AE019801852F942FA32FB22F8A
:101C0000BC01CD01A50194010E94B719A70196015D
:101C10000E94CD1C9B01AC01FE01B8018F2F9E2FAD
:101C2000A72FB62FBC01CD010E94B719F62FE72FC1
:101C3000382F292FDF01C9014B2F5A2F692F782FF9
:101C40004093FA215093FB216093FC217093FD2176
:101C5000CB01BA01A9010B2F1A2F252F342FA9016F
:101C600098010E94921D882361F080E090E0A2E03C
:101C7000B3E48093FA219093FB21A093FC21B093CD
:101C8000FD216091FA217091FB218091FC219091BE
:101C9000FD2120E030E042E053E40E94141C1816BD
:101CA00064F480E090E0A2E0B3E48093FA219093A2
:101CB000FB21A093FC21B093FD216091FA2170914A
:101CC000FB218091FC219091FD2120E030E0A901D1
:101CD0000E942F1A87FF0BC080E090E0DC01809308
:101CE000FA219093FB21A093FC21B093FD21C30125
:101CF000B2012091FA213091FB214091FC215091B9
:101D0000FD210E94B819462F572F682F792FCB013C
:101D1000BA01DF91CF911F910F91FF90EF90DF906B
:101D2000CF90BF90AF909F908F907F906F905F907B
:101D30004F9008958F929F92AF92BF92CF92DF9271
:101D4000EF92FF924C01623009F049C06091662227
:101D500070916722809168229091692220910020E1
:101D60003091012040910220509103200E94B71928
:101D70006B017C0160914A2270914B2280914C2230
:101D800090914D2220912D2030912E2040912F2096
:101D9000509130200E94CD1C9B01AC01C701B601BF
:101DA0000E94331A0E94541D6B017C01B40180E033
:101DB00090E00E94FD1A4B015C01C701B60120E0D2
:101DC00030E04AE754E40E94CD1C9B01AC01C50100
:101DD000B4010E942F1A881F8827881F4EC06130C7
:101DE00009F04AC060916622709167228091682252
:101DF0009091692220910020309101204091022091
:101E0000509103200E94B7196B017C0160914A2216
:101E100070914B2280914C2290914D2220912D2047
:101E200030912E2040912F20509130200E94CD1CC7
:101E30009B01AC01C701B6010E94331A0E94541DD8
:101E400020E030E040EA5FE30E94CD1C9B01AC0142
:101E500060914020709141208091422090914320D8
:101E60000E942F1A181644F081E02091022230912E
:101E700003222815390508F480E0FF90EF90DF90E9
:101E8000CF90BF90AF909F908F9008951F93CF9366
:101E9000DF93182FEB01809131208230C9F183301C
:101EA00038F4882309F44AC0813009F041C008C0E1
:101EB000853009F443C0863069F08330C9F53EC0EF
:101EC000CB01612F0E949A0E8130A9F586E08093A4
:101ED000312034C060910020709101208091022057
:101EE000909103202091FA213091FB214091FC2117
:101EF0005091FD210E94B81920914E2230914F221D
:101F000040915022509151220E942F1A87FF03C006
:101F10001092312013C0CE01612F0E949A0E8130A1
:101F200069F081E08093312083E00E94EC0903C0D6
:101F300080E090E005C081E090E002C082E090E0A7
:101F4000DF91CF911F91089550912D2040912E2027
:101F500030912F2020913020852F942FA32FB22F46
:101F6000BC01CD0108950F931F93CF93DF93809110
:101F700031208150823090F5609166227091672205
:101F80008091682290916922209100203091012057
:101F900040910220509103200E94B71920914A22BB
:101FA00030914B2240914C2250914D220E94331A85
:101FB0008B01D82FC92F9E01862F912FA32FB22FCF
:101FC000BC01CD0120E030E0A9010E942F1A87FF5B
:101FD00009C000E010E0D0E0C0E004C000E010E084
:101FE000D0E8CFEB9E01802F912FA32FBC2FBC01F7
:101FF000CD01DF91CF911F910F910895CF92DF9284
:10200000EF92FF92E0913120E33041F1E43038F477
:10201000E13009F485C0E23008F0EEC05BC0E53085
:1020200009F460C1E53020F0E63009F061C1B0C0CC
:102030000E94780DC090FE21D090FF21E0900022F8
:10204000F0900122C701B60120E030E0A9010E9412
:10205000141C1816A4F4C701B6012BC00E94780DF9
:102060006091FE217091FF218091002290910122C8
:1020700020E030E0A9010E942F1A18166CF080E0D1
:1020800090E0DC018093FA219093FB21A093FC2146
:10209000B093FD2185E00EC10E940107882309F05D
:1020A00025C16091FE217091FF21809100229091C5
:1020B00001222AE939E949EB50E40E94B719DC0111
:1020C000CB018093FE219093FF21A0930022B09337
:1020D00001220EC10E94780D6B017C010E94010754
:1020E000882309F491C0C701B60120915A2230918A
:1020F0005B2240915C2250915D220E94141C87FF5C
:10210000A7C0C701B60120914E2230914F224091C5
:102110005022509151220E94141C87FDE9C067C0D3
:102120000E94780D6B017C010E940107882309F44D
:102130006BC0C701B60120915A2230915B224091B9
:102140005C2250915D220E94141C87FF81C0C70150
:10215000B60120914E2230914F2240915022509151
:1021600051220E942F1A87FF02C082E0A3C0C090B4
:102170001F2280912022909121226C2D0E949A0E84
:10218000813009F0B5C08C2D0E94EC0986E092C028
:102190000E94780D6B017C010E9401078823A1F148
:1021A000C701B60120915A2230915B2240915C22F6
:1021B00050915D220E94141C87FF4AC0C701B601DE
:1021C0002091522230915322409154225091552215
:1021D0000E942F1A87FD7FC080912022909121229A
:1021E00060911F220E949A0E882309F081C081E02D
:1021F0008093312083E073C00E94780D6B017C01D5
:102200000E9401078823B1F483E08093312060911C
:1022100062227091632280916422909165222091C4
:1022200056223091572240915822509159220E94B3
:10223000CD1C45CFC701B60120915A2230915B22B7
:1022400040915C2250915D220E94141C87FD23C0A6
:1022500084E08093312060916222709163228091AA
:10226000642290916522209156223091572240910C
:102270005822509159220E94CD1CDC01CB01809341
:10228000FE219093FF21A0930022B093012280E0D1
:102290000E943E072DC0C701B60120914E22309109
:1022A0004F2240915022509151220E94141C87FDD0
:1022B00004C081E0809331201BC0C701B60120918A
:1022C00052223091532240915422509155220E9423
:1022D0002F1A87FF0DC01092312080911F220E947B
:1022E000EC0906C00E940107882311F010923120EA
:1022F000FF90EF90DF90CF900895CF92DF92EF9212
:10230000FF920F931F93CF93DF936B017C0120E02B
:1023100030E44CE156E40E94CD1CD62FC72F182F75
:10232000092F60E070E080E290E4A70196010E942E
:10233000B7199B01AC01FE01B8018F2F9E2FA72F6B
:10234000B62FBC01CD010E94331A462F572F682F9C
:10235000792FCB01BA01DF91CF911F910F91FF909F
:10236000EF90DF90CF9008950F931F9320E030E41B
:102370004CE156E40E94331A0E945A1C26EF3DEEAF
:1023800043E859E30E94CD1C462F572F682F792F21
:10239000CB01BA012FE03FEC4BE55BE30E94B8199B
:1023A000B62FA72F382F292F60E070E080E89FE339
:1023B000FD01A9010F2F1E2F252F342FA9019801F0
:1023C0000E94331A462F572F682F792FCB01BA015D
:1023D00023E333E948E853E40E94B719462F572F07
:1023E000682F792FCB01BA011F910F910895109298
:1023F000092210920B2210920C2210920A2280E0E5
:102400009EEFAFE7B7E48093322090933320A09300
:102410003420B093352010920222109203221092A1
:1024200006220895CF92DF92EF92FF921F93CF93EF
:10243000DF9380910922882351F580910A22882315
:1024400031F180910B2290910C22C0910A22BC01A3
:1024500080E090E00E94FD1A6B017C016C2F70E01F
:1024600080E090E00E94FD1A9B01AC01C701B6011B
:102470000E94331ADC01CB018093322090933320E9
:10248000A0933420B09335201092062244C080914E
:1024900006228F5F8093062280910622843628F0E0
:1024A00080E09EEFAFE7B7E42EC02091062230E037
:1024B00081E792E0289FB001299F700D389F700D31
:1024C0001124882777FD8095982F0E94FF1AC62E29
:1024D000172FD82FC92F9E01862F912FA32FB22FF0
:1024E000BC01CD0120913220309133204091342025
:1024F000509135200E94141C18166CF49E018C2DEE
:10250000912FA32FB22F8093322090933320A0934A
:102510003420B09335206091322070913320809127
:1025200034209091352025E93FEB46E556E30E94A3
:10253000CD1C9B01AC0160E070E080E89FE30E944D
:10254000331A162FD72FC82FC92E862F9D2FAC2FA9
:10255000BC2DBC01CD0120E03FEF4FE757E40E94C6
:10256000141C1816B4F0812F9D2FAC2FBC2DBC016C
:10257000CD0120E030E0A9010E942F1A87FD0CC098
:10258000812F9D2FAC2FBC2DBC01CD010E94D11AF3
:1025900005C06FEF7FEF02C060E070E06093022241
:1025A000709303221092092210920B2210920C2297
:1025B00010920A22DF91CF911F91FF90EF90DF9050
:1025C000CF900895E0E8F1E084E6808385E681839A
:1025D00086E68283108611861286E0E0FAE080E7C4
:1025E0008183128288E2838314828FEF9FEF86AB10
:1025F00097AB10A211A286E080830895E0E0FAE094
:1026000080910B0A8E70843049F0883061F08230FE
:1026100079F48091380A9091390A13C080913A0A6E
:1026200090913B0A0EC080913C0A90913D0A09C0EE
:102630008EE0828710A211A2109207221092082227
:1026400008952091072230910822AC01421B530BC0
:1026500040930422509305228093072290930822EE
:1026600020910B2230910C2280910422909105221E
:1026700040910A224F3F49F0820F931F20910B2275
:1026800030910C228217930750F481E08093092245
:1026900010920B2210920C2210920A22089580931D
:1026A0000B2290930C2280910A228F5F80930A2242
:1026B00008951F93CF93DF93C0ECD1E09091CF01A9
:1026C00097FDFACF8093C0011091CA0187E08A87F5
:1026D0008BEC91E061E00E94B1191A878091C401EE
:1026E000DF91CF911F910895EF92FF920F931F9367
:1026F000CF93DF930F92CDB7DEB7E82EFF24EE0C19
:10270000FF1CEE0CFF1C8B0120E0C70129830E94F7
:10271000A61DF80181938F0129812F5F0894E11C88
:10272000F11C243091F70F90DF91CF911F910F9101
:10273000FF90EF900895EF92FF920F931F93CF9326
:10274000DF930F92CDB7DEB78B01E82EFF24EE0C9E
:10275000FF1CEE0CFF1C20E0F80161918F01C70106
:1027600029830E94B61D29812F5F0894E11CF11C6A
:10277000243091F70F90DF91CF911F910F91FF902F
:10278000EF9008951F920F920FB60F9211248F931E
:10279000F89481E08093F7218F910F900FBE0F90F6
:1027A0001F901895CF92DF92EF92FF92CF93DF9315
:1027B0006A017B01C82FD0E0CC0FDD1FCC0FDD1FDD
:1027C000CE01642F0E94B61D77276F2D5E2D4D2DF3
:1027D000CE010196642F0E94B61DA70166277727B8
:1027E000CE010296642F0E94B61DCF2CDD24EE246C
:1027F000FF24CE0103966C2D0E94B61DDF91CF9170
:10280000FF90EF90DF90CF9008951F93CF93DF93C9
:102810008FE892ECA5EFBCE38093222290932322D1
:10282000A0932422B09325228AE097EDA3E2BCE393
:102830008093262290932722A0932822B0932922C6
:1028400080E090E0DC0180932A2290932B22A093D9
:102850002C22B0932D224AE057ED63EA7BE34093AC
:102860002E2250932F2260933022709331224AE01F
:1028700057ED63E27BE3409332225093332260931F
:102880003422709335228093362290933722A0937E
:102890003822B093392240E050E060E87FE3409373
:1028A0003A2250933B2260933C2270933D224AE9A6
:1028B00059E969E97EE340933E2250933F226093B9
:1028C0004022709341228093422290934322A0930E
:1028D0004422B09345228DEC9CECA4EEB1E48093AD
:1028E000462290934722A0934822B093492281E741
:1028F0009DE3AAE2B0E480934A2290934B22A093F6
:102900004C22B0934D2280E090E0A4EBB2E480939F
:102910004E2290934F22A0935022B0935122809345
:10292000522290935322A0935422B093552240E018
:1029300050E26EED74E44093562250935722609318
:1029400058227093592240E050E06CED72E44093BD
:102950005A2250935B2260935C2270935D2244E282
:1029600057E96FE77BE340935E2250935F226093C9
:1029700060227093612240E050E060EA70E440938E
:102980006222509363226093642270936522809345
:10299000662290936722A0936822B093692280E018
:1029A00090E8ABE3B6E480936A2290936B22A09305
:1029B0006C22B0936D2280E090E0A9ECB3E48093A8
:1029C0006E2290936F22A0937022B093712280E0C8
:1029D00090E0A6E1B3E48093722290937322A093D7
:1029E0007422B093752280E090E0A0E7B1E4809378
:1029F000762290937722A0937822B093792280E078
:102A000090E0A8ECB1E480937A2290937B22A0938B
:102A10007C22B0937D22C2E2D2E210E0499159912A
:102A200069917991812F0E94D2131F5F1931B1F7FB
:102A300080E890E060E00E94B61D81E890E060E2EE
:102A40000E94B61DDF91CF911F910895CF92DF9222
:102A5000EF92FF920F931F93CF93DF9380E890E064
:102A60000E94A61D882331F481E890E00E94A61DF3
:102A7000803211F00E940514C0E0D0E000E010E0C8
:102A8000CE0103960E94A61DC82ECE0102960E947A
:102A9000A61DDD24EE24FF24FE2CED2CDC2CCC2402
:102AA00090E0A0E0B0E0C82AD92AEA2AFB2ACE01A9
:102AB00001960E94A61DFE2CED2CDC2CCC2490E06F
:102AC000A0E0B0E0C82AD92AEA2AFB2ACE010E9457
:102AD000A61DF801EE0FFF1FEE0FFF1FEE5DFD4D6F
:102AE000FE2CED2CDC2CCC2490E0A0E0B0E0C82A39
:102AF000D92AEA2AFB2AC082D182E282F3820F5FBE
:102B00001F4F24960931110509F0BACFDF91CF91FB
:102B10001F910F91FF90EF90DF90CF900895CF938A
:102B2000DF93CDB7DEB7A097CDBFDEBFF89410928C
:102B30000001E0EBF9E0138228E12483FC0180E04E
:102B400090E02091B10925FFFCCF21912093B0099D
:102B5000019687309105A9F78091B10985FFFCCFD7
:102B600080E4E0EBF9E08183E0EBF9E08091B109EA
:102B700086FFFACF8FE39FE10197F1F700C00000D5
:102B8000A0EAB9E013961C92139725EC16962C93A5
:102B900016979CEA17969C93179788E114968C9346
:102BA000138226839783848330E020E040E050E066
:102BB00080E090E0DC0160E070E010E4E12E16E0DF
:102BC000F12E10E80196A11DB11D8139EFE59E0798
:102BD000E1E0AE07E0E0BE0778F06F5F7F4FCB012A
:102BE00083709070F7018330910511F4158301C053
:102BF000168380E090E0DC01E091B109E7FF0BC0B3
:102C00000091B009E1E1F0E0EC0FFD1FE50FF11DCF
:102C100000835F5F5F70E091A109E7FF0BC0009147
:102C2000A009E1E0F0E0EC0FFD1FE20FF11D0083D1
:102C30002F5F2F70541779F0E091A109E5FF0BC0C9
:102C4000E1E1F0E0EC0FFD1FE40FF11DE081E09306
:102C5000A0094F5F4F70231779F0E091B109E5FFAC
:102C60000BC0E1E0F0E0EC0FFD1FE30FF11DE08190
:102C7000E093B0093F5F3F70683C71050CF4A2CF50
:102C800093E088ED08B684BF90938000A89508BEB5
:102C9000FFCFCF92DF92EF92FF920F931F93CF93CC
:102CA000DF93EC017B011981012F007F0038D1F007
:102CB000013840F40036B1F00037A1F0002309F4E8
:102CC00070C055C2003A09F428C1013A20F4003915
:102CD00009F04DC207C0003B09F431C2003C09F0C5
:102CE00046C213C21F71193128F5E12FF0E0EE0F33
:102CF000FF1FEE0FFF1F003711F0003669F4EE5D85
:102D0000FD4D80819181A281B381F70183839483FA
:102D1000A583B68387E01AC04A815B816C817D817F
:102D2000EE5DFD4D4083518362837383812F0E944A
:102D3000D21332C0003711F00036A9F4B7016D5F2D
:102D40007F4F812F0E94741387E0F70180830183F6
:102D50001282C70167E070E00E94EF04F7018783E9
:102D600088E090E013C2BE016E5F7F4F812F0E940A
:102D70009B131F3189F48B819A81892B9C81892B2C
:102D80009D81892B29F080E8E0E4F6E0858304C08A
:102D900080E8E0E4F6E0868383E0F7018083018346
:102DA000CCC10A811B8115FF0FC080913A20909100
:102DB0003B20A0913C20B0913D20FB018383948374
:102DC000A583B683C4E001C0C0E010FF18C06091C5
:102DD000402070914120809142209091432020E03A
:102DE00030E04AE754E40E94CD1C0E94301D0E944E
:102DF000D11AF701EC0FF11D63837483CE5F07FFD7
:102E000018C0609100207091012080910220909163
:102E1000032020E030E048EC52E40E94CD1C0E94E8
:102E2000301D0E94D11AF701EC0FF11D63837483EA
:102E3000CE5F06FF0AC09091022280910322F70123
:102E4000EC0FF11D93838483CE5F03FF22C060915A
:102E5000FA217091FB218091FC219091FD2120911C
:102E600000203091012040910220509103200E94C7
:102E7000B81920E030E048EC52E40E94CD1C0E94DA
:102E8000301D0E94D11AF701EC0FF11D638374838A
:102E9000CE5F02FF0EC08091F2219091F321F701E5
:102EA000EC0FF11D83838091F2219091F3219483A3
:102EB000CE5F01FF1DC080E00E945913F70183839C
:102EC00081E00E945913F701848382E00E94591324
:102ED000F701858384E00E945913F701868385E01A
:102EE0000E945913F70187838091D0018087CA5FC0
:102EF0008C2F8D5FF701808311821282D0E0BE019A
:102F00006D5F7F4F8701060F171FC7010E94EF04F7
:102F1000F8018083CE01049639C1E12FE370F0E01F
:102F2000EA5CFF4DD0801C70143031F0183009F08D
:102F300036C1CC24C39402C002E0C02E0E94010717
:102F4000882329F40E94050980E00E9407070A806F
:102F5000DB81C02DF1E0DF1661F1DF1648F022E0E1
:102F6000D21609F45BC084E0D81609F0A2C081C073
:102F7000F894EDEFC130DE0708F0A3C080E0BE0199
:102F80000E94460F8C0101978230910508F09EC087
:102F900010921F22C0932022D09321228C2D0E94B8
:102FA0003E070230110509F087C08D2F0E940707E8
:102FB0008DC0F894BE0180E090E00E94FD1A20913F
:102FC0006A2230916B2240916C2250916D220E94B6
:102FD000141C18160CF475C0C83CD10508F471C057
:102FE00081E0BE010E94460F8C010197823091055D
:102FF00008F06CC0C0932022D0932122023011052A
:1030000059F480911F22813039F00E9401078823F2
:1030100019F081E00E94EC0981E025C0F894CE010E
:103020000197F5E08C3D9F0708F04BC082E0BE01A0
:103030000E94460F8C0101978230910508F046C02E
:10304000C0932022D09321220230110559F480919F
:103050001F22823039F00E940107882319F082E094
:103060000E94EC0982E080931F228C2D0E943E0773
:103070002DC0F894C093F821D093F921CE01805E41
:10308000934EE8E381349E07E0F4CE010E941909D3
:10309000EC0181E0BE010E94460F8C010197823055
:1030A0009105A0F4C0932022D0932122D0921F2218
:1030B0000DC0C0E0D0E007C0C0E0D0E001E010E00B
:1030C00007C0C1E0D0E000E010E002C0C0E0D0E006
:1030D00078940E949E07CC2051F0209711F082E84E
:1030E0000CC00130110531F00230110529F4F7014F
:1030F000128205C080E801C081E8F701828383E085
:10310000F701808380EA818338C08A8181FF08C00B
:10311000109213221092142210921522109216224D
:1031200082FF06C0F8941092F2211092F321789455
:1031300083E0F701808380EC818312821EC08A8144
:10314000982F9F7059F0807F8A83CE0166E070E0EF
:103150000E94EF048E83CE010E948F1593E088EDCC
:1031600008B684BF90938000A89508BEFFCF83E087
:10317000F7018083018382E08283C70163E070E00E
:103180000E94EF04F701838384E090E0DF91CF9108
:103190001F910F91FF90EF90DF90CF90089580E006
:1031A0000E943E07DD24CC24D2CE80E8E0E4F6E0A5
:1031B0008583089580E8E0E4F6E08683089580E85A
:1031C000E0E4F6E087830895CF93DF9300D000D04A
:1031D000CDB7DEB7F8948FE39FE10197F1F700C018
:1031E000000086E0809350008091510081FFFCCF69
:1031F0008091510082FFFCCF81E08093600080933A
:10320000680098ED94BF8093400085E0E0E4F0E032
:103210008383EFE3FFE13197F1F700C000000E94E4
:1032200051070E94261519821A821B821C828FE187
:10323000BE016F5F7F4F0E94741389819A81AB81B9
:10324000BC810097A105B10529F080E8E0E4F6E033
:10325000858304C080E8E0E4F6E0868319821A8260
:103260001B821C828DE1BE016F5F7F4F0E94741331
:1032700089819A81AB81BC818E32F1E09F07F0E0B9
:10328000AF07F0E0BF0771F08EE291E0A0E0B0E0A0
:1032900089839A83AB83BC838DE1BE016F5F7F4FCF
:1032A0000E949B130E9486070E94E2120E947A05E8
:1032B0000E945E010E9473070E94450B8091A2004C
:1032C0008160E0EAF0E0828300EC11E08091CF01C0
:1032D00087FDFACF8FEBF8018483E090CA0188E084
:1032E00082878BEC91E061E00E94B119F801E286DF
:1032F00078940E949E0720E2E22E26E0F22E14E04F
:1033000080914720882311F00E94A7050E94F303B3
:103310008091F7218130A1F7F7011583F89410927D
:10332000F7210E94121278940E94CE016091002031
:1033300070910120809102209091032020914020E3
:103340003091412040914220509143200E94FE0F35
:103350000E94620B0E9407070E949E07F7011683D6
:10336000CFCF1BBEFC0128ED24BF608308955058C9
:10337000BB27AA270ED007C2F8D130F0FDD120F02C
:1033800031F49F3F11F41EF4C8C10EF4E095E7FB41
:1033900095C1E92F09D280F3BA1762077307840732
:1033A000950718F071F49EF538C20EF4E0950B2ED7
:1033B000BA2FA02D0B01B90190010C01CA01A00187
:1033C0001124FF27591B99F0593F50F4503E68F1E2
:1033D0001A16F040A22F232F342F4427585FF3CF23
:1033E000469537952795A795F0405395C9F77EF4F4
:1033F0001F16BA0B620B730B840BBAF09150A1F03D
:10340000FF0FBB1F661F771F881FC2F70EC0BA0FC2
:10341000621F731F841F48F4879577956795B7954A
:10342000F7959E3F08F0B3CF9395880F08F0992742
:10343000EE0F979587950895D9D180F09F3740F486
:1034400091110EF4EBC160E070E080E89FE3089515
:1034500026F01B16611D711D811D36C150C10AD198
:1034600008F481E008950CD08EC186D140F07DD162
:1034700030F021F45F3F19F021C15111CFC14DC18E
:1034800093D198F39923C9F35523B1F3951B550BA9
:10349000BB27AA2762177307840738F09F5F5F4F27
:1034A000220F331F441FAA1FA9F333D00E2E3AF068
:1034B000E0E830D091505040E695001CCAF729D082
:1034C000FE2F27D0660F771F881FBB1F26173707D1
:1034D0004807AB07B0E809F0BB0B802DBF01FF2701
:1034E00093585F4F2AF09E3F510568F0E7C096C1A0
:1034F0005F3FECF3983EDCF3869577956795B7953B
:10350000F7959F5FC9F7880F911D9695879597F955
:103510000895E1E0660F771F881FBB1F62177307CE
:103520008407BA0720F0621B730B840BBA0BEE1FE3
:1035300088F7E095089519F40EF0C0C06EC1EDC093
:103540003BD1C8F39638C0F707F80F92E8942BE305
:103550003AEA48EB5FE72FD20F920F920F924DB7E6
:103560005EB70F92E7D1ECEFF1E0DAD04F915F91C7
:10357000EF91FF91E595EE1FFF1F49F0FE57E068C0
:103580004427EE0F441FFA95E1F74195550B59D1A9
:103590000F9007FE4DC1089504D06894B1113EC14B
:1035A00008950AD188F09F5790F0B92F9927B75105
:1035B000A0F0D1F0660F771F881F991F1AF0BA95F7
:1035C000C9F712C0B13081F028D1B1E0089525C10A
:1035D000672F782F8827B85F39F0B93FCCF38695ED
:1035E00077956795B395D9F73EF49095809570954A
:1035F00061957F4F8F4F9F4F0895E89409C097FBC7
:103600003EF490958095709561957F4F8F4F9F4FB9
:103610009923A9F0F92F96E9BB279395F6958795FD
:1036200077956795B795F111F8CFFAF4BB0F11F4C0
:1036300060FF1BC06F5F7F4F8F4F9F4F16C0882367
:1036400011F096E911C0772321F09EE8872F762F9D
:1036500005C0662371F096E8862F70E060E02AF0DE
:103660009A95660F771F881FDAF7880F96958795CA
:1036700097F90895990F0008550FAA0BE0E8FEEF9F
:1036800016161706E807F907C0F012161306E40726
:10369000F50798F0621B730B840B950B39F40A261F
:1036A00061F0232B242B252B21F408950A2609F4FD
:1036B000A140A6958FEF811D811D089597F99F6701
:1036C00080E870E060E00895882371F4772321F0AA
:1036D0009850872B762F07C0662311F499270DC0C9
:1036E0009051862B70E060E02AF09A95660F771F64
:1036F000881FDAF7880F9695879597F908959F3F69
:1037000031F0915020F4879577956795B795880F9C
:10371000911D9695879597F908959FEF80EC0895F0
:10372000DF93CF931F930F93FF92EF92DF927B0172
:103730008C01689405C0DA2EEF013BD1FE01E894BC
:10374000A5912591359145915591AEF3EF0121DE7B
:10375000FE019701A801DA9479F7DF90EF90FF90CE
:103760000F911F91CF91DF91089500240A941616AE
:10377000170618060906089500240A94121613065F
:10378000140605060895092E0394000C11F48823ED
:1037900052F0BB0F40F4BF2B11F460FF04C06F5F09
:1037A0007F4F8F4F9F4F089557FD9058440F551FDF
:1037B00059F05F3F71F04795880F97FB991F61F0B3
:1037C0009F3F79F087950895121613061406551F2A
:1037D000F2CF4695F1DF08C0161617061806991F96
:1037E000F1CF86957105610508940895E5DFA0F095
:1037F000BEE7B91788F4BB279F3860F41616B11DD1
:10380000672F782F8827985FF7CF869577956795EC
:10381000B11D93959639C8F30895E894BB276627A0
:103820007727CB0197F9089525DF08F48FEF0895E6
:103830009B01AC0160E070E080E89FE314CE3ECFD6
:103840005ECFBADFE8F39923D9F3940F511DBBF390
:103850009150504094F059F0882332F0660F771F52
:10386000881F91505040C1F79E3F510544F7880F83
:10387000911D9695879597F908955F3FACF0983E16
:103880009CF0BB27869577956795B79508F4B1604E
:103890009395C1F7BB0F58F711F460FFE8CF6F5F46
:1038A0007F4F8F4F9F4FE3CFB9CF0EF028CF35CF4B
:1038B000689404CF81DFC8F39923D1F3C6F3DF9373
:1038C000CF931F930F93FF92C92FDD2788232AF0F0
:1038D0002197660F771F881FDAF720E030E040E875
:1038E0005FEB9FE3883920F0803E30F021968F77A0
:1038F0003FDDE4E2F2E003C03BDDE1E5F2E010DFB2
:103900008B01BE01EC01FB2E6F5771097595771F76
:10391000880B990B74DE28E132E741E35FE349D07D
:10392000AF2D9801AE01FF900F911F91CF91DF91C4
:1039300030DD29CFFA01DC01AA0FBB1F9B01AC01CE
:10394000BF5728F422273327442750781FC0B75188
:1039500088F4AB2F0024469537952795011CA39535
:10396000D2F3002069F0220F331F441FB395DAF31E
:103970000DD0FDCC61307105A0E88A07B94630F45E
:103980009B01AC016627772788279078309621F035
:10399000208331834283538308950BD0F4CEE5DE38
:1039A00028F0EADE18F0952309F088CEB6CE11246F
:1039B00035CFFADEA0F3959FD1F3950F50E0551F58
:1039C000629FF001729FBB27F00DB11D639FAA2774
:1039D000F00DB11DAA1F649F6627B00DA11D661FC3
:1039E000829F2227B00DA11D621F739FB00DA11DE4
:1039F000621F839FA00D611D221F749F3327A00D9E
:103A0000611D231F849F600D211D822F762F6A2F39
:103A100011249F5750408AF0E1F088234AF0EE0FBE
:103A2000FF1FBB1F661F771F881F91505040A9F7CB
:103A30009E3F510570F042CEF1CE5F3FECF3983ED1
:103A4000DCF3869577956795B795F795E7959F5F32
:103A5000C1F7FE2B880F911D9695879597F90895CC
:103A6000ABDEE0F09E37D8F09639B8F49E3848F4D3
:103A7000672F782F8827985FF9CF86957795679578
:103A800093959539D0F3B62FB1706B0F711D811DD1
:103A900020F4879577956795939516CE30CEBECE58
:103AA00011F40EF43ACE2BCE87DED0F39923D9F35E
:103AB000CEF39F57550B87FF39D00024A0E640EA8C
:103AC000900180585695979528F4805C660F771F73
:103AD000881F20F026173707480730F4621B730B46
:103AE000840B202931294A2BA69517940794202569
:103AF00031254A2758F7660F771F881F20F02617B1
:103B00003707480730F4620B730B840B200D311D0F
:103B1000411DA09581F7B901842F9158880F969582
:103B200087950895A7DD880B990B08959150504013
:103B3000660F771F881FD2F70895FB01DC0102C0D2
:103B400001900D9241505040D8F7089503D08081E4
:103B500099270895E0ECF1E0378537FDFDCF3485F6
:103B600038603487FC01E050F04F0895262FE0ECD8
:103B7000F1E0378537FDFDCF3485377F34873785D2
:103B800031FF09C036E3328738ED34BF31E0338787
:103B9000378537FDFDCF33E33287808391831282EF
:103BA000248325E3228728ED31E024BF3387019663
:063BB0000895F894FFCF18
:103BB6000000C8410100FEFF020103020001FEFDF4
:103BC600FF01FF000302FEFE02FD00FF01FF03FEF0
:103BD600010002FD0102FFFE0000007D43CDCCE4A2
:0A3BE600410400FE7F4704020001C5
:00000001FF
